:020000040800F2
:10000000000001207D170008751400087D14000809
:10001000851400088D1400089514000800000000E5
:100020000000000000000000000000009D14000817
:10003000AB14000800000000B9140008C714000841
:10004000CD170008CD170008CD170008CD17000800
:10005000CD170008CD170008CD170008CD170008F0
:10006000D3140008CD170008CD170008CD170008DD
:10007000CD170008CD170008CD170008CD170008D0
:10008000CD170008CD170008CD17000800000000AC
:10009000000000000000000000000000CD17000874
:1000A000CD170008E1140008CD170008CD1700088F
:1000B000F51400083116000845160008CD17000891
:1000C000CD170008CD170008CD170008CD17000880
:1000D000CD170008CD170008CD170008000000005C
:1000E0005916000869160008CD1700080000000026
:1000F000000000000000000000000000CD17000814
:1001000000000000CD170008CD170008CD1700082B
:1001100000000000000000000000000000000000DF
:10012000B1160008CD170008CD170008C516000845
:10013000CD170008000000000000000000000000D3
:10014000000000000000000000000000D9160008B8
:10015000CD170008CD170008CD170008CD170008EF
:10016000CD170008CD1700080000000000000000B7
:10017000000000000000000000000000000000007F
:1001800000000000CD170008000000000000000083
:04019000CD1700087F
:1001A00010B5054C237833B9044B13B10448AFF3B1
:1001B00000800123237010BD3406002000000000E1
:1001C000D8F1000808B5034B1BB103490348AFF34E
:1001D000008008BD0000000038060020D8F10008AB
:1001E00001F0FF01102A2BDB10F0070F08D010F8E8
:1001F000013B013A8B422DD010F0070F42B3F6D1EC
:10020000F0B441EA012141EA014122F007047FF004
:1002100000070023F0E80256083C85EA010586EA5B
:10022000010685FA47F5A3FA87F586FA47F6A5FA97
:1002300087F68EB9EED1F0BC01F0FF0102F00702A3
:1002400032B110F8013B013A83EA010313B1F8D14E
:100250000020704701387047002D06BF354603382F
:10026000073815F0010F07D1013015F4807F02BF68
:10027000013015F4C03F0130F0BC0138704700BFB9
:1002800053B94AB9002908BF00281CBF4FF0FF31FD
:100290004FF0FF3000F06AB9ADF1080C6DE904CE03
:1002A00000F006F8DDF804E0DDE9022304B0704751
:1002B0002DE9F047089D0C46002B4ED194468C4505
:1002C0008646B2FA82F262D94AB1C2F12003914065
:1002D00020FA03F30CFA02FC194300FA02FE4FEA7B
:1002E0001C471FFA8CF6B1FBF7F44FEA1E4307FBDD
:1002F000141143EA014304FB06F199420AD91CEBAD
:10030000030304F1FF3080F01281994240F20F8123
:10031000023C6344591A1FFA8EF3B1FBF7F007FB56
:10032000101143EA014300FB06F69E420AD91CEB7A
:10033000030300F1FF3180F0FC809E4240F2F9801F
:10034000634402389B1B40EA044000211DB1D340A6
:100350000022C5E90032BDE8F0878B4205D90DB116
:10036000C5E9000100210846F5E7B3FA83F1002949
:1003700046D1A34202D39042C0F0F080861A64EBCB
:1003800003030120002DE6D0C5E90063E3E7002A5E
:1003900040F09080A1EB0C044FEA1C481FFA8CF748
:1003A0000121B4FBF8F64FEA1E4308FB164443EA6A
:1003B000044307FB06F0984208D91CEB030306F13F
:1003C000FF3402D2984200F2CD8026461C1A1FFA52
:1003D0008EF3B4FBF8F008FB104443EA044300FB3F
:1003E00007F79F4208D91CEB030300F1FF3402D248
:1003F0009F4200F2B0802046DB1B40EA0640A5E7A2
:10040000C1F120068B4022FA06F71F4320FA06FCB2
:1004100004FA01F343EA0C03F44000FA01F8380C43
:100420004FEA1349B4FBF0FE1FFA87FC00FB1E44A1
:1004300049EA04440EFB0CF9A14502FA01F20AD97B
:100440003C190EF1FF3A80F08480A14540F2818092
:10045000AEF1020E3C44A4EB09041FFA83F9B4FB8D
:10046000F0F300FB134449EA044403FB0CFCA445ED
:1004700007D93C1903F1FF3067D2A44565D9023B87
:100480003C4443EA0E40A0FB0293A4EB0C049C42C4
:10049000CE469C4651D34ED055B1B8EB0E0364EB1B
:1004A0000C0404FA06F6CB401E43CC40C5E90064B8
:1004B000002150E7C2F1200320FA03F10CFA02FCFC
:1004C00024FA03F394400C434FEA1C4800FA02FE5E
:1004D0001FFA8CF7B3FBF8F008FB1031230C43EA4A
:1004E000014300FB07F1994208D91CEB030300F11B
:1004F000FF362CD299422AD9023863445B1AA4B23F
:10050000B3FBF8F108FB113344EA034401FB07F3A2
:10051000A34208D91CEB040401F1FF3613D2A34215
:1005200011D902396444E41A41EA004139E704462A
:10053000F0E6084606E7C845AED2B9EB020E63EB1B
:10054000070C0138A8E73146EDE7034699E7304646
:10055000D4E7D6467FE7634402384DE70646234694
:1005600008460FE7023E634430E700BF704700BF14
:1005700080B483B000AF0346FB80FB88042B02D11C
:10058000044B01221A7000BF0C37BD465DF8047B96
:10059000704700BF4409002080B586B000AF01F06D
:1005A00017F900F06BF800F0FBFB00F0D1FB00F056
:1005B00023F900F04FF900F0DBF900F0CBF800F080
:1005C00023FB00F0ABFA00F075FB00F007FA0BF02C
:1005D0002BFC01224FF48051234802F009FB0BF061
:1005E0001FFA00200BF009FC00200BF0A9FB0122F0
:1005F0004FF400611C4802F0FBFA0DF083FF00F09D
:10060000FBF80DF015FE00224FF48041174802F070
:10061000EFFA00224FF48051144802F0E9FA002268
:100620004FF40071114802F0E3FA114806F08AFC19
:100630000021104806F070FD0F4B32225A63002350
:10064000FB820023BB8200237B8200233B820CF0D1
:10065000D5F801212B200DF085FC0DF067F90CF089
:1006600089F900BFF3E700BF000802400004024020
:100670006C080020240800200000014080B594B0E0
:1006800000AF07F120033022002118460EF024F9B4
:1006900007F10C0300221A605A609A60DA601A614E
:1006A0000023BB60294B1B6C284A43F08053136422
:1006B000264B1B6C03F08053BB60BB6800237B6040
:1006C000234B1B6823F44043214A43F40043136047
:1006D0001F4B1B6803F440437B607B6805233B6230
:1006E0004FF480337B620123BB620223BB634FF470
:1006F0008003FB6304233B64A8237B640423BB6463
:100700000723FB6407F12003184604F0DFFC0346CF
:10071000002B01D000F032FC0F23FB6002233B6171
:1007200000237B614FF48053BB610023FB6107F121
:100730000C030221184604F041FF0346002B01D0B0
:1007400000F01CFC00BF5037BD4680BD00380240A1
:100750000070004080B584B000AF3B4600221A60B4
:100760005A609A60DA60214B214A1A601F4B4FF49D
:1007700080325A601D4B00229A601C4B00221A6185
:100780001A4B00221A76194B002283F82020174BAF
:100790000022DA62154B174A9A62144B0022DA6083
:1007A000124B0122DA61114B002283F830200F4BEB
:1007B00001225A610D4801F0A1F80346002B01D037
:1007C00000F0DCFB01233B6001237B600523BB6061
:1007D0003B461946054801F055FA0346002B01D067
:1007E00000F0CCFB00BF1037BD4680BD5006002096
:1007F000002001400100000F80B500AF124B134AEA
:100800001A60114B124A5A600F4B00229A600E4B2D
:100810000022DA600C4B4FF480421A610A4B00222E
:100820005A61094B00229A61074B0022DA61064B9C
:1008300000221A62044802F00DFA0346002B01D090
:1008400000F09CFB00BF80BD9806002000540040D3
:10085000A086010080B590B000AF07F12C03002204
:100860001A605A609A60DA601A610023BB623B46E4
:100870002822002118460EF02FF83B4B3B4A1A6005
:10088000394B00225A60384B7F229A60364BFF2248
:10089000DA60354B00221A61334B00225A61324B29
:1008A00000229A61304805F083F90346002B01D0FD
:1008B00000F064FB002387F82C30002387F82D30EC
:1008C000002387F82E300023BB630023FB6307F16E
:1008D0002C0301221946244805F0E0F90346002BB9
:1008E00001D000F04BFB012387F82830012387F863
:1008F0002930012387F82A30002387F82B3007F1AD
:10090000280301221946184805F062FA0346002B15
:1009100001D000F033FB00233B7000237B700023E9
:10092000BB7000237B600023FB6000233B614FF022
:1009300080337B610023BB610023FB61012387F8C7
:1009400020304FF480737B623B46012219460648F3
:1009500005F0C2FA0346002B01D000F00FFB00BFE8
:100960004037BD4680BD00BFEC0600200028004097
:1009700080B500AF174B184A1A60164B4FF48272BD
:100980005A60144B00229A60124B0022DA60114B1D
:1009900000221A610F4B00225A610E4B4FF4007275
:1009A0009A610C4B0022DA610A4B00221A62094B51
:1009B00000225A62074B00229A62064B0A22DA6230
:1009C000044805F0C6FC0346002B01D000F0D6FA1F
:1009D00000BF80BD0C0700200030014080B596B0FC
:1009E00000AF07F1480300221A605A609A60DA608B
:1009F00007F1400300221A605A6007F12403002225
:100A00001A605A609A60DA601A615A619A613B1DF5
:100A10002022002118460DF05FFF3E4B3E4A1A602F
:100A20003C4B40F233325A603A4B00229A60394BC9
:100A30006322DA60374B00221A61364B00225A617A
:100A4000344B00229A61334806F02CFA0346002BFF
:100A500001D000F093FA4FF48053BB6407F14803D0
:100A600019462C4806F090FE0346002B01D000F0FA
:100A700085FA284806F0F7FA0346002B01D000F06B
:100A80007DFA00233B6400237B6407F14003194691
:100A9000204807F03FFA0346002B01D000F06EFA21
:100AA00060237B620023BB620023FB6200233B6365
:100AB00000237B630023BB630023FB6307F1240354
:100AC00000221946134806F09DFD0346002B01D075
:100AD00000F054FA00237B600023BB600023FB601E
:100AE00000233B6100237B614FF40053BB61002373
:100AF0003B623B1D1946074807F07AFA0346002B74
:100B000001D000F03BFA034800F052FC00BF583718
:100B1000BD4680BD240800200000014080B58EB095
:100B200000AF07F1280300221A605A609A60DA6069
:100B300007F1200300221A605A603B1D00221A6050
:100B40005A609A60DA601A615A619A612D4B4FF0CF
:100B500080421A602B4B40F2A3125A60294B0022AC
:100B60009A60284B6322DA60264B00221A61254BDB
:100B700000229A61234806F095F90346002B01D024
:100B800000F0FCF94FF48053BB6207F128031946CB
:100B90001C4806F0F9FD0346002B01D000F0EEF9E9
:100BA000184806F060FA0346002B01D000F0E6F981
:100BB00000233B6200237B6207F1200319461148A2
:100BC00007F0A8F90346002B01D000F0D7F9602305
:100BD0007B600023BB600023FB6000237B613B1D27
:100BE00008221946074806F00DFD0346002B01D0E8
:100BF00000F0C4F9034800F0DBFB00BF3837BD4606
:100C000080BD00BF6C08002080B586B000AF07F142
:100C1000080300221A605A609A60DA603B4600229C
:100C20001A605A60214B224A1A60204B40F28F62B0
:100C30005A601E4B00229A601C4B6322DA601B4BE9
:100C400000221A61194B80229A61184806F02AF98D
:100C50000346002B01D000F091F94FF48053BB60A4
:100C600007F108031946114806F08EFD0346002BD4
:100C700001D000F083F908210C4806F061FB03461F
:100C8000002B01D000F07AF900233B6000237B6049
:100C90003B461946054807F03DF90346002B01D0B5
:100CA00000F06CF900BF1837BD4680BDB4080020C5
:100CB0000004004080B586B000AF07F108030022B1
:100CC0001A605A609A60DA603B4600221A605A60E5
:100CD0001D4B1E4A1A601C4B4AF20F425A601A4BB7
:100CE00000229A60184B1822DA60174B00221A6112
:100CF000154B00229A61144806F0D4F80346002BE5
:100D000001D000F03BF94FF48053BB6007F10803BA
:100D100019460D4806F038FD0346002B01D000F0BF
:100D20002DF900233B6000237B603B4619460648B3
:100D300007F0F0F80346002B01D000F01FF900BFC8
:100D40001837BD4680BD00BFFC08002000080040E9
:100D500080B582B000AF00237B60104B1B6B0F4A45
:100D600043F4800313630D4B1B6B03F480037B6020
:100D70007B6800220021382001F07DFA382001F044
:100D800096FA002200213B2001F075FA3B2001F089
:100D90008EFA00BF0837BD4680BD00BF0038024054
:100DA00080B58AB000AF07F1140300221A605A60C0
:100DB0009A60DA601A6100233B616B4B1B6B6A4AD5
:100DC00043F004031363684B1B6B03F004033B61A4
:100DD0003B690023FB60644B1B6B634A43F0800359
:100DE0001363614B1B6B03F08003FB60FB68002304
:100DF000BB605D4B1B6B5C4A43F0010313635A4BB2
:100E00001B6B03F00103BB60BB6800237B60564B88
:100E10001B6B554A43F002031363534B1B6B03F0E8
:100E200002037B607B6800233B604F4B1B6B4E4A89
:100E300043F0080313634C4B1B6B03F008033B6048
:100E40003B6800224FF46051484801F0D1FE012276
:100E500040F2F371454801F0CBFE00224FF4C2612D
:100E6000434801F0C5FE00224DF20121414801F046
:100E7000BFFE01224FF49F713E4801F0B9FE43F6D8
:100E8000F3737B610123BB610023FB6100233B62A1
:100E900007F114031946354801F00EFD0C237B6160
:100EA0000023BB610023FB6107F1140319462F489F
:100EB00001F002FD4FF4C2637B610123BB6100239B
:100EC000FB6100233B6207F114031946284801F037
:100ED000F3FC4DF23F337B610123BB610023FB61D7
:100EE00000233B6207F114031946224801F0E4FC99
:100EF0004FF400537B610023BB610023FB6107F1CA
:100F0000140319461B4801F0D7FC4FF400437B61E2
:100F10004FF48813BB610023FB6107F114031946EA
:100F2000134801F0C9FC04237B614FF40413BB6137
:100F30000023FB6107F1140319460F4801F0BCFCC4
:100F400000220021082001F096F9082001F0AFF9F5
:100F500000220021282001F08EF9282001F0A7F9B5
:100F600000BF2837BD4680BD00380240000802405F
:100F70000000024000040240000C024080B400AFB8
:100F800072B600BF00BFFDE780B483B000AF00239E
:100F90007B60104B5B6C0F4A43F4804353640D4BF2
:100FA0005B6C03F480437B607B6800233B60094BF0
:100FB0001B6C084A43F080531364064B1B6C03F010
:100FC00080533B603B6800BF0C37BD465DF8047B37
:100FD000704700BF0038024080B58AB000AF78602B
:100FE00007F1140300221A605A609A60DA601A61ED
:100FF0007B681B68174A934227D100233B61164B3D
:101000005B6C154A43F480735364134B5B6C03F4BD
:1010100080733B613B690023FB600F4B1B6B0E4AE7
:1010200043F0010313630C4B1B6B03F00103FB60E4
:10103000FB680E237B610323BB610023FB6107F187
:1010400014031946054801F037FC00BF2837BD4698
:1010500080BD00BF00200140003802400000024077
:1010600080B58AB000AF786007F1140300221A60DF
:101070005A609A60DA601A617B681B68194A934269
:101080002BD100233B61184B1B6B174A43F0020323
:101090001363154B1B6B03F002033B613B69C023D9
:1010A0007B611223BB610023FB6103233B620423AA
:1010B0007B6207F1140319460C4801F0FDFB002385
:1010C000FB60094B1B6C084A43F400131364064B86
:1010D0001B6C03F40013FB60FB6800BF2837BD46A0
:1010E00080BD00BF005400400038024000040240B0
:1010F00080B588B000AF786007F10C0300221A6059
:101100005A609A60DA601A617B681B68104A9342E1
:1011100019D10223FB604FF48073BB6107F10C030C
:10112000184604F057FC0346002B01D0FFF726FFBA
:10113000084B01221A6000220021292001F09BF8AF
:10114000292001F0B4F800BF2037BD4680BD00BFA4
:10115000002800403C0E474280B58AB000AF78605E
:1011600007F1140300221A605A609A60DA601A616B
:101170007B681B68474A934240F0888000233B61AC
:10118000454B5B6C444A43F480535364424B5B6C65
:1011900003F480533B613B690023FB603E4B1B6BB8
:1011A0003D4A43F0010313633B4B1B6B03F0010308
:1011B000FB60FB68E0237B610223BB610023FB61D2
:1011C00003233B6205237B6207F11403194633486E
:1011D00001F072FB324B334A1A60314B4FF0C06260
:1011E0005A602F4B00229A602D4B0022DA602C4B64
:1011F0004FF480621A612A4B00225A61284B002268
:101200009A61274B0022DA61254B00221A62244B97
:1012100000225A62224801F065F80346002B01D0F3
:10122000FFF7ACFE7B681E4ADA641D4A7B68936355
:101230001D4B1E4A1A601C4B4FF0C0625A601A4B7D
:1012400040229A60184B0022DA60174B4FF48062FC
:101250001A61154B00225A61134B00229A61124BFE
:101260000022DA61104B00221A620F4B00225A62F0
:101270000D4801F037F80346002B01D0FFF77EFE42
:101280007B68094A9A64084A7B68936300BF2837E1
:10129000BD4680BD003001400038024000000240E1
:1012A0006407002010640240C40700205864024014
:1012B00080B586B000AF78607B681B68384A93427F
:1012C00016D100237B61374B5B6C364A43F0010338
:1012D0005364344B5B6C03F001037B617B69002238
:1012E0000021192000F0C7FF192000F0E0FF52E0B4
:1012F0007B681B68B3F1804F16D100233B61294BFB
:101300001B6C284A43F001031364264B1B6C03F04B
:1013100001033B613B69002200211C2000F0ABFF70
:101320001C2000F0C4FF36E07B681B681E4A934215
:1013300016D10023FB601B4B1B6C1A4A43F00203BF
:101340001364184B1B6C03F00203FB60FB68002264
:1013500000211D2000F08FFF1D2000F0A8FF1AE0E3
:101360007B681B68114A934215D10023BB600D4B6B
:101370001B6C0C4A43F0040313640A4B1B6C03F010
:101380000403BB60BB68002201211E2000F073FF34
:101390001E2000F08CFF00BF1837BD4680BD00BF87
:1013A00000000140003802400004004000080040F6
:1013B00080B58AB000AF786007F1140300221A608C
:1013C0005A609A60DA601A617B681B68254A93420A
:1013D0001FD100233B61244B1B6B234A43F00103C5
:1013E0001363214B1B6B03F001033B613B694FF41B
:1013F00080737B610223BB610023FB6100233B629E
:1014000001237B6207F114031946184801F054FACE
:1014100023E07B681B68B3F1804F1ED10023FB6083
:10142000114B1B6B104A43F0020313630E4B1B6BF3
:1014300003F00203FB60FB684FF480637B610223CF
:10144000BB610023FB6100233B6201237B6207F148
:1014500014031946064801F02FFA00BF2837BD468D
:1014600080BD00BF00000140003802400000024083
:101470000004024080B400AF00BFFDE780B400AFBD
:1014800000BFFDE780B400AF00BFFDE780B400AF50
:1014900000BFFDE780B400AF00BFFDE780B400AF40
:1014A00000BFBD465DF8047B704780B400AF00BF4D
:1014B000BD465DF8047B704780B400AF00BFBD46F9
:1014C0005DF8047B704780B500AF00F0D3F900BF32
:1014D00080BD80B500AF042001F0A4FB00BF80BD3B
:1014E00080B500AF024805F085FF00BF80BD00BF9A
:1014F0002408002080B500AF424B1B8801339AB20C
:10150000404B1A80404B1B8801339AB23E4B1A80E5
:101510003D4B1B88002B0BD03B4B1B8841F2873285
:10152000934205D8384B1B8801339AB2364B1A8048
:10153000344B1B88354AA2FB031252094FF4FA714F
:1015400001FB02F29B1A9BB2002B08D1304B012207
:101550001A70304B1B780133DAB22E4B1A70294BBC
:101560001B882D4AA2FB03121209322101FB02F251
:101570009B1A9BB2002B3FD1284B1B78022B3BD1EF
:10158000274B1B8803339AB2254B1A80244B1B88A8
:10159000B3F5967F0BD2224B1B881AB2214B1A80CF
:1015A000204BB3F900204FF08043DA6324E01C4B5A
:1015B0001B88B3F5967F1FD31A4BB3F900204FF069
:1015C0008043DA63174BB3F900309BB2033B9BB205
:1015D0001AB2144B1A80134BB3F90030002B0BDCFA
:1015E000104B00221A800E4B00221A800E4B1B78E3
:1015F0000133DAB20C4B1A700C4805F0FBFE00BF49
:1016000080BD00BF4A0900208C1D0020D34D621010
:101610004C0900204D0900201F85EB5112010020CC
:1016200048090020460900204F0900206C080020CE
:1016300080B500AF024805F0DDFE00BF80BD00BFF1
:10164000B408002080B500AF024805F0D3FE00BF0B
:1016500080BD00BFFC08002080B500AF4FF4004003
:1016600001F0E0FA00BF80BD80B500AF0C4B1B78E5
:101670000133DAB20A4B1A700A4B1B88002B09D1CE
:10168000094B1B78012B05D1064B01221A80064B12
:1016900000221A70054804F061FD00BF80BD00BF44
:1016A0004E0900208C1D002016010020EC060020B1
:1016B00080B500AF024800F0C3FE00BF80BD00BF90
:1016C0006407002080B500AF024800F0B9FE00BFFB
:1016D00080BD00BFC407002080B500AF024802F003
:1016E000C8FB00BF80BD00BF4016002080B586B09B
:1016F00000AF7860144A154BD31A7B617B693B615C
:10170000134B1B68002B02D1114B124A1A60104B6D
:101710001A687B6813443A699A4207D20DF0E4F8DC
:1017200003460C221A604FF0FF3309E0084B1B6898
:10173000FB60074B1A687B681344054A1360FB681B
:1017400018461837BD4680BD000001200004000087
:1017500058090020201F002080B400AF064BD3F8AA
:101760008830054A43F47003C2F8883000BFBD4694
:101770005DF8047B704700BF00ED00E0DFF834D077
:101780000D480E490E4A002302E0D458C4500433D9
:10179000C4188C42F9D30B4A0B4C002301E01360B0
:1017A0000432A242FBD3FFF7D7FF0DF0A3F8FEF7F8
:1017B000F3FE7047000001200000002034060020E6
:1017C000001D0108340600201C1F0020FEE7000059
:1017D00080B500AF0E4B1B680D4A43F400731360D5
:1017E0000B4B1B680A4A43F480631360084B1B6869
:1017F000074A43F480731360032000F031FD0F208B
:1018000000F008F8FFF7C0FB0023184680BD00BFBA
:10181000003C024080B582B000AF7860124B1A687D
:10182000124B1B7819464FF47A73B3FBF1F3B2FBFA
:10183000F3F3184600F049FD0346002B01D00123C5
:101840000EE07B680F2B0AD8002279684FF0FF303A
:1018500000F011FD064A7B681360002300E00123BD
:1018600018460837BD4680BD000000200800002053
:101870000400002080B400AF064B1B781A46064BCC
:101880001B681344044A136000BFBD465DF8047B27
:10189000704700BF080000205C09002080B400AF42
:1018A000034B1B681846BD465DF8047B704700BFBC
:1018B0005C09002080B584B000AF7860FFF7EEFFD0
:1018C000B8607B68FB60FB68B3F1FF3F05D00A4B53
:1018D0001B781A46FB681344FB6000BFFFF7DEFF6E
:1018E0000246BB68D31AFA689A42F7D800BF00BF15
:1018F0001037BD4680BD00BF0800002080B584B011
:1019000000AF78600023FB737B68002B01D10123BB
:1019100033E07B681B6C002B09D17868FFF75CFB18
:101920007B6800225A647B68002283F83C207B6835
:101930001B6C03F01003002B18D17B681B6C23F485
:10194000885323F0020343F002027B681A6478682C
:1019500000F0BAFA7B6800225A647B681B6C23F0A3
:10196000030343F001027B681A6401E00123FB7367
:101970007B68002283F83C20FB7B18461037BD466D
:1019800080BD000080B485B000AF78600023BB60EC
:101990007B6893F83C30012B01D1022397E07B68F0
:1019A000012283F83C207B681B689B6803F00103DD
:1019B000012B18D07B681B689A687B681B6842F013
:1019C00001029A60454B1B68454AA2FB03239A0C0F
:1019D00013465B001344BB6002E0BB68013BBB6085
:1019E000BB68002BF9D17B681B689B6803F001037F
:1019F000012B5FD17B681B6C23F4E06323F00103B0
:101A000043F480727B681A647B681B685B6803F42C
:101A10008063002B07D07B681B6C23F4405343F496
:101A200080527B681A647B681B6C03F48053B3F5A7
:101A3000805F06D17B685B6C23F006027B685A648A
:101A400002E07B6800225A647B68002283F83C2015
:101A5000244BFB607B681B686FF022021A60FB68F6
:101A60005B6803F01F03002B0FD17B681B689B682A
:101A700003F04053002B29D17B681B689A687B6870
:101A80001B6842F080429A6020E07B681B68164A1F
:101A900093421BD17B681B689B6803F04053002B6B
:101AA00014D17B681B689A687B681B6842F080428F
:101AB0009A600BE07B681B6C43F010027B681A6431
:101AC0007B685B6C43F001027B685A640023184614
:101AD0001437BD465DF8047B704700BF000000204E
:101AE00083DE1B43002301400020014080B483B00B
:101AF00000AF78607B6893F83C30012B01D1022362
:101B000021E07B68012283F83C207B681B689A688F
:101B10007B681B6822F001029A607B681B689B68E7
:101B200003F00103002B09D17B681B6C23F488535D
:101B300023F0010343F001027B681A647B680022F2
:101B400083F83C20002318460C37BD465DF8047B23
:101B5000704780B584B000AF786039600023FB60C7
:101B60007B681B689B6803F48063B3F5806F13D1B7
:101B70007B681B689B6803F48073B3F5807F0BD18F
:101B80007B681B6C43F020027B681A647B68002230
:101B900083F83C20012363E0FFF780FEF86021E03A
:101BA0003B68B3F1FF3F1DD03B68002B07D0FFF728
:101BB00075FE0246FB68D31A3A689A4212D27B68D5
:101BC0001B681B6803F00203022B0BD07B681B6CA5
:101BD00043F004027B681A647B68002283F83C208F
:101BE00003233DE07B681B681B6803F00203022BA4
:101BF000D6D17B681B686FF012021A607B681B6C81
:101C000043F400727B681A647B681B689B6803F06E
:101C10004053002B23D17B681B7E002B1FD17B6898
:101C20001B68DB6A03F47003002B06D07B681B681B
:101C30009B6803F48063002B11D17B681B6C23F439
:101C400080727B681A647B681B6C03F48053002BE2
:101C500005D17B681B6C43F001027B681A6400238A
:101C600018461037BD4680BD80B483B000AF7860A1
:101C70007B681B68DB6C18460C37BD465DF8047B3F
:101C80007047000080B485B000AF786039600023F1
:101C9000BB607B6893F83C30012B01D1022305E146
:101CA0007B68012283F83C203B681B68092B25D9FF
:101CB0007B681B68D9683B681B689BB21A46134651
:101CC0005B0013441E3B072202FA03F3DA437B68EE
:101CD0001B680A40DA607B681B68D9683B689A68B1
:101CE0003B681B689BB2184603465B0003441E3BDF
:101CF0009A407B681B680A43DA6022E07B681B68B5
:101D000019693B681B689BB21A4613465B00134473
:101D1000072202FA03F3DA437B681B680A401A6160
:101D20007B681B6819693B689A683B681B689BB2B3
:101D3000184603465B0003449A407B681B680A43CD
:101D40001A613B685B68062B24D87B681B68596B5B
:101D50003B685A6813469B001344053B1F2202FA56
:101D600003F3DA437B681B680A405A637B681B688D
:101D7000596B3B681B689BB218463B685A68134610
:101D80009B001344053B00FA03F27B681B680A437F
:101D90005A634CE03B685B680C2B24D87B681B685B
:101DA000196B3B685A6813469B001344233B1F2260
:101DB00002FA03F3DA437B681B680A401A637B6804
:101DC0001B68196B3B681B689BB218463B685A68D6
:101DD00013469B001344233B00FA03F27B681B6805
:101DE0000A431A6323E07B681B68D96A3B685A6818
:101DF00013469B001344413B1F2202FA03F3DA43CC
:101E00007B681B680A40DA627B681B68D96A3B689A
:101E10001B689BB218463B685A6813469B001344E4
:101E2000413B00FA03F27B681B680A43DA62224BEB
:101E3000FB607B681B68214A934209D13B681B68A1
:101E4000122B05D1FB685B6843F48002FB685A6083
:101E50007B681B68194A934223D13B681B68102B8F
:101E600003D03B681B68112B1BD1FB685B6843F4F4
:101E70000002FB685A603B681B68102B11D1104BA5
:101E80001B68104AA2FB03239A0C13469B001344C1
:101E90005B00BB6002E0BB68013BBB60BB68002B22
:101EA000F9D17B68002283F83C20002318461437C0
:101EB000BD465DF8047B70470023014000200140CF
:101EC0000000002083DE1B4380B485B000AF786043
:101ED000794BFB60FB685B6823F44032FB685A6017
:101EE000FB685A687B685B681A43FB685A607B68CA
:101EF0001B685A687B681B6822F480725A607B6892
:101F00001B6859687B681B691A027B681B680A4357
:101F10005A607B681B685A687B681B6822F04072B5
:101F20005A607B681B6859687B689A687B681B6885
:101F30000A435A607B681B689A687B681B6822F4B6
:101F400000629A607B681B6899687B68DA687B68C6
:101F50001B680A439A607B689B6A584A934222D066
:101F60007B681B689A687B681B6822F070629A60C5
:101F70007B681B6899687B689A6A7B681B680A4360
:101F80009A607B681B689A687B681B6822F04052E5
:101F90009A607B681B6899687B68DA6A7B681B6853
:101FA0000A439A600FE07B681B689A687B681B682D
:101FB00022F070629A607B681B689A687B681B6875
:101FC00022F040529A607B681B689A687B681B68A5
:101FD00022F002029A607B681B6899687B681B7E0E
:101FE0005A007B681B680A439A607B6893F820302C
:101FF000002B1BD07B681B685A687B681B6842F407
:1020000000625A607B681B685A687B681B6822F410
:1020100060425A607B681B6859687B685B6A013B59
:102020005A037B681B680A435A6007E07B681B6899
:102030005A687B681B6822F400625A607B681B68E0
:10204000DA6A7B681B6822F47002DA627B681B68BC
:10205000D96A7B68DB69013B1A057B681B680A4308
:10206000DA627B681B689A687B681B6822F40072DE
:102070009A607B681B6899687B6893F830305A02D5
:102080007B681B680A439A607B681B689A687B6858
:102090001B6822F480629A607B681B6899687B6881
:1020A0005B699A027B681B680A439A6000BF143719
:1020B000BD465DF8047B7047002301400100000F1E
:1020C00080B485B000AF78607B6803F00703FB60E5
:1020D0000C4BDB68BB60BA684FF6FF031340BB6074
:1020E000FB681A02BB68134343F0BF6343F4003339
:1020F000BB60044ABB68D36000BF1437BD465DF8BF
:10210000047B704700ED00E080B400AF044BDB6857
:102110001B0A03F007031846BD465DF8047B7047B1
:1021200000ED00E080B483B000AF0346FB7197F987
:102130000730002B0BDBFB7903F01F02074997F9EF
:1021400007305B09012000FA02F241F8232000BFAA
:102150000C37BD465DF8047B704700BF00E100E02E
:1021600080B483B000AF03463960FB7197F9073044
:10217000002B0ADB3B68DAB20C4997F907301201F1
:10218000D2B20B4483F800230AE03B68DAB2084974
:10219000FB7903F00F03043B1201D2B20B441A7611
:1021A00000BF0C37BD465DF8047B704700E100E0DE
:1021B00000ED00E080B489B000AFF860B9607A60EB
:1021C000FB6803F00703FB61FB69C3F10703042B02
:1021D00028BF0423BB61FB690433062B02D9FB69CA
:1021E000033B00E000237B614FF0FF32BB6902FA42
:1021F00003F3DA43BB681A407B699A404FF0FF3122
:102200007B6901FA03F3D9437B680B4013431846FB
:102210002437BD465DF8047B7047000080B582B06E
:1022200000AF78607B68013BB3F1807F01D301236D
:102230000FE00A4A7B68013B53600F214FF0FF30EB
:10224000FFF78EFF054B00229A60044B07221A60AD
:10225000002318460837BD4680BD00BF10E000E0EF
:1022600080B582B000AF78607868FFF729FF00BFC3
:102270000837BD4680BD80B586B000AF0346B96063
:102280007A60FB7300237B61FFF73EFF78617A6819
:10229000B9687869FFF78EFF024697F90F3011464B
:1022A0001846FFF75DFF00BF1837BD4680BD80B5FB
:1022B00082B000AF0346FB7197F907301846FFF76D
:1022C00031FF00BF0837BD4680BD80B582B000AF8A
:1022D00078607868FFF7A2FF034618460837BD46C6
:1022E00080BD000080B586B000AF786000237B61C0
:1022F000FFF7D4FA38617B68002B01D1012399E004
:102300007B68022283F835207B68002283F8342022
:102310007B681B681A687B681B6822F001021A60E0
:102320000FE0FFF7BBFA02463B69D31A052B08D929
:102330007B6820225A657B68032283F835200323BB
:1023400078E07B681B681B6803F00103002BE8D171
:102350007B681B681B687B617A69384B13407B6123
:102360007B685A687B689B681A437B68DB681A4302
:102370007B681B691A437B685B691A437B689B69AE
:102380001A437B68DB691A437B681B6A13437A69CB
:1023900013437B617B685B6A042B07D17B68DA6A35
:1023A0007B681B6B13437A6913437B617B681B68F3
:1023B0007A691A607B681B685B697B617B6923F0C3
:1023C00007037B617B685B6A7A6913437B617B6887
:1023D0005B6A042B17D17B689B6A7A6913437B6124
:1023E0007B68DB6A002B0ED0786800F0E9F90346C1
:1023F000002B08D07B6840225A657B68012283F855
:102400003520012316E07B681B687A695A61786879
:1024100000F0A0F90346FB607B68DB6D3F229A4029
:10242000FB689A607B6800225A657B68012283F80A
:102430003520002318461837BD4680BD3F8010F078
:1024400080B586B000AF78600023BB608E4B1B6800
:102450008E4AA2FB03239B0A7B617B689B6D3B61D9
:102460003B691B68FB607B68DB6D08229A40FB6858
:102470001340002B1AD07B681B681B6803F0040311
:10248000002B13D07B681B681A687B681B6822F0DE
:1024900004021A607B68DB6D08229A403B699A60EF
:1024A0007B685B6D43F001027B685A657B68DB6D7E
:1024B00001229A40FB681340002B12D07B681B68F6
:1024C0005B6903F08003002B0BD07B68DB6D01227E
:1024D0009A403B699A607B685B6D43F002027B68BF
:1024E0005A657B68DB6D04229A40FB681340002B21
:1024F00012D07B681B681B6803F00203002B0BD013
:102500007B68DB6D04229A403B699A607B685B6D57
:1025100043F004027B685A657B68DB6D10229A40A9
:10252000FB681340002B43D07B681B681B6803F0DB
:102530000803002B3CD07B68DB6D10229A403B697E
:102540009A607B681B681B6803F48023002B18D0FB
:102550007B681B681B6803F40023002B08D17B6891
:102560001B6C002B24D07B681B6C786898471FE09D
:102570007B689B6C002B1BD07B689B6C78689847B2
:1025800016E07B681B681B6803F48073002B07D17F
:102590007B681B681A687B681B6822F008021A6057
:1025A0007B681B6C002B03D07B681B6C786898479A
:1025B0007B68DB6D20229A40FB681340002B00F003
:1025C0008F807B681B681B6803F01003002B00F0F2
:1025D00087807B68DB6D20229A403B699A607B682C
:1025E00093F83530DBB2052B36D17B681B681A684F
:1025F0007B681B6822F016021A607B681B685A69A8
:102600007B681B6822F080025A617B681B6C002B80
:1026100003D17B689B6C002B07D07B681B681A6812
:102620007B681B6822F008021A607B68DB6D3F2222
:102630009A403B699A607B68012283F835207B6869
:10264000002283F834207B681B6D002B7ED07B68D2
:102650001B6D7868984779E07B681B681B6803F4FA
:102660008023002B1DD07B681B681B6803F40023AC
:10267000002B0DD17B685B6C002B31D07B685B6CD1
:10268000786898472CE000BF00000020B5814E1B01
:102690007B68DB6B002B23D07B68DB6B786898470B
:1026A0001EE07B681B681B6803F48073002B0FD14E
:1026B0007B681B681A687B681B6822F010021A602E
:1026C0007B68012283F835207B68002283F8342060
:1026D0007B68DB6B002B03D07B68DB6B78689847EB
:1026E0007B685B6D002B32D07B685B6D03F0010370
:1026F000002B22D07B68052283F835207B681B687D
:102700001A687B681B6822F001021A60BB680133FB
:10271000BB607A699A4207D37B681B681B6803F029
:102720000103002BF2D100E000BF7B68012283F897
:1027300035207B68002283F834207B68DB6C002B1B
:1027400005D07B68DB6C7868984700E000BF1837DD
:10275000BD4680BD80B485B000AF78607B681B68E3
:10276000DBB2103B144AA2FB03231B09FB60134A94
:10277000FB6813441B781A467B68DA65FB68032BF9
:1027800009D97B681B6823F47F7323F003031A1DA8
:102790007B689A6507E07B681B6823F47F7323F0EE
:1027A00003037A6893657B689B6D18461437BD46B2
:1027B0005DF8047B704700BFABAAAAAA28F4000802
:1027C00080B485B000AF78600023FB737B689B6AA0
:1027D000BB607B689B69002B1FD1BB68032B56D85D
:1027E00001A252F823F000BFF92700080B280008C7
:1027F000F92700088F2800087B68DB6A03F08073E4
:10280000002B46D00123FB7343E07B68DB6AB3F106
:10281000C07F40D10123FB733DE07B689B69B3F52A
:10282000005F21D1BB68032B37D801A252F823F0F7
:1028300041280008472800084128000859280008B6
:102840000123FB7330E07B68DB6A03F08073002BAD
:1028500025D00123FB7322E07B68DB6AB3F1C07FE4
:102860001FD10123FB731CE0BB68022B03D9BB689B
:10287000032B03D018E00123FB7315E07B68DB6AB0
:1028800003F08073002B0ED00123FB730BE000BF1D
:102890000AE000BF08E000BF06E000BF04E000BFA0
:1028A00002E000BF00E000BFFB7B18461437BD46C6
:1028B0005DF8047B704700BF80B489B000AF7860DA
:1028C000396000237B6100233B610023BB6100234F
:1028D000FB6159E10122FB6902FA03F37B613B686A
:1028E0001B687A6913403B613A697B699A4240F000
:1028F00048813B685B6803F00303012B05D03B680C
:102900005B6803F00303022B30D17B689B68BB61DB
:10291000FB695B00032202FA03F3DB43BA6913404D
:10292000BB613B68DA68FB695B0002FA03F3BA69D2
:102930001343BB617B68BA699A607B685B68BB6163
:102940000122FB6902FA03F3DB43BA691340BB615E
:102950003B685B681B0903F00102FB6902FA03F3A1
:10296000BA691343BB617B68BA695A603B685B68AC
:1029700003F00303032B17D07B68DB68BB61FB69A3
:102980005B00032202FA03F3DB43BA691340BB6125
:102990003B689A68FB695B0002FA03F3BA69134368
:1029A000BB617B68BA69DA603B685B6803F003036C
:1029B000022B23D1FB69DA087B68083253F82230F6
:1029C000BB61FB6903F007039B000F2202FA03F3CC
:1029D000DB43BA691340BB613B681A69FB6903F0CA
:1029E00007039B0002FA03F3BA691343BB61FB6957
:1029F000DA087B680832B96943F822107B681B68E3
:102A0000BB61FB695B00032202FA03F3DB43BA6993
:102A10001340BB613B685B6803F00302FB695B002A
:102A200002FA03F3BA691343BB617B68BA691A609F
:102A30003B685B6803F44033002B00F0A280002366
:102A4000FB60574B5B6C564A43F480435364544BD2
:102A50005B6C03F48043FB60FB68524AFB699B0894
:102A6000023352F82330BB61FB6903F003039B0080
:102A70000F2202FA03F3DB43BA691340BB617B68A0
:102A8000494A934219D07B68484A934213D07B68E5
:102A9000474A93420DD07B68464A934207D07B68F1
:102AA000454A934201D1042308E0072306E00323AB
:102AB00004E0022302E0012300E00023FA6902F0AF
:102AC000030292009340BA691343BB613549FB6925
:102AD0009B080233BA6941F82320384B9B68BB61DD
:102AE0003B69DB43BA691340BB613B685B6803F435
:102AF0008013002B03D0BA693B691343BB612F4A93
:102B0000BB6993602D4BDB68BB613B69DB43BA69F2
:102B10001340BB613B685B6803F40013002B03D0D8
:102B2000BA693B691343BB61244ABB69D360234B39
:102B30005B68BB613B69DB43BA691340BB613B68BF
:102B40005B6803F40033002B03D0BA693B6913437D
:102B5000BB611A4ABB695360184B1B68BB613B6978
:102B6000DB43BA691340BB613B685B6803F48033A5
:102B7000002B03D0BA693B691343BB610F4ABB69A1
:102B80001360FB690133FB61FB690F2B7FF6A2AE7B
:102B900000BF00BF2437BD465DF8047B704700BF0F
:102BA00000380240003801400000024000040240AA
:102BB00000080240000C024000100240003C0140AE
:102BC00080B485B000AF78600B467B807B681A6963
:102BD0007B881340002B02D00123FB7301E000230C
:102BE000FB73FB7B18461437BD465DF8047B7047CA
:102BF00080B483B000AF78600B467B8013467B7057
:102C00007B78002B03D07A887B689A6103E07B880D
:102C10001A047B689A6100BF0C37BD465DF8047BDF
:102C20007047000080B582B000AF0346FB80084BC0
:102C30005A69FB881340002B06D0054AFB88536174
:102C4000FB881846FDF794FC00BF0837BD4680BDE1
:102C5000003C014080B584B000AF78607B68002BF9
:102C600001D101232BE17B6893F83D30DBB2002BCF
:102C700006D17B68002283F83C207868FEF7F0F9E3
:102C80007B68242283F83D207B681B681A687B6878
:102C90001B6822F001021A607B681B681A687B6857
:102CA0001B6842F400421A607B681B681A687B68E4
:102CB0001B6822F400421A6002F078FEF8607B681C
:102CC0005B68814A934207D8FB68804A934294BF6D
:102CD00001230023DBB206E0FB687D4A934294BFE8
:102CE00001230023DBB2002B01D00123E7E0FB68C6
:102CF000784AA2FB03239B0CBB607B681B685B6864
:102D000023F03F017B681B68BA680A435A607B68FE
:102D10001B681B6A23F03F017B685B686A4A934229
:102D200002D8BB68013309E0BB684FF4967202FB1E
:102D300003F3694AA2FB03239B0901337A681268F3
:102D40000B4313627B681B68DB6923F44F4222F05C
:102D5000FF027B685B685C498B4219D8FB68591E8F
:102D60007B685B685B00B1FBF3F3591C40F6FC73B6
:102D70000B40002B0AD0FB68591E7B685B685B0028
:102D8000B1FBF3F30133C3F30B0351E004234FE032
:102D90007B689B68002B11D1FB68581E7B685968C3
:102DA0000B465B000B44B0FBF3F30133C3F30B039F
:102DB000002B0CBF01230023DBB212E0FB68581E7E
:102DC0007B6859680B469B000B4499000B44B0FB91
:102DD000F3F30133C3F30B03002B0CBF01230023D8
:102DE000DBB2002B01D0012322E07B689B68002B23
:102DF0000ED1FB68581E7B6859680B465B000B447C
:102E0000B0FBF3F30133C3F30B0343F400430FE0D0
:102E1000FB68581E7B6859680B469B000B44990061
:102E20000B44B0FBF3F30133C3F30B0343F4404310
:102E3000796809681343CB617B681B681B6823F0C2
:102E4000C0017B68DA697B681B6A1A437B681B6870
:102E50000A431A607B681B689B6823F4034323F0D2
:102E6000FF037A6811697A68D26811437A68126838
:102E70000B4393607B681B68DB6823F0FF017B6872
:102E80005A697B689B691A437B681B680A43DA604E
:102E90007B681B681A687B681B6842F001021A6035
:102EA0007B6800221A647B68202283F83D207B68BF
:102EB00000221A637B68002283F83E200023184614
:102EC0001037BD4680BD00BFA08601007F841E0074
:102ED000FF083D0083DE1B43D34D621080B588B0F0
:102EE00002AFF860084611461A4603467B810B463E
:102EF0003B811346FB80FEF7D1FC7861FB6893F8B9
:102F00003D30DBB2202B40F0D9807B690093192340
:102F100001226D49F86800F07FFC0346002B01D0C8
:102F20000223CCE0FB6893F83C30012B01D1022353
:102F3000C5E0FB68012283F83C20FB681B681B6826
:102F400003F00103012B07D0FB681B681A68FB68BC
:102F50001B6842F001021A60FB681B681A68FB6874
:102F60001B6822F400621A60FB68212283F83D206E
:102F7000FB68402283F83E20FB6800221A64FB684D
:102F80003A6A5A62FB68BA8C5A85FB685B8D9AB2C2
:102F9000FB681A85FB684D4ADA62F8883A897989B4
:102FA0007B690193BB6A00930346F86800F0B6FAA8
:102FB0000346002B52D0012381E07A69B96AF86890
:102FC00000F000FD0346002B0DD0FB681B6C042BAA
:102FD00007D1FB681B681A68FB681B6842F4007223
:102FE0001A6001236BE0FB685B6A1A78FB681B6858
:102FF0001A61FB685B6A5A1CFB685A62FB681B8D8E
:10300000013B9AB2FB681A85FB685B8D9BB2013B62
:103010009AB2FB685A85FB681B685B6903F004037E
:10302000042B1BD1FB681B8D002B17D0FB685B6A40
:103030001A78FB681B681A61FB685B6A5A1CFB689C
:103040005A62FB681B8D013B9AB2FB681A85FB68CC
:103050005B8D9BB2013B9AB2FB685A85FB681B8D66
:10306000002BAAD17A69B96AF86800F0ECFC034633
:10307000002B0DD0FB681B6C042B07D1FB681B6871
:103080001A68FB681B6842F400721A60012316E09C
:10309000FB681B681A68FB681B6842F400721A60C0
:1030A000FB68202283F83D20FB68002283F83E2045
:1030B000FB68002283F83C20002300E0022318462E
:1030C0001837BD4680BD00BF020010000000FFFFA2
:1030D00080B58CB002AFF860084611461A46034628
:1030E0007B810B463B811346FB80FEF7D7FB786262
:1030F000FB6893F83D30DBB2202B40F008827B6AFE
:103100000093192301227B49F86800F085FB0346F0
:10311000002B01D00223FBE1FB6893F83C30012B2C
:1031200001D10223F4E1FB68012283F83C20FB6813
:103130001B681B6803F00103012B07D0FB681B68A9
:103140001A68FB681B6842F001021A60FB681B6882
:103150001A68FB681B6822F400621A60FB6822226E
:1031600083F83D20FB68402283F83E20FB68002264
:103170001A64FB683A6B5A62FB68BA8E5A85FB6820
:103180005B8D9AB2FB681A85FB685B4ADA62F88845
:103190003A8979897B6A0193BB6B00930346F8688F
:1031A00000F052FA0346002B01D00123B0E1FB6886
:1031B0001B8D002B13D100233B62FB681B685B69EE
:1031C0003B62FB681B689B693B623B6AFB681B6850
:1031D0001A68FB681B6842F400721A6084E1FB689D
:1031E0001B8D012B1BD1FB681B681A68FB681B68D1
:1031F00022F480621A600023FB61FB681B685B6934
:10320000FB61FB681B689B69FB61FB69FB681B68D2
:103210001A68FB681B6842F400721A6064E1FB687C
:103220001B8D022B1BD1FB681B681A68FB681B688F
:1032300022F480621A60FB681B681A68FB681B68CE
:1032400042F400621A600023BB61FB681B685B6983
:10325000BB61FB681B689B69BB61BB6944E10023E0
:103260007B61FB681B685B697B61FB681B689B6912
:103270007B617B6938E1FB681B8D032B00F2F180D9
:10328000FB681B8D012B23D17A6AB96BF86800F0BB
:103290001BFC0346002B01D0012339E1FB681B68AE
:1032A0001A69FB685B6AD2B21A70FB685B6A5A1CC7
:1032B000FB685A62FB681B8D013B9AB2FB681A855A
:1032C000FB685B8D9BB2013B9AB2FB685A850BE1B0
:1032D000FB681B8D022B4ED17B6A0093BB6B0022D7
:1032E0000649F86800F098FA0346002B08D001233D
:1032F0000EE100BF020010000000FFFF040001000B
:10330000FB681B681A68FB681B6842F400721A604D
:10331000FB681B681A69FB685B6AD2B21A70FB68AB
:103320005B6A5A1CFB685A62FB681B8D013B9AB2B0
:10333000FB681A85FB685B8D9BB2013B9AB2FB6808
:103340005A85FB681B681A69FB685B6AD2B21A70FF
:10335000FB685B6A5A1CFB685A62FB681B8D013B69
:103360009AB2FB681A85FB685B8D9BB2013B9AB2EF
:10337000FB685A85B8E07B6A0093BB6B0022664904
:10338000F86800F049FA0346002B01D00123BFE0A2
:10339000FB681B681A68FB681B6822F480621A606D
:1033A000FB681B681A69FB685B6AD2B21A70FB681B
:1033B0005B6A5A1CFB685A62FB681B8D013B9AB220
:1033C000FB681A85FB685B8D9BB2013B9AB2FB6878
:1033D0005A857B6A0093BB6B00224F49F86800F066
:1033E0001BFA0346002B01D0012391E0FB681B6808
:1033F0001A68FB681B6842F400721A60FB681B685D
:103400001A69FB685B6AD2B21A70FB685B6A5A1C65
:10341000FB685A62FB681B8D013B9AB2FB681A85F8
:10342000FB685B8D9BB2013B9AB2FB685A85FB68D7
:103430001B681A69FB685B6AD2B21A70FB685B6A28
:103440005A1CFB685A62FB681B8D013B9AB2FB68F1
:103450001A85FB685B8D9BB2013B9AB2FB685A856B
:1034600042E07A6AB96BF86800F02EFB0346002B45
:1034700001D001234CE0FB681B681A69FB685B6A9A
:10348000D2B21A70FB685B6A5A1CFB685A62FB680E
:103490001B8D013B9AB2FB681A85FB685B8D9BB262
:1034A000013B9AB2FB685A85FB681B685B6903F0B5
:1034B0000403042B18D1FB681B681A69FB685B6A5C
:1034C000D2B21A70FB685B6A5A1CFB685A62FB68CE
:1034D0001B8D013B9AB2FB681A85FB685B8D9BB222
:1034E000013B9AB2FB685A85FB681B8D002B7FF469
:1034F000C2AEFB68202283F83D20FB68002283F8DF
:103500003E20FB68002283F83C20002300E00223D9
:1035100018462837BD4680BD0400010080B588B03C
:1035200002AFF860084611461A4603467B810B46F7
:103530003B811346FB80FB681B681A68FB681B68AD
:1035400042F480721A607B6A00933B6A00224FF05B
:103550000111F86800F060F90346002B0DD0FB68FC
:103560001B681B6803F48073B3F5807F03D1FB688D
:103570004FF400721A6403235FE07B89DBB21A46C2
:10358000FB681B6802F0FE021A617B6A3A6A2D49E9
:10359000F86800F098F90346002B01D001234CE0B5
:1035A00000237B61FB681B685B697B61FB681B68B0
:1035B0009B697B617B697A6A396AF86800F002FA74
:1035C0000346002B0DD0FB681B6C042B07D1FB6856
:1035D0001B681A68FB681B6842F400721A600123BA
:1035E0002BE0FB88012B05D13B89DAB2FB681B6815
:1035F0001A6121E03B891B0A9BB2DAB2FB681B68A7
:103600001A617A6A396AF86800F0DCF90346002B1F
:103610000DD0FB681B6C042B07D1FB681B681A6874
:10362000FB681B6842F400721A60012305E03B89C5
:10363000DAB2FB681B681A61002318461837BD46CA
:1036400080BD00BF0200010080B588B002AFF86005
:10365000084611461A4603467B810B463B811346BA
:10366000FB80FB681B681A68FB681B6842F4806279
:103670001A60FB681B681A68FB681B6842F480725A
:103680001A607B6A00933B6A00224FF00111F868D0
:1036900000F0C2F80346002B0DD0FB681B681B68C6
:1036A00003F48073B3F5807F03D1FB684FF400729D
:1036B0001A640323AAE07B89DBB21A46FB681B6805
:1036C00002F0FE021A617B6A3A6A5249F86800F019
:1036D000FAF80346002B01D0012397E000237B6119
:1036E000FB681B685B697B61FB681B689B697B618E
:1036F0007B697A6A396AF86800F064F90346002B3E
:103700000DD0FB681B6C042B07D1FB681B681A6883
:10371000FB681B6842F400721A60012376E0FB88A4
:10372000012B05D13B89DAB2FB681B681A6121E0E5
:103730003B891B0A9BB2DAB2FB681B681A617A6A82
:10374000396AF86800F03EF90346002B0DD0FB689B
:103750001B6C042B07D1FB681B681A68FB681B688D
:1037600042F400721A60012350E03B89DAB2FB6830
:103770001B681A617A6A396AF86800F023F903460F
:10378000002B0DD0FB681B6C042B07D1FB681B685A
:103790001A68FB681B6842F400721A60012335E066
:1037A000FB681B681A68FB681B6842F480721A6029
:1037B0007B6A00933B6A00224FF00111F86800F029
:1037C0002BF80346002B0DD0FB681B681B6803F425
:1037D0008073B3F5807F03D1FB684FF400721A64E5
:1037E000032313E07B89DBB243F00103DAB2FB6809
:1037F0001B681A617B6A3A6A0649F86800F063F848
:103800000346002B01D0012300E00023184618379F
:10381000BD4680BD0200010080B584B000AFF860F5
:10382000B9603B601346FB7125E03B68B3F1FF3F95
:1038300021D0FEF733F80246BB69D31A3A689A42A0
:1038400002D33B68002B16D1FB6800221A63FB6889
:10385000202283F83D20FB68002283F83E20FB688D
:103860001B6C43F02002FB681A64FB68002283F89B
:103870003C20012323E0BB681B0CDBB2012B0DD1E4
:10388000FB681B685B69DA43BB6813409BB2002B83
:103890000CBF01230023DBB21A460CE0FB681B6857
:1038A0009B69DA43BB6813409BB2002B0CBF01231A
:1038B0000023DBB21A46FB799A42B6D000231846A1
:1038C0001037BD4680BD80B584B000AFF860B960E8
:1038D0007A603B6051E0FB681B685B6903F48063BE
:1038E000B3F5806F23D1FB681B681A68FB681B68FF
:1038F00042F400721A60FB681B686FF480625A61C0
:10390000FB6800221A63FB68202283F83D20FB68D5
:10391000002283F83E20FB681B6C43F00402FB6826
:103920001A64FB68002283F83C20012346E07B6890
:10393000B3F1FF3F21D0FDF7B1FF02463B68D31A38
:103940007A689A4202D37B68002B16D1FB6800226A
:103950001A63FB68202283F83D20FB68002283F86D
:103960003E20FB681B6C43F02002FB681A64FB6876
:10397000002283F83C20012320E0BB681B0CDBB253
:10398000012B0CD1FB681B685B69DA43BB681340F1
:103990009BB2002B14BF01230023DBB20BE0FB68BA
:1039A0001B689B69DA43BB6813409BB2002B14BFB2
:1039B00001230023DBB2002B8DD1002318461037E2
:1039C000BD4680BD80B584B000AFF860B9607A6054
:1039D0002DE0F86800F0CEF80346002B01D001235B
:1039E0002DE0BB68B3F1FF3F21D0FDF757FF024642
:1039F0007B68D31ABA689A4202D3BB68002B16D1EF
:103A0000FB6800221A63FB68202283F83D20FB68D4
:103A1000002283F83E20FB681B6C43F02002FB6809
:103A20001A64FB68002283F83C20012307E0FB684E
:103A30001B685B6903F08003802BCAD10023184602
:103A40001037BD4680BD80B584B000AFF860B96066
:103A50007A602DE0F86800F08DF80346002B01D065
:103A600001232DE0BB68B3F1FF3F21D0FDF716FF26
:103A700002467B68D31ABA689A4202D3BB68002B0D
:103A800016D1FB6800221A63FB68202283F83D20D0
:103A9000FB68002283F83E20FB681B6C43F0200289
:103AA000FB681A64FB68002283F83C20012307E0CE
:103AB000FB681B685B6903F00403042BCAD1002375
:103AC00018461037BD4680BD80B584B000AFF860A1
:103AD000B9607A6042E0FB681B685B6903F0100321
:103AE000102B19D1FB681B686FF010025A61FB683C
:103AF00000221A63FB68202283F83D20FB68002225
:103B000083F83E20FB681A6CFB681A64FB6800228D
:103B100083F83C20012329E0FDF7C0FE02467B68C4
:103B2000D31ABA689A4202D3BB68002B16D1FB683D
:103B300000221A63FB68202283F83D20FB680022E4
:103B400083F83E20FB681B6C43F02002FB681A647C
:103B5000FB68002283F83C20012307E0FB681B6818
:103B60005B6903F04003402BB5D1002318461037A2
:103B7000BD4680BD80B483B000AF78607B681B68B1
:103B80005B6903F48063B3F5806F1BD17B681B68AE
:103B90006FF480625A617B6800221A637B6820227E
:103BA00083F83D207B68002283F83E207B681B6CF5
:103BB00043F004027B681A647B68002283F83C208F
:103BC000012300E0002318460C37BD465DF8047B56
:103BD0007047F0B58FB00AAF78607B68002B01D1D9
:103BE00001230FE17B681B68BB607B6893F8BD34E1
:103BF000DBB2002B06D17B68002283F8BC247868F6
:103C000008F0F2FA7B68032283F8BD24BB68DB6B03
:103C100003F48073002B02D17B6800221A617B6859
:103C20001B68184604F05FFB7B681B683B607E687E
:103C30006D4606F110040FCC0FC50FCC0FC594E8EC
:103C4000030085E80300331D0ECB386804F036FA14
:103C50000346002B05D07B68022283F8BD24012394
:103C6000D0E07B681B680021184604F04DFB002360
:103C7000FB734AE0FA7B79681346DB0013449B0030
:103C80000B443D3301221A70FA7B79681346DB003E
:103C900013449B000B443C33FA7B1A70FA7BFB7B8A
:103CA00098B279681346DB0013449B000B444433FD
:103CB00002461A80FA7B79681346DB0013449B00A6
:103CC0000B44403300221A70FA7B79681346DB00FC
:103CD00013449B000B44483300221A60FA7B796836
:103CE0001346DB0013449B000B444C3300221A6044
:103CF000FA7B79681346DB0013449B000B44543372
:103D000000221A60FB7B0133FB73FA7B7B685B68E4
:103D10009A42AFD30023FB7344E0FA7B79681346E1
:103D2000DB0013449B000B4403F27D2300221A7036
:103D3000FA7B79681346DB0013449B000B4403F5C0
:103D40001F73FA7B1A70FA7B79681346DB00134401
:103D50009B000B4403F5207300221A70FA7B7968EC
:103D60001346DB0013449B000B4403F5227300222F
:103D70001A60FA7B79681346DB0013449B000B44FE
:103D800003F5237300221A60FA7B79681346DB007F
:103D900013449B000B4403F5257300221A60FB7B40
:103DA0000133FB73FA7B7B685B689A42B5D37B680F
:103DB0001B683B607E686D4606F110040FCC0FC592
:103DC0000FCC0FC594E8030085E80300331D0ECB2C
:103DD000386804F0E5FA0346002B05D07B68022220
:103DE00083F8BD2401230DE07B68002283F838208E
:103DF0007B68012283F8BD247B681B68184605F0A8
:103E000034FC002318461437BD46F0BD80B584B09D
:103E100000AF78607B681B68FB607B6893F8BC34FC
:103E2000012B01D1022320E07B68012283F8BC240E
:103E30007B689B6A012B09D17B689B69012B05D0AC
:103E4000FB689B6B43F48032FB689A637B681B685A
:103E5000184604F037FA7B681B68184605F0E4FB47
:103E60007B68002283F8BC24002318461037BD4627
:103E700080BD90B58DB000AF78607B681B683B62F9
:103E80003B6AFB617B681B68184605F0A2FC034691
:103E9000002B40F08A847B681B68184605F006FCFE
:103EA0000346002B00F08084FB6903F500639B68E8
:103EB0001B0AC3F30D027B68C3F8FC247B681B68F4
:103EC000184605F0F3FB034603F00203022B07D16B
:103ED0007B681B685A697B681B6802F002025A61A2
:103EE0007B681B68184605F0E1FB034603F01003EE
:103EF000102B61D17B681B689A697B681B6822F074
:103F000010029A613B6A1B6ABB61BB6903F00F0236
:103F10001346DB0013449B0003F51E737A681344B9
:103F200004337B61BB695B0C03F00F03022B24D1CC
:103F3000BA6947F6F0731340002B35D07B691969D5
:103F4000BB691B099BB2C3F30A039BB21A46386ACA
:103F500005F018FA7B691A69BB691B09C3F30A03E8
:103F60001A447B691A617B691A6ABB691B09C3F32E
:103F70000A031A447B691A6216E0BB695B0C03F002
:103F80000F03062B10D17B6803F2C44308221946A5
:103F9000386A05F0F7F97B691A6ABB691B09C3F334
:103FA0000A031A447B691A627B681B689A697B68FA
:103FB0001B6842F010029A617B681B68184605F086
:103FC00075FB034603F40023B3F5002F40F0A780F0
:103FD00000237B627B681B68184605F07AFBB86299
:103FE00099E0BB6A03F00103002B00F08E807B6830
:103FF0001B687A6AD2B21146184605F09EFB3861FA
:104000003B6903F00103002B0CD07B6A5A01FB696A
:10401000134403F530631A4601239360796A786884
:1040200000F0C2FE3B6903F00803002B0CD07B6A52
:104030005A01FB69134403F530631A460823936061
:10404000796A786800F098FF3B6903F01003002B51
:1040500008D07B6A5A01FB69134403F530631A46A2
:10406000102393603B6903F00203002B30D03B6ABE
:104070005B6903F08003802B09D1FB6903F50063C2
:104080005B68FA6902F5006243F4806353607A6A00
:104090001346DB0013449B0003F51E737A68134438
:1040A00004337B617B69DB78012B08D17B690022BB
:1040B000DA707B6ADBB21946786808F091F97B6A9E
:1040C0005A01FB69134403F530631A4602239360D7
:1040D0003B6903F02003002B08D07B6A5A01FB697F
:1040E000134403F530631A46202393603B6903F4BD
:1040F0000053002B09D07B6A5A01FB69134403F576
:1041000030631A464FF4005393607B6A01337B623D
:10411000BB6A5B08BB62BB6A002B7FF462AF7B6843
:104120001B68184605F0C2FA034603F48023B3F572
:10413000802F40F0DB807B681B68184605F0E3FAAF
:10414000B86200237B62CDE0BB6A03F00103002B61
:1041500000F0C2807B681B687A6AD2B211461846AA
:1041600005F009FB38613B6903F00103002B57D0D0
:104170007B6A03F00F03012202FA03F3FB60FB6981
:1041800003F500635A6BFB68DB43F96901F50061D5
:1041900013404B637B6A5A01FB69134403F51063B8
:1041A0001A46012393607B681B69012B32D1796821
:1041B0007A6A1346DB0013449B000B444C331968A6
:1041C00078687A6A1346DB0013449B000344483343
:1041D0001B68194478687A6A1346DB0013449B0015
:1041E00003444C3319607B6A002B13D179687A6AD7
:1041F0001346DB0013449B000B4454331B68002B15
:1042000008D17B6818687B6803F2C4431A46012111
:1042100005F010FB7B6ADBB21946786808F065F898
:104220003B6903F00803002B08D07B6A5A01FB6945
:10423000134403F510631A46082393603B6903F0A7
:104240001003002B08D07B6A5A01FB69134403F565
:1042500010631A46102393603B6903F04003002B60
:1042600008D07B6A5A01FB69134403F510631A46B0
:10427000402393603B6903F00203002B23D0796A4B
:10428000386A04F0F1F97A6A1346DB0013449B00A4
:1042900038337A68134404337B617B69DB78012B04
:1042A00008D17B690022DA707B6ADBB21946786834
:1042B00008F0A8F87B6A5A01FB69134403F5106300
:1042C0001A46022393603B6903F08003002B03D05E
:1042D000796A786800F0DBFC7B6A01337B62BB6A39
:1042E0005B08BB62BB6A002B7FF42EAF7B681B6848
:1042F000184605F0DBF9034603F00043B3F1004F25
:1043000022D1FB6903F500635B68FA6902F500627C
:1043100023F0010353607B6893F8F434012B08D138
:104320007B68002283F8F4240021786800F0C2FE44
:1043300002E0786808F046F87B681B685A697B6879
:104340001B6802F000425A617B681B68184605F042
:10435000ADF9034603F40063B3F5006F12D1FB69B6
:1043600003F500639B6803F00103012B02D1786819
:1043700008F002F87B681B685A697B681B6802F4C6
:1043800000625A617B681B68184605F08FF9034686
:1043900003F48053B3F5805F40F0B780FB6903F509
:1043A00000635B68FA6902F5006223F00103536061
:1043B0007B681B681021184604F056F90023FB6245
:1043C00046E0FB6A5A01FB69134403F510631A4681
:1043D0004FF67F339360FB6A5A01FB69134403F580
:1043E00010631B68FA6A5101FA690A4402F5106207
:1043F00023F400131360FB6A5A01FB69134403F5AD
:1044000030631A464FF67F339360FB6A5A01FB69AB
:10441000134403F530631B68FA6A5101FA690A44D0
:1044200002F5306223F400131360FB6A5A01FB6942
:10443000134403F530631B68FA6A5101FA690A44B0
:1044400002F5306243F000631360FB6A0133FB62E4
:104450007B685B68FA6A9A42B3D3FB6903F5006331
:10446000DB69FA6902F5006243F00113D3617B68EE
:104470001B6B002B16D0FB6903F50063D3F8843067
:10448000FA6902F5006243F00B03C2F88430FB695D
:1044900003F500635B6CFA6902F5006243F00B03FD
:1044A000536415E0FB6903F500635B69FA6902F583
:1044B000006243F4005343F02B035361FB6903F59F
:1044C00000631B69FA6902F5006243F00B03136194
:1044D000FB6903F500631B68FA6902F5006223F4C7
:1044E000FE6313607B6818687B681B69D9B27B68C0
:1044F00003F2C4431A4605F09DF97B681B685A69AC
:104500007B681B6802F480525A617B681B681846FE
:1045100005F0CCF8034603F40053B3F5005F24D153
:104520007B681B68184605F062F97B681B681846B3
:1045300004F017F903461A467B68DA607B681C684A
:1045400001F028FA01467B68DB68DBB21A46204698
:1045500003F016FE786807F0F0FE7B681B685A6966
:104560007B681B6802F400525A617B681B6818461E
:1045700005F09CF8034603F00803082B0AD178687D
:1045800007F0CDFE7B681B685A697B681B6802F0E8
:1045900008025A617B681B68184605F087F80346D5
:1045A00003F08003802B22D13B6A9B6923F08002B9
:1045B0003B6A9A6101237B6214E079687A6A134648
:1045C000DB0013449B000B4403F27F231B78012B79
:1045D00005D17B6ADBB21946786800F027FB7B6A5D
:1045E00001337B627B685B687A6A9A42E5D37B68B9
:1045F0001B68184605F05AF8034603F48013B3F518
:10460000801F3BD101237B622BE07B6A5A01FB694F
:10461000134403F510631B68BB6179687A6A13461B
:10462000DB0013449B000B4440331B78012B15D156
:10463000BB69002B12DA79687A6A1346DB001344EF
:104640009B000B443F3301221A707B6ADBB263F09C
:104650007F03DBB21946786800F0E8FA7B6A013321
:104660007B627B685B687A6A9A42CED37B681B6800
:104670005A697B681B6802F480125A617B681B6868
:10468000184605F013F8034603F40013B3F5001FB2
:1046900055D101237B6245E07B6A5A01FB691344D3
:1046A00003F530631B68BB6179687A6A1346DB00E7
:1046B00013449B000B4403F520731B78012B2ED170
:1046C000BB69002B2BDABB6903F480327B68D3F81B
:1046D000FC3403F001039A4221D179687A6A1346C7
:1046E000DB0013449B000B4403F27F2301221A706A
:1046F0003B6A9B6943F080023B6A9A613B6A5B6953
:1047000003F08003002B0AD1FB6903F500635B68AB
:10471000FA6902F5006243F40073536007E07B6AB4
:1047200001337B627B685B687A6A9A42B4D37B68A8
:104730001B685A697B681B6802F400125A617B6827
:104740001B68184604F0B2FF034603F08043B3F140
:10475000804F0AD1786807F067FE7B681B685A694A
:104760007B681B6802F080425A617B681B681846B0
:1047700004F09CFF034603F00403042B15D17B686F
:104780001B685B68BB61BB6903F00403002B02D0AC
:10479000786807F057FE7B681B6859687B681B6860
:1047A000BA690A435A6000E000BF3437BD4690BD85
:1047B00080B582B000AF78600B46FB707B6893F8E1
:1047C000BC34012B01D1022313E07B68012283F862
:1047D000BC247B68FA7883F838207B681B68FA78F9
:1047E0001146184604F0FAFE7B68002283F8BC24C8
:1047F000002318460837BD4680BD80B584B000AFA1
:104800007860084611461A460346FB700B463B800B
:104810001346BB700023FB7297F90330002B0FDAAD
:10482000FB7803F00F021346DB0013449B00383380
:104830007A6813440433FB60FB6801225A700FE06E
:10484000FB7803F00F021346DB0013449B0003F5D3
:104850001E737A6813440433FB60FB6800225A70AD
:10486000FB7803F00F03DAB2FB681A703A88FB6832
:10487000DA60FB68BA781A71FB685B78002B04D0A9
:10488000FB681B781A46FB681A81BB78022B02D1A1
:10489000FB6800225A717B6893F8BC34012B01D16C
:1048A00002230EE07B68012283F8BC247B681B682E
:1048B000F968184603F07AFF7B68002283F8BC246D
:1048C000FB7A18461037BD4680BD80B584B000AF76
:1048D00078600B46FB7097F90330002B0FDAFB78FA
:1048E00003F00F021346DB0013449B0038337A6851
:1048F00013440433FB60FB6801225A700FE0FB781D
:1049000003F00F021346DB0013449B0003F51E73F4
:104910007A6813440433FB60FB6800225A70FB780A
:1049200003F00F03DAB2FB681A707B6893F8BC34AB
:10493000012B01D102230EE07B68012283F8BC2405
:104940007B681B68F968184603F0B8FF7B68002293
:1049500083F8BC24002318461037BD4680BD80B5BF
:1049600086B000AFF8607A603B600B46FB72FB7A62
:1049700003F00F021346DB0013449B0003F51E7384
:10498000FA68134404337B617B697A681A617B6936
:104990003A689A617B6900221A627B6900225A7028
:1049A000FB7A03F00F03DAB27B691A70FB681B69AC
:1049B000012B02D17A687B695A61FB7A03F00F03FD
:1049C000002B09D1FB681868FB681B69DBB21A462B
:1049D000796904F097FA08E0FB681868FB681B69BE
:1049E000DBB21A46796904F045F8002318461837F7
:1049F000BD4680BD80B483B000AF78600B46FB70CD
:104A0000FB7803F00F0279681346DB0013449B0028
:104A10000B4403F527731B6818460C37BD465DF839
:104A2000047B704780B586B000AFF8607A603B6069
:104A30000B46FB72FB7A03F00F021346DB001344B4
:104A40009B003833FA68134404337B617B697A68CE
:104A50001A617B693A689A617B6900221A627B69F4
:104A600001225A70FB7A03F00F03DAB27B691A70E5
:104A7000FB681B69012B02D17A687B695A61FB7A5A
:104A800003F00F03002B09D1FB681868FB681B6952
:104A9000DBB21A46796904F035FA08E0FB68186859
:104AA000FB681B69DBB21A46796903F0E3FF002358
:104AB00018461837BD4680BD80B584B000AF786019
:104AC0000B46FB70FB7803F00F027B685B689A4231
:104AD00001D9012350E097F90330002B0FDAFB785E
:104AE00003F00F021346DB0013449B0038337A684F
:104AF00013440433FB60FB6801225A700DE0FA781E
:104B00001346DB0013449B0003F51E737A681344BD
:104B10000433FB60FB6800225A70FB6801229A7024
:104B2000FB7803F00F03DAB2FB681A707B6893F826
:104B3000BC34012B01D102231EE07B68012283F8E3
:104B4000BC247B681B68F968184604F073FCFB788A
:104B500003F00F03002B0AD17B6818687B681B6980
:104B6000D9B27B6803F2C4431A4604F063FE7B6843
:104B7000002283F8BC24002318461037BD4680BDB0
:104B800080B584B000AF78600B46FB70FB7803F013
:104B90000F027B685B689A4201D9012342E097F9D2
:104BA0000330002B0FDAFB7803F00F021346DB0013
:104BB00013449B0038337A6813440433FB60FB686A
:104BC00001225A700FE0FB7803F00F021346DB005E
:104BD00013449B0003F51E737A6813440433FB608F
:104BE000FB6800225A70FB6800229A70FB7803F081
:104BF0000F03DAB2FB681A707B6893F8BC34012BA0
:104C000001D102230EE07B68012283F8BC247B687B
:104C10001B68F968184604F07BFC7B68002283F867
:104C2000BC24002318461037BD4680BD80B584B033
:104C300000AF78600B46FB7097F90330002B0CDA5D
:104C4000FB7803F00F021346DB0013449B0038335C
:104C50007A6813440433FB600CE0FB7803F00F0226
:104C60001346DB0013449B0003F51E737A6813445C
:104C70000433FB607B681B68F968184604F09AFAF5
:104C80000346FB72FB7A18461037BD4680BD80B5DF
:104C90008AB002AF786039607B681B687B617B6992
:104CA0003B613A681346DB0013449B0038337A6853
:104CB00013440433FB60FB681A6AFB689B699A42E1
:104CC00001D901236CE0FB689A69FB681B6AD31A5F
:104CD000FB61FB68DB68FA699A4202D9FB68DB6812
:104CE000FB61FB6903339B08BB612BE0FB689A699E
:104CF000FB681B6AD31AFB61FB68DB68FA699A429E
:104D000002D9FB68DB68FB61FB6903339B08BB616D
:104D1000FB6819693B68DAB2FB6998B27B681B696A
:104D2000DBB200930346786904F0EEFAFB681A6977
:104D3000FB691A44FB681A61FB681A6AFB691A442A
:104D4000FB681A623B685A013B69134403F5106320
:104D50009B699BB2BA699A4209D8FB681A6AFB68D8
:104D60009B699A4203D2FB689B69002BBED1FB680A
:104D70009A69FB681B6A9A4211D83B6803F00F03DB
:104D8000012202FA03F3BB603B6903F500635A6B2F
:104D9000BB68DB43396901F5006113404B630023B5
:104DA00018462037BD4680BD80B588B000AF78601A
:104DB00039607B681B68FB61FB69BB61FB693C3345
:104DC00004331B687B613B685A01BB69134403F5DC
:104DD00030639B683B617B681B69012B7BD13B691E
:104DE00003F00803002B15D07B69614A934240F21F
:104DF000B9803B6903F40043002B00F0B3803B68AB
:104E00005A01BB69134403F530631A464FF400435B
:104E10009360A7E03B6903F02003002B09D03B68B7
:104E20005A01BB69134403F530631A46202393608B
:104E300098E03B6903F02803002B40F093807B69E6
:104E40004B4A93420FD93B6903F40043002B0AD02D
:104E50003B685A01BB69134403F530631A464FF4AB
:104E6000004393607EE03A681346DB0013449B00E6
:104E700003F51E737A6813440433FB60FB68DA6938
:104E80003B685901BB690B4403F530631B69C3F3ED
:104E90001203D21AFB681A623B68002B14D1FB681C
:104EA0009B69002B09D17B6818687B6803F2C443B7
:104EB0001A46012104F0BEFC06E0FB681A69FB6893
:104EC0001B6A1A44FB681A613B68DBB219467868B2
:104ED00007F0F0F946E07B69264A934224D13B690A
:104EE00003F40043002B0AD03B685A01BB6913440A
:104EF00003F530631A464FF40043936032E03B6998
:104F000003F02003002B08D03B685A01BB6913440F
:104F100003F530631A46202393603B68DBB21946E1
:104F2000786807F0C7F91DE03B68002B14D1796859
:104F30003A681346DB0013449B000B4403F52573CA
:104F40001B68002B08D17B6818687B6803F2C44398
:104F50001A46002104F06EFC3B68DBB21946786803
:104F600007F0A8F9002318462037BD4680BD00BFD2
:104F70000A30544F0A31544F80B586B000AF786084
:104F800039607B681B687B617B693B617B693C3373
:104F900004331B68FB603B685A013B69134403F50B
:104FA00030639B68BB60FB68154A93420ED9BB68AF
:104FB00003F40043002B09D03B685A013B691344BA
:104FC00003F530631A464FF400439360786807F0A6
:104FD0005FF9FB680A4A93420CD97B681B69012B75
:104FE00008D17B6818687B6803F2C4431A46012124
:104FF00004F020FC002318461837BD4680BD00BFD2
:105000000A30544F80B485B000AF78600B46FB7017
:1050100013463B807B681B685B6ABB60FB78002B98
:1050200007D13B8819047B681B68BA680A439A62F7
:1050300028E07B681B689B6A1B0CBA681344BB6042
:105040000023FB730DE07B681A68FB7B40339B00F9
:1050500013445B681B0CBA681344BB60FB7B0133D1
:10506000FB73FA7BFB78013B9A42ECD33B88180434
:105070007B681968FB78013BBA68024340339B00A8
:105080000B445A60002318461437BD465DF8047B74
:10509000704780B483B000AF78600B467B807B683C
:1050A0001B687A885A62002318460C37BD465DF8A3
:1050B000047B704780B483B000AF78600B46FB7010
:1050C00000BF0C37BD465DF8047B704780B586B0E5
:1050D00000AF78607B68002B01D1012367E27B6819
:1050E0001B6803F00103002B75D0884B9B6803F00D
:1050F0000C03042B0CD0854B9B6803F00C03082B8E
:1051000012D1824B5B6803F48003B3F5800F0BD19F
:105110007E4B1B6803F40033002B5BD07B685B681D
:10512000002B57D1012342E27B685B68B3F5803FD7
:1051300006D1764B1B68754A43F4803313601DE03B
:105140007B685B68B3F5A02F0CD1704B1B686F4A6E
:1051500043F4802313606D4B1B686C4A43F4803327
:1051600013600BE0694B1B68684A23F480331360BB
:10517000664B1B68654A23F4802313607B685B6879
:10518000002B13D0FCF78AFB386108E0FCF786FBA4
:1051900002463B69D31A642B01D9032307E25B4B18
:1051A0001B6803F40033002BF0D014E0FCF776FB0F
:1051B000386108E0FCF772FB02463B69D31A642BA6
:1051C00001D90323F3E1514B1B6803F40033002B97
:1051D000F0D100E000BF7B681B6803F00203002BE6
:1051E00063D04A4B9B6803F00C03002B0BD0474B5A
:1051F0009B6803F00C03082B1CD1444B5B6803F441
:105200008003002B16D1414B1B6803F00203002BD7
:1052100005D07B68DB68012B01D00123C7E13B4B44
:105220001B6823F0F8027B681B69DB0037491343D6
:105230000B603AE07B68DB68002B20D0344B012206
:105240001A60FCF72BFB386108E0FCF727FB0246ED
:105250003B69D31A022B01D90323A8E12B4B1B680E
:1052600003F00203002BF0D0284B1B6823F0F80258
:105270007B681B69DB00254913430B6015E0244B59
:1052800000221A60FCF70AFB386108E0FCF706FB15
:1052900002463B69D31A022B01D9032387E11B4B3A
:1052A0001B6803F00203002BF0D17B681B6803F03E
:1052B0000803002B36D07B685B69002B16D0154B9A
:1052C00001221A60FCF7EAFA386108E0FCF7E6FA16
:1052D00002463B69D31A022B01D9032367E10B4B2A
:1052E0005B6F03F00203002BF0D01BE0094B0022A0
:1052F0001A60FCF7D3FA38610EE0FCF7CFFA0246E9
:105300003B69D31A022B07D9032350E1003802402E
:1053100000004742800E4742884B5B6F03F0020358
:10532000002BEAD17B681B6803F00403002B00F01C
:1053300097800023FB75814B1B6C03F08053002B7F
:105340000FD10023BB607D4B1B6C7C4A43F0805324
:1053500013647A4B1B6C03F08053BB60BB68012362
:10536000FB75774B1B6803F48073002B18D1744BCB
:105370001B68734A43F480731360FCF78FFA38613B
:1053800008E0FCF78BFA02463B69D31A022B01D9DD
:1053900003230CE16A4B1B6803F48073002BF0D0ED
:1053A0007B689B68012B06D1644B1B6F634A43F0FB
:1053B000010313671CE07B689B68052B0CD15F4BD6
:1053C0001B6F5E4A43F0040313675C4B1B6F5B4A21
:1053D00043F0010313670BE0584B1B6F574A23F050
:1053E00001031367554B1B6F544A23F004031367E3
:1053F0007B689B68002B15D0FCF750FA38610AE0F7
:10540000FCF74CFA02463B69D31A41F288329342C8
:1054100001D90323CBE0494B1B6F03F00203002BA0
:10542000EED014E0FCF73AFA38610AE0FCF736FAFD
:1054300002463B69D31A41F28832934201D90323D1
:10544000B5E03E4B1B6F03F00203002BEED1FB7D5A
:10545000012B05D1394B1B6C384A23F08053136460
:105460007B689B69002B00F0A180344B9B6803F0A4
:105470000C03082B5CD07B689B69022B41D1314B1C
:1054800000221A60FCF70AFA386108E0FCF706FA15
:1054900002463B69D31A022B01D9032387E0274B2D
:1054A0001B6803F00073002BF0D17B68DA697B681E
:1054B0001B6A1A437B685B6A9B011A437B689B6A81
:1054C0005B08013B1B041A437B68DB6A1B061B4914
:1054D00013434B601B4B01221A60FCF7DFF9386164
:1054E00008E0FCF7DBF902463B69D31A022B01D92D
:1054F00003235CE0114B1B6803F00073002BF0D01A
:1055000054E0104B00221A60FCF7C8F9386108E03B
:10551000FCF7C4F902463B69D31A022B01D90323D5
:1055200045E0064B1B6803F00073002BF0D13DE013
:105530007B689B69012B07D1012338E000380240CA
:1055400000700040600047421B4B5B68FB607B685B
:105550009B69012B28D0FB6803F480027B68DB6920
:105560009A4221D1FB6803F03F027B681B6A9A4292
:105570001AD1FA6847F6C07313407A68526A9201EA
:10558000934211D1FB6803F440327B689B6A5B084D
:10559000013B1B049A4207D1FB6803F070627B68F1
:1055A000DB6A1B069A4201D0012300E00023184663
:1055B0001837BD4680BD00BF0038024080B584B0BA
:1055C00000AF786039607B68002B01D10123CCE00B
:1055D000684B1B6803F007033A689A420CD9654B85
:1055E0003A68D2B21A70634B1B6803F007033A683B
:1055F0009A4201D00123B8E07B681B6803F00203E4
:10560000002B20D07B681B6803F00403002B05D01F
:10561000594B9B68584A43F4E05393607B681B687E
:1056200003F00803002B05D0534B9B68524A43F408
:1056300060439360504B9B6823F0F0027B689B684B
:105640004D4913438B607B681B6803F00103002BFB
:1056500044D07B685B68012B07D1474B1B6803F480
:105660000033002B19D101237FE07B685B68022B9C
:1056700003D07B685B68032B07D13F4B1B6803F0AB
:105680000073002B09D101236FE03B4B1B6803F033
:105690000203002B01D1012367E0374B9B6823F005
:1056A00003027B685B68344913438B60FCF7F6F8B0
:1056B000F8600AE0FCF7F2F80246FB68D31A41F200
:1056C0008832934201D903234FE02B4B9B6803F0B0
:1056D0000C027B685B689B009A42EBD1254B1B68F0
:1056E00003F007033A689A420CD2224B3A68D2B2CE
:1056F0001A70204B1B6803F007033A689A4201D0E6
:10570000012332E07B681B6803F00403002B08D000
:10571000194B9B6823F4E0527B68DB6816491343FE
:105720008B607B681B6803F00803002B09D0124BC9
:105730009B6823F460427B681B69DB000E491343BE
:105740008B6000F021F802460B4B9B681B0903F0AD
:105750000F030A49CB5C22FA03F3094A1360094B91
:105760001B681846FCF756F8002318461037BD464C
:1057700080BD00BF003C02400038024010F4000829
:1057800000000020040000202DE9B04F94B000AFCD
:1057900000237B640023FB6400233B640023BB6481
:1057A000794B9B6803F00C03082B0DD0082B00F2FB
:1057B000E180002B02D0042B03D0DBE0734BBB64F1
:1057C000DBE0734BBB64D8E06F4B5B6803F03F03D7
:1057D0007B646D4B5B6803F48003002B63D06A4BE2
:1057E0005B689B090022BB63FA63BB6BC3F30803CE
:1057F0003B6300237B63D7E90C4522462B464FF0E1
:1058000000004FF00001590141EAD2615001024607
:105810000B462146511A3961294663EB01037B612E
:105820004FF000024FF00003D7E904AB59468B015B
:10583000514643EA916351468A015146B2EB010851
:10584000594663EB01094FF000024FF000034FEAA5
:10585000C90343EA58734FEAC80290469946234663
:1058600018EB0303BB602B4649EB0303FB604FF0CF
:1058700000024FF00003D7E9024529464B022146BA
:1058800043EAD15321464A02104619467B6C002256
:10589000BB62FA62D7E90A23FAF7F2FC02460B462A
:1058A0001346FB6458E0384B5B689B09002218469E
:1058B0001146C0F308033B6200237B62D7E90889E5
:1058C00042464B464FF000004FF00001590141EABB
:1058D000D261500102460B464146B2EB010A4946ED
:1058E00063EB010B4FF000024FF000034FEA8B1304
:1058F00043EA9A634FEA8A12B2EB0A0463EB0B05A0
:105900004FF000024FF00003EB0043EA5473E20053
:1059100014461D464346E3183B604B4645EB0303E4
:105920007B604FF000024FF00003D7E900452946A5
:105930008B02214643EA915321468A0210461946BA
:105940007B6C0022BB61FA61D7E90623FAF798FC69
:1059500002460B461346FB640B4B5B681B0C03F0C3
:10596000030301335B003B64FA6C3B6CB2FBF3F363
:10597000BB6402E0054BBB6400BFBB6C18465037EC
:10598000BD46BDE8B08F00BF003802400024F400DF
:1059900000127A0080B400AF034B1B681846BD4666
:1059A0005DF8047B704700BF0000002080B500AFA9
:1059B000FFF7F0FF0246054B9B689B0A03F00703C5
:1059C0000349CB5C22FA03F3184680BD003802403D
:1059D00020F4000880B586B000AF786000237B61BA
:1059E00000233B617B681B6803F00103002B05D19A
:1059F0007B681B6803F00403002B35D0674B002243
:105A00001A60FBF74BFF786108E0FBF747FF02469F
:105A10007B69D31A022B01D90323BAE0604B1B68C0
:105A200003F00063002BF0D17B685B689A017B6810
:105A30009B681B075A491343C1F88430574B012216
:105A40001A60FBF72BFF786108E0FBF727FF02469F
:105A50007B69D31A022B01D903239AE0504B1B68B0
:105A600003F00063002BF0D07B681B6803F0020397
:105A7000002B00F083800023FB60494B1B6C484ADD
:105A800043F080531364464B1B6C03F08053FB6060
:105A9000FB68444B1B68434A43F480731360FBF775
:105AA000FDFE786108E0FBF7F9FE02467B69D31A38
:105AB000022B01D903236CE03A4B1B6803F480737B
:105AC000002BF0D0364B1B6F03F440733B613B69F6
:105AD000002B2FD07B68DB6803F440733A699A424D
