:020000040800F2
:10000000000001208D1C0008E91A0008F11A000800
:10001000F91A0008011B0008091B00080000000075
:10002000000000000000000000000000111B00089C
:100030001F1B0008000000002D1B00083B1B0008D0
:10004000DD1C0008DD1C0008DD1C0008DD1C0008AC
:10005000DD1C0008DD1C0008DD1C0008DD1C00089C
:10006000471B0008DD1C0008DD1C0008DD1C000823
:10007000DD1C0008DD1C0008DD1C0008DD1C00087C
:10008000DD1C0008DD1C0008DD1C0008000000006D
:10009000000000000000000000000000DD1C00085F
:1000A000DD1C0008551B0008691B0008DD1C00084A
:1000B000DD1C0008DD1C00087D1B0008DD1C00089D
:1000C000DD1C0008DD1C0008DD1C0008DD1C00082C
:1000D000DD1C0008DD1C0008DD1C0008000000001D
:1000E000A11B0008DD1C0008DD1C0008000000004A
:1000F000000000000000000000000000DD1C0008FF
:1001000000000000DD1C0008B11B0008DD1C000819
:1001100000000000000000000000000000000000DF
:10012000D51B0008DD1C0008DD1C0008E91B0008C9
:10013000DD1C0008000000000000000000000000BE
:10014000000000000000000000000000DD1C0008AE
:10015000DD1C0008DD1C0008DD1C0008DD1C00089B
:10016000DD1C0008DD1C000800000000000000008D
:10017000000000000000000000000000000000007F
:1001800000000000DD1C000800000000000000006E
:04019000DD1C00086A
:1001A00010B5054C237833B9044B13B10448AFF3B1
:1001B00000800123237010BD6400002000000000B7
:1001C000046B000808B5034B1BB103490348AFF3A8
:1001D000008008BD0000000068000020046B0008DB
:1001E00001F0FF01102A2BDB10F0070F08D010F8E8
:1001F000013B013A8B422DD010F0070F42B3F6D1EC
:10020000F0B441EA012141EA014122F007047FF004
:1002100000070023F0E80256083C85EA010586EA5B
:10022000010685FA47F5A3FA87F586FA47F6A5FA97
:1002300087F68EB9EED1F0BC01F0FF0102F00702A3
:1002400032B110F8013B013A83EA010313B1F8D14E
:100250000020704701387047002D06BF354603382F
:10026000073815F0010F07D1013015F4807F02BF68
:10027000013015F4C03F0130F0BC0138704700BFB9
:1002800053B94AB9002908BF00281CBF4FF0FF31FD
:100290004FF0FF3000F06AB9ADF1080C6DE904CE03
:1002A00000F006F8DDF804E0DDE9022304B0704751
:1002B0002DE9F047089D0C46002B4ED194468C4505
:1002C0008646B2FA82F262D94AB1C2F12003914065
:1002D00020FA03F30CFA02FC194300FA02FE4FEA7B
:1002E0001C471FFA8CF6B1FBF7F44FEA1E4307FBDD
:1002F000141143EA014304FB06F199420AD91CEBAD
:10030000030304F1FF3080F01281994240F20F8123
:10031000023C6344591A1FFA8EF3B1FBF7F007FB56
:10032000101143EA014300FB06F69E420AD91CEB7A
:10033000030300F1FF3180F0FC809E4240F2F9801F
:10034000634402389B1B40EA044000211DB1D340A6
:100350000022C5E90032BDE8F0878B4205D90DB116
:10036000C5E9000100210846F5E7B3FA83F1002949
:1003700046D1A34202D39042C0F0F080861A64EBCB
:1003800003030120002DE6D0C5E90063E3E7002A5E
:1003900040F09080A1EB0C044FEA1C481FFA8CF748
:1003A0000121B4FBF8F64FEA1E4308FB164443EA6A
:1003B000044307FB06F0984208D91CEB030306F13F
:1003C000FF3402D2984200F2CD8026461C1A1FFA52
:1003D0008EF3B4FBF8F008FB104443EA044300FB3F
:1003E00007F79F4208D91CEB030300F1FF3402D248
:1003F0009F4200F2B0802046DB1B40EA0640A5E7A2
:10040000C1F120068B4022FA06F71F4320FA06FCB2
:1004100004FA01F343EA0C03F44000FA01F8380C43
:100420004FEA1349B4FBF0FE1FFA87FC00FB1E44A1
:1004300049EA04440EFB0CF9A14502FA01F20AD97B
:100440003C190EF1FF3A80F08480A14540F2818092
:10045000AEF1020E3C44A4EB09041FFA83F9B4FB8D
:10046000F0F300FB134449EA044403FB0CFCA445ED
:1004700007D93C1903F1FF3067D2A44565D9023B87
:100480003C4443EA0E40A0FB0293A4EB0C049C42C4
:10049000CE469C4651D34ED055B1B8EB0E0364EB1B
:1004A0000C0404FA06F6CB401E43CC40C5E90064B8
:1004B000002150E7C2F1200320FA03F10CFA02FCFC
:1004C00024FA03F394400C434FEA1C4800FA02FE5E
:1004D0001FFA8CF7B3FBF8F008FB1031230C43EA4A
:1004E000014300FB07F1994208D91CEB030300F11B
:1004F000FF362CD299422AD9023863445B1AA4B23F
:10050000B3FBF8F108FB113344EA034401FB07F3A2
:10051000A34208D91CEB040401F1FF3613D2A34215
:1005200011D902396444E41A41EA004139E704462A
:10053000F0E6084606E7C845AED2B9EB020E63EB1B
:10054000070C0138A8E73146EDE7034699E7304646
:10055000D4E7D6467FE7634402384DE70646234694
:1005600008460FE7023E634430E700BF704700BF14
:1005700080B400AFBFF34F8F00BF064BDB6803F4BE
:10058000E0620449044B1343CB60BFF34F8F00BFBD
:1005900000BFFDE700ED00E00400FA0580B483B081
:1005A00000AF0346FB80FB88042B02D1044B0122E1
:1005B0001A7000BF0C37BD465DF8047B704700BF62
:1005C000BC03002080B586B000AF786007F1080357
:1005D00000221A605A609A60DA607B68BB6001236F
:1005E000FB6004233B6107F108031946054801F04D
:1005F000D1FD0346002B01D000F0C6FF00BF183725
:10060000BD4680BD8000002080B582B000AF01F003
:10061000CDFB78600821504802F05AFD0346FB707C
:10062000FB78012B13D14D4B1B78002B0FD14C4B7A
:100630001B687A68D31A322B09D9484B01221A70E9
:10064000484B00221A70464A7B6813602EE0FB7804
:10065000012B11D1434B1B78002B0DD1404B1B6854
:100660007A68D31AB3F52F7F06D93E4B01221A7050
:100670003D4B01221A7019E0FB78002B16D1374B45
:100680001B78002B12D0364B1B687A68D31A322B9A
:100690000CD9324B00221A70314A7B681360314BFF
:1006A0001B78002B02D1304B02221A7001F07EFB26
:1006B00078600421284802F00BFD0346BB70BB782C
:1006C000012B13D1294B1B78002B0FD1284B1B6812
:1006D0007A68D31A322B09D9244B01221A70254B80
:1006E00000221A70224A7B6813602EE0BB78012B2F
:1006F00011D1204B1B78002B0DD11D4B1B687A6844
:10070000D31AB3F52F7F06D91B4B01221A70194B50
:1007100001221A7019E0BB78002B16D1134B1B78FD
:10072000002B12D0124B1B687A68D31A322B0CD9CB
:100730000E4B00221A700E4A7B6813600D4B1B781B
:10074000002B02D10C4B02221A700C4B00221A70A3
:1007500000BF0837BD4680BD00080240BF0300202F
:10076000C4030020C0030020BD030020C8030020F4
:10077000CC030020C9030020BE030020D0030020CA
:1007800080B400AF054B00221A70054B00221A708E
:1007900000BFBD465DF8047B704700BFBD0300206D
:1007A000BE03002080B59AB004AF01F099FA00F0C2
:1007B00063FA00F0FBFD00F0D1FD00F01DFB00F03E
:1007C00049FB00F06DFB00F0C5FA00F0B5FC00F04D
:1007D0003DFC00F027FD00F099FB00F071FD0023C7
:1007E000BB640821A64804F0D1F9A64804F012F928
:1007F00001224FF40061A44802F082FC01224FF470
:100800008051A14802F07CFC05F0B8F9002005F009
:1008100022FB05F005FC41F6251005F00BFB00223C
:100820004FF48041994802F06BFC00224FF4805154
:10083000964802F065FC01224FF40071934802F0E3
:100840005FFC01224FF40041904802F059FC904BAC
:100850005B6803F00203022B09D18D4B1B688C4AA5
:1008600043F0080313604FF4807002F0D1FD884B11
:100870001B68874A43F0040313604FF4807002F052
:10088000B5FD5B23A7F846302B23A7F8443002239D
:10089000A7F84230002387F82030132387F841302F
:1008A00000233B77002387F84030002387F83F3050
:1008B000002387F83E30012387F83D30FF2387F877
:1008C0003C30FF2387F83B30002387F83A30002381
:1008D00087F839306F4A07F1140392E80300186073
:1008E00004331970002387F83830002387F8373035
:1008F000322387F836304FF47A73BB86002387F8AB
:100900003330654B3222DA6300233B860023FB85BC
:100910000023BB8500237B85604A3B4607CA83E8EA
:100920000700FFF771FE5E4B1B78012B07D1FFF725
:1009300027FF4FF47A7001F045FAFFF719FE594B83
:1009400041F6251202924FF61F0201925A68009258
:100950001B68554A0321052005F0AFF9514B41F6BC
:10096000251202924FF61F0201925A6800921B68EC
:100970004E4A1721052005F0A0F94A4B41F62512F1
:1009800002924FF61F0201925A6800921B68484A71
:100990002B21052005F091F9424B41F625120292D8
:1009A0004FF61F0201925A6800921B68414A3F218C
:1009B000052005F082F900224FF48051334802F0FF
:1009C0009FFB00224FF40071304802F099FB4FF476
:1009D0007A7001F0F7F900237B6521E07B6D9B00C5
:1009E00058333B4453F8583C1846FFF7EBFD324868
:1009F00001F050FA4FF0FF312F4801F032FB2E4842
:100A000001F0BAFB03469AB27B6D5B0058333B445E
:100A100023F84C2C284801F0F1FA7B6D01337B65FB
:100A20007B6D022BDADDFB893B863A8E07F12403CE
:100A30002249184605F0C6FB1A4B07F1240141F67E
:100A40002512029249F26E4201925A6800921B6886
:100A50000A460321372005F030F900224FF4805177
:100A60000A4802F04DFB01224FF40071074802F0E2
:100A700047FB4FF47A7001F0A5F900233B6541E094
:100A80009C0200202C0300200008024000040240C9
:100A900000700040446B0008000400404C6B0008EC
:100AA000BE0300200C0000201C6B0008246B000813
:100AB0002C6B0008346B0008800000203C6B0008A1
:100AC0003B6D9B0058333B4453F8583C1846FFF7A6
:100AD00079FD644801F0DEF94FF0FF31614801F023
:100AE000C0FA604801F048FB03469AB23B6D5B00D8
:100AF00058333B4423F84C2C5A4801F07FFA3B6DA5
:100B000001333B653B6D022BDADDFB89FB85FA8DFA
:100B100007F124035449184605F054FB534B07F1E1
:100B2000240141F62512029249F26E4201925A685E
:100B300000921B680A461721372005F0BEF80122F3
:100B40004FF480514A4802F0DBFA00224FF4007162
:100B5000474802F0D5FA4FF47A7001F033F90023D8
:100B6000FB6421E0FB6C9B0058333B4453F8583C3A
:100B70001846FFF727FD3B4801F08CF94FF0FF3195
:100B8000384801F06EFA374801F0F6FA03469AB297
:100B9000FB6C5B0058333B4423F84C2C314801F08C
:100BA0002DFAFB6C0133FB64FB6C022BDADDFB8955
:100BB000BB85BA8D07F124032B49184605F002FBCB
:100BC0002A4B07F1240141F62512029249F26E42A6
:100BD00001925A6800921B680A462B21372005F0C3
:100BE0006CF83A8EFB8D1A44BB8D1344214A82FB6C
:100BF0000312DB17D31A7B853B8A7B857A8D07F13D
:100C000024031949184605F0DDFA184B07F12401B1
:100C100041F62512029249F26E4201925A68009200
:100C20001B680A463F21372005F047F83B8A7B8541
:100C30007A8D07F124030C49184605F0C3FA0B4BD3
:100C400007F1240141F62512029249F26E42019207
:100C50005A6800921B680A463F21372005F02DF89C
:100C60005FE600BF800000203C6B00080C00002005
:100C7000000402405655555580B594B000AF07F1B9
:100C8000200330220021184605F0BCFA07F10C03BE
:100C900000221A605A609A60DA601A610023BB6011
:100CA0002A4B1B6C294A43F080531364274B1B6C5F
:100CB00003F08053BB60BB6800237B60244B1B6840
:100CC00023F44043224A43F400431360204B1B6843
:100CD00003F440437B607B6806233B620123BB62D5
:100CE0000123FB6210233B630223BB630023FB63EE
:100CF00008233B64A8237B640423BB640723FB64B1
:100D000007F12003184602F097FB0346002B01D0A1
:100D100000F03AFC0F23FB6002233B6100237B6160
:100D20004FF48053BB614FF48053FB6107F10C0318
:100D30000221184602F0F8FD0346002B01D000F016
:100D400023FC00BF5037BD4680BD00BF00380240C5
:100D50000070004080B584B000AF3B4600221A60AE
:100D60005A609A60DA60214B214A1A601F4B0022B8
:100D70005A601E4B00229A601C4B00221A611B4BCA
:100D800000221A76194B002283F82020174B0022EC
:100D9000DA62164B174A9A62144B0022DA60134B40
:100DA0000122DA61114B002283F830200F4B01221F
:100DB0005A610E4801F02AF80346002B01D000F0DA
:100DC000E3FB01233B6001237B600523BB603B46C3
:100DD0001946064801F0DEF90346002B01D000F069
:100DE000D3FB00BF1037BD4680BD00BF8000002090
:100DF000002001400100000F80B500AF124B134AE4
:100E00001A60114B124A5A600F4B00229A600E4B27
:100E10000022DA600C4B4FF480421A610A4B002228
:100E20005A61094B00229A61074B0022DA61064B96
:100E300000221A62044802F095F90346002B01D003
:100E400000F0A2FB00BF80BDC8000020005400409D
:100E5000A086010080B500AF0F4B104A1A600E4B00
:100E600000225A600C4B7F229A600B4BFF22DA6003
:100E7000094B00221A61084B00225A61064B0022DE
:100E80009A61054803F04AF80346002B01D000F0B0
:100E90007BFB00BF80BD00BF1C010020002800407C
:100EA00080B500AF174B184A1A60164B4FF4827288
:100EB0005A60144B00229A60124B0022DA60114BE8
:100EC00000221A610F4B00225A610E4B4FF4007240
:100ED0009A610C4B0022DA610A4B00221A62094B1C
:100EE00000225A62074B00229A62064B0A22DA62FB
:100EF000044803F00DF90346002B01D000F044FB39
:100F000000BF80BD3C0100200030014080B596B09C
:100F100000AF07F1480300221A605A609A60DA6055
:100F200007F1400300221A605A6007F124030022EF
:100F30001A605A609A60DA601A615A619A613B1DC0
:100F400020220021184605F05DF93E4B3E4A1A600A
:100F50003C4B40F233325A603A4B00229A60394B94
:100F60006322DA60374B00221A61364B00225A6145
:100F7000344B00229A61334803F0FCFC0346002BFB
:100F800001D000F001FB4FF48053BB6407F148032C
:100F900019462C4804F074F80346002B01D000F0E9
:100FA000F3FA284803F098FD0346002B01D000F027
:100FB000EBFA00233B6400237B6407F140031946EE
:100FC000204804F023FC0346002B01D000F0DCFA9B
:100FD00060237B620023BB620023FB6200233B6330
:100FE00000237B630023BB630023FB6307F124031F
:100FF00000221946134803F081FF0346002B01D05D
:1010000000F0C2FA00237B600023BB600023FB607A
:1010100000233B6100237B614FF40053BB6100233D
:101020003B623B1D1946074804F05EFC0346002B5B
:1010300001D000F0A9FA034800F0CEFC00BF5837F9
:10104000BD4680BD540200200000014080B58EB036
:1010500000AF07F1280300221A605A609A60DA6034
:1010600007F1200300221A605A603B1D00221A601B
:101070005A609A60DA601A615A619A612D4B4FF09A
:1010800080421A602B4B00225A602A4B00229A6041
:10109000284B4FF6FF72DA60264B00221A61254B6F
:1010A00000229A61234803F065FC0346002B01D01F
:1010B00000F06AFA4FF48053BB6207F12803194627
:1010C0001C4803F0DDFF0346002B01D000F05CFA62
:1010D000184803F001FD0346002B01D000F054FA3C
:1010E00000233B6200237B6207F12003194611486D
:1010F00004F08CFB0346002B01D000F045FA60237E
:101100007B600023BB600023FB6000237B613B1DF1
:1011100008221946074803F0F1FE0346002B01D0D0
:1011200000F032FA034800F057FC00BF3837BD46E4
:1011300080BD00BF9C02002080B58EB000AF07F1DB
:10114000280300221A605A609A60DA6007F12003CF
:1011500000221A605A603B1D00221A605A609A6091
:10116000DA601A615A619A612C4B2D4A1A602B4B36
:1011700029225A60294B00229A60284B6322DA60A8
:10118000264B00221A61254B00229A61234803F066
:10119000F1FB0346002B01D000F0F6F94FF4805329
:1011A000BB6207F1280319461C4803F069FF034698
:1011B000002B01D000F0E8F9184803F08DFC03463D
:1011C000002B01D000F0E0F900233B6200237B629A
:1011D00007F120031946114804F018FB0346002BC1
:1011E00001D000F0D1F960237B600023BB600023B5
:1011F000FB6000237B613B1D08221946074803F072
:101200007DFE0346002B01D000F0BEF9034800F03C
:10121000E3FB00BF3837BD4680BD00BFE4020020BD
:101220000004004080B586B000AF07F1080300223B
:101230001A605A609A60DA603B4600221A605A606F
:101240001D4B1E4A1A601C4B4AF20F425A601A4B41
:1012500000229A60184B0922DA60174B00221A61AB
:10126000154B00229A61144803F084FB0346002BBF
:1012700001D000F089F94FF48053BB6007F10803F7
:1012800019460D4803F0FCFE0346002B01D000F088
:101290007BF900233B6000237B603B4619460648F0
:1012A00004F0B4FA0346002B01D000F06DF900BF42
:1012B0001837BD4680BD00BF2C0300200008004049
:1012C00080B586B000AF07F1080300221A605A60AB
:1012D0009A60DA603B4600221A605A601D4B1E4A33
:1012E0001A601C4B4AF20F425A601A4B00229A6055
:1012F000184B40F25D12DA60164B00221A61154B52
:1013000000229A61134803F035FB0346002B01D0FD
:1013100000F03AF94FF48053BB6007F10803194617
:101320000C4803F0ADFE0346002B01D000F02CF971
:1013300000233B6000237B603B461946054804F0D0
:1013400065FA0346002B01D000F01EF900BF1837E4
:10135000BD4680BD74030020000C004080B582B003
:1013600000AF00237B60104B1B6B0F4A43F48003DC
:1013700013630D4B1B6B03F480037B607B680022BF
:101380000021382001F0FFF9382001F018FA00227E
:1013900000213B2001F0F7F93B2001F010FA00BFDB
:1013A0000837BD4680BD00BF0038024080B58AB016
:1013B00000AF07F1140300221A605A609A60DA60E5
:1013C0001A6100233B616B4B1B6B6A4A43F00403B9
:1013D0001363684B1B6B03F004033B613B69002301
:1013E000FB60644B1B6B634A43F080031363614BE8
:1013F0001B6B03F08003FB60FB680023BB605D4B4D
:101400001B6B5C4A43F0010313635A4B1B6B03F0E5
:101410000103BB60BB6800237B60564B1B6B554AC6
:1014200043F002031363534B1B6B03F002037B6017
:101430007B6800233B604F4B1B6B4E4A43F0080315
:1014400013634C4B1B6B03F008033B603B680022AB
:101450004FF46051484801F053FE012240F2F3710D
:10146000454801F04DFE00224FF4C261434801F0AF
:1014700047FE01224FF49F71414801F041FE0022D6
:101480004FF452413E4801F03BFE43F6F3737B615B
:101490000123BB610023FB6100233B6207F11403BE
:1014A0001946354801F090FC0C237B610023BB6199
:1014B0000023FB6107F1140319462F4801F084FC57
:1014C0004FF4C2637B610123BB610023FB610023F6
:1014D0003B6207F114031946284801F075FC4DF2F0
:1014E0003E337B610123BB610023FB6100233B6230
:1014F00007F114031946224801F066FC4FF400532B
:101500007B610023BB610023FB6107F114031946D3
:101510001B4801F059FC4FF400437B614FF48813E2
:10152000BB610023FB6107F114031946134801F066
:101530004BFC04237B614FF40413BB610023FB616C
:1015400007F1140319460F4801F03EFC0022002168
:10155000082001F018F9082001F031F900220021DB
:10156000282001F010F9282001F029F900BF2837C0
:10157000BD4680BD00380240000802400000024025
:1015800000040240000C024080B400AF72B600BFFD
:1015900000BFFDE780B483B000AF00237B60104B39
:1015A0005B6C0F4A43F4804353640D4B5B6C03F454
:1015B00080437B607B6800233B60094B1B6C084ABF
:1015C00043F080531364064B1B6C03F080533B6065
:1015D0003B6800BF0C37BD465DF8047B704700BF19
:1015E0000038024080B58AB000AF786007F114037C
:1015F00000221A605A609A60DA601A617B681B6880
:10160000174A934227D100233B61164B5B6C154A66
:1016100043F480735364134B5B6C03F480733B613E
:101620003B690023FB600F4B1B6B0E4A43F0010329
:1016300013630C4B1B6B03F00103FB60FB680E2371
:101640007B610323BB610023FB6107F1140319468F
:10165000054801F0B9FB00BF2837BD4680BD00BF7B
:1016600000200140003802400000024080B58AB0EE
:1016700000AF786007F1140300221A605A609A6084
:10168000DA601A617B681B68194A93422BD10023E8
:101690003B61184B1B6B174A43F002031363154B56
:1016A0001B6B03F002033B613B69C0237B61122388
:1016B000BB610023FB6103233B6204237B6207F1D0
:1016C000140319460C4801F07FFB0023FB60094B13
:1016D0001B6C084A43F400131364064B1B6C03F4A1
:1016E0000013FB60FB6800BF2837BD4680BD00BF0C
:1016F00000540040003802400004024080B588B029
:1017000000AF786007F10C0300221A605A609A60FB
:10171000DA601A617B681B680C4A934211D102237C
:10172000FB604FF48073BB6107F10C03184602F0B5
:1017300007FB0346002B01D0FFF726FF044B0122D5
:101740001A6000BF2037BD4680BD00BF00280040A2
:101750003C0E474280B58AB000AF786007F11403B1
:1017600000221A605A609A60DA601A617B681B680E
:10177000474A934240F0888000233B61454B5B6CB5
:10178000444A43F480535364424B5B6C03F48053EC
:101790003B613B690023FB603E4B1B6B3D4A43F0C2
:1017A000010313633B4B1B6B03F00103FB60FB68FE
:1017B000E0237B610223BB610023FB6103233B62C7
:1017C00005237B6207F114031946334801F0FCFA44
:1017D000324B334A1A60314B4FF0C0625A602F4B84
:1017E00000229A602D4B0022DA602C4B4FF480626D
:1017F0001A612A4B00225A61284B00229A61274B1A
:101800000022DA61254B00221A62244B00225A6220
:10181000224800F0EFFF0346002B01D0FFF7B4FE93
:101820007B681E4ADA641D4A7B6893631D4B1E4A1F
:101830001A601C4B4FF0C0625A601A4B40229A60EB
:10184000184B0022DA60174B4FF480621A61154B77
:1018500000225A61134B00229A61124B0022DA6176
:10186000104B00221A620F4B00225A620D4800F002
:10187000C1FF0346002B01D0FFF786FE7B68094AB3
:101880009A64084A7B68936300BF2837BD4680BDD1
:101890000030014000380240000002409401002066
:1018A00010640240F40100205864024080B588B002
:1018B00000AF78607B681B68424A93421ED10023C8
:1018C000FB61414B5B6C404A43F0010353643E4B68
:1018D0005B6C03F00103FB61FB690022002119200E
:1018E00000F051FF192000F06AFF002200211A20A9
:1018F00000F049FF1A2000F062FF5EE07B681B6881
:10190000B3F1804F0ED10023BB612F4B1B6C2E4ACD
:1019100043F0010313642C4B1B6C03F00103BB6108
:10192000BB694AE07B681B68284A93420ED10023BA
:101930007B61254B1B6C244A43F002031364224B4A
:101940001B6C03F002037B617B6936E07B681B68DC
:101950001F4A934216D100233B611B4B1B6C1A4A52
:1019600043F004031364184B1B6C03F004033B6146
:101970003B69002201211E2000F005FF1E2000F01F
:101980001EFF1AE07B681B68124A934215D10023A0
:10199000FB600D4B1B6C0C4A43F0080313640A4BAD
:1019A0001B6C03F00803FB60FB680022002132205F
:1019B00000F0E9FE322000F002FF00BF2037BD46F4
:1019C00080BD00BF0000014000380240000400401C
:1019D00000080040000C004080B58AB000AF78607D
:1019E00007F1140300221A605A609A60DA601A61E3
:1019F0007B681B68374A93421FD100233B61364BFB
:101A00001B6B354A43F001031363334B1B6B03F02D
:101A100001033B613B694FF480737B610223BB612F
:101A20000023FB6100233B6201237B6207F1140367
:101A300019462A4801F0C8F947E07B681B68B3F1F2
:101A4000804F1FD10023FB60234B1B6B224A43F0C6
:101A500002031363204B1B6B03F00203FB60FB6864
:101A60004FF480637B610223BB610023FB61002391
:101A70003B6201237B6207F114031946184801F009
:101A8000A3F922E07B681B68164A93421DD100230C
:101A9000BB60114B1B6B104A43F0020313630E4BE8
:101AA0001B6B03F00203BB60BB6801237B61022355
:101AB000BB610023FB6100233B6202237B6207F1D1
:101AC00014031946064801F07FF900BF2837BD46C8
:101AD00080BD00BF0000014000380240000002400D
:101AE000000402400004004080B400AF00BFFDE7E6
:101AF00080B400AF00BFFDE780B400AF00BFFDE7DA
:101B000080B400AF00BFFDE780B400AF00BFFDE7C9
:101B100080B400AF00BFBD465DF8047B704780B461
:101B200000AF00BFBD465DF8047B704780B400AFD6
:101B300000BFBD465DF8047B704780B500AF00F084
:101B400021F900BF80BD80B500AF042001F0F2FA9A
:101B500000BF80BD80B500AF024803F0C7F800BFEA
:101B600080BD00BF5402002080B500AF024803F0E2
:101B7000BDF800BF80BD00BF5402002080B500AF9B
:101B8000054B1B78032B02D1034B02221A7003482A
:101B900003F0ACF800BF80BDD10300202C0300206F
:101BA00080B500AF4FF4004001F0C4FA00BF80BD23
:101BB00080B500AF054B1B8801339AB2034B1A80E6
:101BC000034803F093F800BF80BD00BFD20300209C
:101BD0007403002080B500AF024800F0B9FE00BFDA
:101BE00080BD00BF9401002080B500AF024800F026
:101BF000AFFE00BF80BD00BFF401002080B586B0FD
:101C000000AF7860144A154BD31A7B617B693B6146
:101C1000134B1B68002B02D1114B124A1A60104B58
:101C20001A687B6813443A699A4207D204F0F2FAC0
:101C300003460C221A604FF0FF3309E0084B1B6883
:101C4000FB60074B1A687B681344054A1360FB6806
:101C500018461837BD4680BD000001200004000072
:101C6000D40300205005002080B400AF064BD3F809
:101C70008830054A43F47003C2F8883000BFBD467F
:101C80005DF8047B704700BF00ED00E0DFF834D062
:101C90000D480E490E4A002302E0D458C4500433C4
:101CA000C4188C42F9D30B4A0B4C002301E013609B
:101CB0000432A242FBD3FFF7D7FF04F0B1FAFEF7DC
:101CC00071FD70470000012000000020640000202A
:101CD00090790008640000204C050020FEE7000019
:101CE00080B500AF0E4B1B680D4A43F400731360C0
:101CF0000B4B1B680A4A43F480631360084B1B6854
:101D0000074A43F480731360032000F031FD0F2075
:101D100000F008F8FFF73EFC0023184680BD00BF26
:101D2000003C024080B582B000AF7860124B1A6868
:101D3000124B1B7819464FF47A73B3FBF1F3B2FBE5
:101D4000F3F3184600F049FD0346002B01D00123B0
:101D50000EE07B680F2B0AD8002279684FF0FF3025
:101D600000F011FD064A7B681360002300E00123A8
:101D700018460837BD4680BD00000020080000203E
:101D80000400002080B400AF064B1B781A46064BB7
:101D90001B681344044A136000BFBD465DF8047B12
:101DA000704700BF08000020D803002080B400AFB7
:101DB000034B1B681846BD465DF8047B704700BFA7
:101DC000D803002080B584B000AF7860FFF7EEFF45
:101DD000B8607B68FB60FB68B3F1FF3F05D00A4B3E
:101DE0001B781A46FB681344FB6000BFFFF7DEFF59
:101DF0000246BB68D31AFA689A42F7D800BF00BF00
:101E00001037BD4680BD00BF0800002080B584B0FB
:101E100000AF78600023FB737B68002B01D10123A6
:101E200033E07B681B6C002B09D17868FFF7DAFB85
:101E30007B6800225A647B68002283F83C207B6820
:101E40001B6C03F01003002B18D17B681B6C23F470
:101E5000885323F0020343F002027B681A64786817
:101E600000F0BAFA7B6800225A647B681B6C23F08E
:101E7000030343F001027B681A6401E00123FB7352
:101E80007B68002283F83C20FB7B18461037BD4658
:101E900080BD000080B485B000AF78600023BB60D7
:101EA0007B6893F83C30012B01D1022397E07B68DB
:101EB000012283F83C207B681B689B6803F00103C8
:101EC000012B18D07B681B689A687B681B6842F0FE
:101ED00001029A60454B1B68454AA2FB03239A0CFA
:101EE00013465B001344BB6002E0BB68013BBB6070
:101EF000BB68002BF9D17B681B689B6803F001036A
:101F0000012B5FD17B681B6C23F4E06323F001039A
:101F100043F480727B681A647B681B685B6803F417
:101F20008063002B07D07B681B6C23F4405343F481
:101F300080527B681A647B681B6C03F48053B3F592
:101F4000805F06D17B685B6C23F006027B685A6475
:101F500002E07B6800225A647B68002283F83C2000
:101F6000244BFB607B681B686FF022021A60FB68E1
:101F70005B6803F01F03002B0FD17B681B689B6815
:101F800003F04053002B29D17B681B689A687B685B
:101F90001B6842F080429A6020E07B681B68164A0A
:101FA00093421BD17B681B689B6803F04053002B56
:101FB00014D17B681B689A687B681B6842F080427A
:101FC0009A600BE07B681B6C43F010027B681A641C
:101FD0007B685B6C43F001027B685A6400231846FF
:101FE0001437BD465DF8047B704700BF0000002039
:101FF00083DE1B43002301400020014080B483B0F6
:1020000000AF78607B6893F83C30012B01D102234C
:1020100021E07B68012283F83C207B681B689A687A
:102020007B681B6822F001029A607B681B689B68D2
:1020300003F00103002B09D17B681B6C23F4885348
:1020400023F0010343F001027B681A647B680022DD
:1020500083F83C20002318460C37BD465DF8047B0E
:10206000704780B584B000AF786039600023FB60B2
:102070007B681B689B6803F48063B3F5806F13D1A2
:102080007B681B689B6803F48073B3F5807F0BD17A
:102090007B681B6C43F020027B681A647B6800221B
:1020A00083F83C20012363E0FFF780FEF86021E025
:1020B0003B68B3F1FF3F1DD03B68002B07D0FFF713
:1020C00075FE0246FB68D31A3A689A4212D27B68C0
:1020D0001B681B6803F00203022B0BD07B681B6C90
:1020E00043F004027B681A647B68002283F83C207A
:1020F00003233DE07B681B681B6803F00203022B8F
:10210000D6D17B681B686FF012021A607B681B6C6B
:1021100043F400727B681A647B681B689B6803F059
:102120004053002B23D17B681B7E002B1FD17B6883
:102130001B68DB6A03F47003002B06D07B681B6806
:102140009B6803F48063002B11D17B681B6C23F424
:1021500080727B681A647B681B6C03F48053002BCD
:1021600005D17B681B6C43F001027B681A64002375
:1021700018461037BD4680BD80B483B000AF78608C
:102180007B681B68DB6C18460C37BD465DF8047B2A
:102190007047000080B485B000AF786039600023DC
:1021A000BB607B6893F83C30012B01D1022305E131
:1021B0007B68012283F83C203B681B68092B25D9EA
:1021C0007B681B68D9683B681B689BB21A4613463C
:1021D0005B0013441E3B072202FA03F3DA437B68D9
:1021E0001B680A40DA607B681B68D9683B689A689C
:1021F0003B681B689BB2184603465B0003441E3BCA
:102200009A407B681B680A43DA6022E07B681B689F
:1022100019693B681B689BB21A4613465B0013445E
:10222000072202FA03F3DA437B681B680A401A614B
:102230007B681B6819693B689A683B681B689BB29E
:10224000184603465B0003449A407B681B680A43B8
:102250001A613B685B68062B24D87B681B68596B46
:102260003B685A6813469B001344053B1F2202FA41
:1022700003F3DA437B681B680A405A637B681B6878
:10228000596B3B681B689BB218463B685A681346FB
:102290009B001344053B00FA03F27B681B680A436A
:1022A0005A634CE03B685B680C2B24D87B681B6846
:1022B000196B3B685A6813469B001344233B1F224B
:1022C00002FA03F3DA437B681B680A401A637B68EF
:1022D0001B68196B3B681B689BB218463B685A68C1
:1022E00013469B001344233B00FA03F27B681B68F0
:1022F0000A431A6323E07B681B68D96A3B685A6803
:1023000013469B001344413B1F2202FA03F3DA43B6
:102310007B681B680A40DA627B681B68D96A3B6885
:102320001B689BB218463B685A6813469B001344CF
:10233000413B00FA03F27B681B680A43DA62224BD6
:10234000FB607B681B68214A934209D13B681B688C
:10235000122B05D1FB685B6843F48002FB685A606E
:102360007B681B68194A934223D13B681B68102B7A
:1023700003D03B681B68112B1BD1FB685B6843F4DF
:102380000002FB685A603B681B68102B11D1104B90
:102390001B68104AA2FB03239A0C13469B001344AC
:1023A0005B00BB6002E0BB68013BBB60BB68002B0D
:1023B000F9D17B68002283F83C20002318461437AB
:1023C000BD465DF8047B70470023014000200140BA
:1023D0000000002083DE1B4380B485B000AF78602E
:1023E000794BFB60FB685B6823F44032FB685A6002
:1023F000FB685A687B685B681A43FB685A607B68B5
:102400001B685A687B681B6822F480725A607B687C
:102410001B6859687B681B691A027B681B680A4342
:102420005A607B681B685A687B681B6822F04072A0
:102430005A607B681B6859687B689A687B681B6870
:102440000A435A607B681B689A687B681B6822F4A1
:1024500000629A607B681B6899687B68DA687B68B1
:102460001B680A439A607B689B6A584A934222D051
:102470007B681B689A687B681B6822F070629A60B0
:102480007B681B6899687B689A6A7B681B680A434B
:102490009A607B681B689A687B681B6822F04052D0
:1024A0009A607B681B6899687B68DA6A7B681B683E
:1024B0000A439A600FE07B681B689A687B681B6818
:1024C00022F070629A607B681B689A687B681B6860
:1024D00022F040529A607B681B689A687B681B6890
:1024E00022F002029A607B681B6899687B681B7EF9
:1024F0005A007B681B680A439A607B6893F8203017
:10250000002B1BD07B681B685A687B681B6842F4F1
:1025100000625A607B681B685A687B681B6822F4FB
:1025200060425A607B681B6859687B685B6A013B44
:102530005A037B681B680A435A6007E07B681B6884
:102540005A687B681B6822F400625A607B681B68CB
:10255000DA6A7B681B6822F47002DA627B681B68A7
:10256000D96A7B68DB69013B1A057B681B680A43F3
:10257000DA627B681B689A687B681B6822F40072C9
:102580009A607B681B6899687B6893F830305A02C0
:102590007B681B680A439A607B681B689A687B6843
:1025A0001B6822F480629A607B681B6899687B686C
:1025B0005B699A027B681B680A439A6000BF143704
:1025C000BD465DF8047B7047002301400100000F09
:1025D00080B485B000AF78607B6803F00703FB60D0
:1025E0000C4BDB68BB60BA684FF6FF031340BB605F
:1025F000FB681A02BB68134343F0BF6343F4003324
:10260000BB60044ABB68D36000BF1437BD465DF8A9
:10261000047B704700ED00E080B400AF044BDB6842
:102620001B0A03F007031846BD465DF8047B70479C
:1026300000ED00E080B483B000AF0346FB7197F972
:102640000730002B0BDBFB7903F01F02074997F9DA
:1026500007305B09012000FA02F241F8232000BF95
:102660000C37BD465DF8047B704700BF00E100E019
:1026700080B483B000AF03463960FB7197F907302F
:10268000002B0ADB3B68DAB20C4997F907301201DC
:10269000D2B20B4483F800230AE03B68DAB208495F
:1026A000FB7903F00F03043B1201D2B20B441A76FC
:1026B00000BF0C37BD465DF8047B704700E100E0C9
:1026C00000ED00E080B489B000AFF860B9607A60D6
:1026D000FB6803F00703FB61FB69C3F10703042BED
:1026E00028BF0423BB61FB690433062B02D9FB69B5
:1026F000033B00E000237B614FF0FF32BB6902FA2D
:1027000003F3DA43BB681A407B699A404FF0FF310C
:102710007B6901FA03F3D9437B680B4013431846E6
:102720002437BD465DF8047B7047000080B582B059
:1027300000AF78607B68013BB3F1807F01D3012358
:102740000FE00A4A7B68013B53600F214FF0FF30D6
:10275000FFF78EFF054B00229A60044B07221A6098
:10276000002318460837BD4680BD00BF10E000E0DA
:1027700080B582B000AF78607868FFF729FF00BFAE
:102780000837BD4680BD80B586B000AF0346B9604E
:102790007A60FB7300237B61FFF73EFF78617A6804
:1027A000B9687869FFF78EFF024697F90F30114636
:1027B0001846FFF75DFF00BF1837BD4680BD80B5E6
:1027C00082B000AF0346FB7197F907301846FFF758
:1027D00031FF00BF0837BD4680BD80B582B000AF75
:1027E00078607868FFF7A2FF034618460837BD46B1
:1027F00080BD000080B586B000AF786000237B61AB
:10280000FFF7D4FA38617B68002B01D1012399E0EE
:102810007B68022283F835207B68002283F834200D
:102820007B681B681A687B681B6822F001021A60CB
:102830000FE0FFF7BBFA02463B69D31A052B08D914
:102840007B6820225A657B68032283F835200323A6
:1028500078E07B681B681B6803F00103002BE8D15C
:102860007B681B681B687B617A69384B13407B610E
:102870007B685A687B689B681A437B68DB681A43ED
:102880007B681B691A437B685B691A437B689B6999
:102890001A437B68DB691A437B681B6A13437A69B6
:1028A00013437B617B685B6A042B07D17B68DA6A20
:1028B0007B681B6B13437A6913437B617B681B68DE
:1028C0007A691A607B681B685B697B617B6923F0AE
:1028D00007037B617B685B6A7A6913437B617B6872
:1028E0005B6A042B17D17B689B6A7A6913437B610F
:1028F0007B68DB6A002B0ED0786800F0E9F90346AC
:10290000002B08D07B6840225A657B68012283F83F
:102910003520012316E07B681B687A695A61786864
:1029200000F0A0F90346FB607B68DB6D3F229A4014
:10293000FB689A607B6800225A657B68012283F8F5
:102940003520002318461837BD4680BD3F8010F063
:1029500080B586B000AF78600023BB608E4B1B68EB
:102960008E4AA2FB03239B0A7B617B689B6D3B61C4
:102970003B691B68FB607B68DB6D08229A40FB6843
:102980001340002B1AD07B681B681B6803F00403FC
:10299000002B13D07B681B681A687B681B6822F0C9
:1029A00004021A607B68DB6D08229A403B699A60DA
:1029B0007B685B6D43F001027B685A657B68DB6D69
:1029C00001229A40FB681340002B12D07B681B68E1
:1029D0005B6903F08003002B0BD07B68DB6D012269
:1029E0009A403B699A607B685B6D43F002027B68AA
:1029F0005A657B68DB6D04229A40FB681340002B0C
:102A000012D07B681B681B6803F00203002B0BD0FD
:102A10007B68DB6D04229A403B699A607B685B6D42
:102A200043F004027B685A657B68DB6D10229A4094
:102A3000FB681340002B43D07B681B681B6803F0C6
:102A40000803002B3CD07B68DB6D10229A403B6969
:102A50009A607B681B681B6803F48023002B18D0E6
:102A60007B681B681B6803F40023002B08D17B687C
:102A70001B6C002B24D07B681B6C786898471FE088
:102A80007B689B6C002B1BD07B689B6C786898479D
:102A900016E07B681B681B6803F48073002B07D16A
:102AA0007B681B681A687B681B6822F008021A6042
:102AB0007B681B6C002B03D07B681B6C7868984785
:102AC0007B68DB6D20229A40FB681340002B00F0EE
:102AD0008F807B681B681B6803F01003002B00F0DD
:102AE00087807B68DB6D20229A403B699A607B6817
:102AF00093F83530DBB2052B36D17B681B681A683A
:102B00007B681B6822F016021A607B681B685A6992
:102B10007B681B6822F080025A617B681B6C002B6B
:102B200003D17B689B6C002B07D07B681B681A68FD
:102B30007B681B6822F008021A607B68DB6D3F220D
:102B40009A403B699A607B68012283F835207B6854
:102B5000002283F834207B681B6D002B7ED07B68BD
:102B60001B6D7868984779E07B681B681B6803F4E5
:102B70008023002B1DD07B681B681B6803F4002397
:102B8000002B0DD17B685B6C002B31D07B685B6CBC
:102B9000786898472CE000BF00000020B5814E1BEC
:102BA0007B68DB6B002B23D07B68DB6B78689847F6
:102BB0001EE07B681B681B6803F48073002B0FD139
:102BC0007B681B681A687B681B6822F010021A6019
:102BD0007B68012283F835207B68002283F834204B
:102BE0007B68DB6B002B03D07B68DB6B78689847D6
:102BF0007B685B6D002B32D07B685B6D03F001035B
:102C0000002B22D07B68052283F835207B681B6867
:102C10001A687B681B6822F001021A60BB680133E6
:102C2000BB607A699A4207D37B681B681B6803F014
:102C30000103002BF2D100E000BF7B68012283F882
:102C400035207B68002283F834207B68DB6C002B06
:102C500005D07B68DB6C7868984700E000BF1837C8
:102C6000BD4680BD80B485B000AF78607B681B68CE
:102C7000DBB2103B144AA2FB03231B09FB60134A7F
:102C8000FB6813441B781A467B68DA65FB68032BE4
:102C900009D97B681B6823F47F7323F003031A1D93
:102CA0007B689A6507E07B681B6823F47F7323F0D9
:102CB00003037A6893657B689B6D18461437BD469D
:102CC0005DF8047B704700BFABAAAAAA706B00082E
:102CD00080B485B000AF78600023FB737B689B6A8B
:102CE000BB607B689B69002B1FD1BB68032B56D848
:102CF00001A252F823F000BF092D00081B2D000887
:102D0000092D00089F2D00087B68DB6A03F08073A3
:102D1000002B46D00123FB7343E07B68DB6AB3F1F1
:102D2000C07F40D10123FB733DE07B689B69B3F515
:102D3000005F21D1BB68032B37D801A252F823F0E2
:102D4000512D0008572D0008512D0008692D00084D
:102D50000123FB7330E07B68DB6A03F08073002B98
:102D600025D00123FB7322E07B68DB6AB3F1C07FCF
:102D70001FD10123FB731CE0BB68022B03D9BB6886
:102D8000032B03D018E00123FB7315E07B68DB6A9B
:102D900003F08073002B0ED00123FB730BE000BF08
:102DA0000AE000BF08E000BF06E000BF04E000BF8B
:102DB00002E000BF00E000BFFB7B18461437BD46B1
:102DC0005DF8047B704700BF80B489B000AF7860C5
:102DD000396000237B6100233B610023BB6100233A
:102DE000FB6159E10122FB6902FA03F37B613B6855
:102DF0001B687A6913403B613A697B699A4240F0EB
:102E000048813B685B6803F00303012B05D03B68F6
:102E10005B6803F00303022B30D17B689B68BB61C6
:102E2000FB695B00032202FA03F3DB43BA69134038
:102E3000BB613B68DA68FB695B0002FA03F3BA69BD
:102E40001343BB617B68BA699A607B685B68BB614E
:102E50000122FB6902FA03F3DB43BA691340BB6149
:102E60003B685B681B0903F00102FB6902FA03F38C
:102E7000BA691343BB617B68BA695A603B685B6897
:102E800003F00303032B17D07B68DB68BB61FB698E
:102E90005B00032202FA03F3DB43BA691340BB6110
:102EA0003B689A68FB695B0002FA03F3BA69134353
:102EB000BB617B68BA69DA603B685B6803F0030357
:102EC000022B23D1FB69DA087B68083253F82230E1
:102ED000BB61FB6903F007039B000F2202FA03F3B7
:102EE000DB43BA691340BB613B681A69FB6903F0B5
:102EF00007039B0002FA03F3BA691343BB61FB6942
:102F0000DA087B680832B96943F822107B681B68CD
:102F1000BB61FB695B00032202FA03F3DB43BA697E
:102F20001340BB613B685B6803F00302FB695B0015
:102F300002FA03F3BA691343BB617B68BA691A608A
:102F40003B685B6803F44033002B00F0A280002351
:102F5000FB60574B5B6C564A43F480435364544BBD
:102F60005B6C03F48043FB60FB68524AFB699B087F
:102F7000023352F82330BB61FB6903F003039B006B
:102F80000F2202FA03F3DB43BA691340BB617B688B
:102F9000494A934219D07B68484A934213D07B68D0
:102FA000474A93420DD07B68464A934207D07B68DC
:102FB000454A934201D1042308E0072306E0032396
:102FC00004E0022302E0012300E00023FA6902F09A
:102FD000030292009340BA691343BB613549FB6910
:102FE0009B080233BA6941F82320384B9B68BB61C8
:102FF0003B69DB43BA691340BB613B685B6803F420
:103000008013002B03D0BA693B691343BB612F4A7D
:10301000BB6993602D4BDB68BB613B69DB43BA69DD
:103020001340BB613B685B6803F40013002B03D0C3
:10303000BA693B691343BB61244ABB69D360234B24
:103040005B68BB613B69DB43BA691340BB613B68AA
:103050005B6803F40033002B03D0BA693B69134368
:10306000BB611A4ABB695360184B1B68BB613B6963
:10307000DB43BA691340BB613B685B6803F4803390
:10308000002B03D0BA693B691343BB610F4ABB698C
:103090001360FB690133FB61FB690F2B7FF6A2AE66
:1030A00000BF00BF2437BD465DF8047B704700BFFA
:1030B0000038024000380140000002400004024095
:1030C00000080240000C024000100240003C014099
:1030D00080B485B000AF78600B467B807B681A694E
:1030E0007B881340002B02D00123FB7301E00023F7
:1030F000FB73FB7B18461437BD465DF8047B7047B5
:1031000080B483B000AF78600B467B8013467B7041
:103110007B78002B03D07A887B689A6103E07B88F8
:103120001A047B689A6100BF0C37BD465DF8047BCA
:103130007047000080B582B000AF0346FB80084BAB
:103140005A69FB881340002B06D0054AFB8853615F
:10315000FB881846FDF722FA00BF0837BD4680BD40
:10316000003C014080B584B000AF78607B68002BE4
:1031700001D101232BE17B6893F83D30DBB2002BBA
:1031800006D17B68002283F83C207868FEF76EFA4F
:103190007B68242283F83D207B681B681A687B6863
:1031A0001B6822F001021A607B681B681A687B6842
:1031B0001B6842F400421A607B681B681A687B68CF
:1031C0001B6822F400421A6000F0A6FDF8607B68DC
:1031D0005B68814A934207D8FB68804A934294BF58
:1031E00001230023DBB206E0FB687D4A934294BFD3
:1031F00001230023DBB2002B01D00123E7E0FB68B1
:10320000784AA2FB03239B0CBB607B681B685B684E
:1032100023F03F017B681B68BA680A435A607B68E9
:103220001B681B6A23F03F017B685B686A4A934214
:1032300002D8BB68013309E0BB684FF4967202FB09
:1032400003F3694AA2FB03239B0901337A681268DE
:103250000B4313627B681B68DB6923F44F4222F047
:10326000FF027B685B685C498B4219D8FB68591E7A
:103270007B685B685B00B1FBF3F3591C40F6FC73A1
:103280000B40002B0AD0FB68591E7B685B685B0013
:10329000B1FBF3F30133C3F30B0351E004234FE01D
:1032A0007B689B68002B11D1FB68581E7B685968AE
:1032B0000B465B000B44B0FBF3F30133C3F30B038A
:1032C000002B0CBF01230023DBB212E0FB68581E69
:1032D0007B6859680B469B000B4499000B44B0FB7C
:1032E000F3F30133C3F30B03002B0CBF01230023C3
:1032F000DBB2002B01D0012322E07B689B68002B0E
:103300000ED1FB68581E7B6859680B465B000B4466
:10331000B0FBF3F30133C3F30B0343F400430FE0BB
:10332000FB68581E7B6859680B469B000B4499004C
:103330000B44B0FBF3F30133C3F30B0343F44043FB
:10334000796809681343CB617B681B681B6823F0AD
:10335000C0017B68DA697B681B6A1A437B681B685B
:103360000A431A607B681B689B6823F4034323F0BD
:10337000FF037A6811697A68D26811437A68126823
:103380000B4393607B681B68DB6823F0FF017B685D
:103390005A697B689B691A437B681B680A43DA6039
:1033A0007B681B681A687B681B6842F001021A6020
:1033B0007B6800221A647B68202283F83D207B68AA
:1033C00000221A637B68002283F83E2000231846FF
:1033D0001037BD4680BD00BFA08601007F841E005F
:1033E000FF083D0083DE1B43D34D621080B483B0E1
:1033F00000AF7860054B5A6804497B6813434B6003
:1034000000BF0C37BD465DF8047B7047007000407C
:1034100080B483B000AF7860064B5A687B68DB43AA
:10342000044913404B6000BF0C37BD465DF8047B78
:10343000704700BF0070004080B586B000AF786074
:103440007B68002B01D1012367E27B681B6803F0D6
:103450000103002B75D0884B9B6803F00C03042BF1
:103460000CD0854B9B6803F00C03082B12D1824BC8
:103470005B6803F48003B3F5800F0BD17E4B1B68B0
:1034800003F40033002B5BD07B685B68002B57D1C3
:10349000012342E27B685B68B3F5803F06D1764B3F
:1034A0001B68754A43F4803313601DE07B685B68DA
:1034B000B3F5A02F0CD1704B1B686F4A43F48023E7
:1034C00013606D4B1B686C4A43F4803313600BE050
:1034D000694B1B68684A23F480331360664B1B6892
:1034E000654A23F4802313607B685B68002B13D04C
:1034F000FEF75CFC386108E0FEF758FC02463B69C9
:10350000D31A642B01D9032307E25B4B1B6803F436
:103510000033002BF0D014E0FEF748FC386108E0DF
:10352000FEF744FC02463B69D31A642B01D90323FE
:10353000F3E1514B1B6803F40033002BF0D100E0A2
:1035400000BF7B681B6803F00203002B63D04A4B6B
:103550009B6803F00C03002B0BD0474B9B6803F0D8
:103560000C03082B1CD1444B5B6803F48003002B35
:1035700016D1414B1B6803F00203002B05D07B687A
:10358000DB68012B01D00123C7E13B4B1B6823F013
:10359000F8027B681B69DB00374913430B603AE094
:1035A0007B68DB68002B20D0344B01221A60FEF7C9
:1035B000FDFB386108E0FEF7F9FB02463B69D31AD0
:1035C000022B01D90323A8E12B4B1B6803F0020354
:1035D000002BF0D0284B1B6823F0F8027B681B6996
:1035E000DB00254913430B6015E0244B00221A60D1
:1035F000FEF7DCFB386108E0FEF7D8FB02463B69CA
:10360000D31A022B01D9032387E11B4B1B6803F05C
:103610000203002BF0D17B681B6803F00803002B2A
:1036200036D07B685B69002B16D0154B01221A60DF
:10363000FEF7BCFB386108E0FEF7B8FB02463B69C9
:10364000D31A022B01D9032367E10B4B5B6F03F005
:103650000203002BF0D01BE0094B00221A60FEF79A
:10366000A5FB38610EE0FEF7A1FB02463B69D31AC9
:10367000022B07D9032350E10038024000004742E3
:10368000800E4742884B5B6F03F00203002BEAD1A8
:103690007B681B6803F00403002B00F09780002375
:1036A000FB75814B1B6C03F08053002B0FD1002363
:1036B000BB607D4B1B6C7C4A43F0805313647A4B98
:1036C0001B6C03F08053BB60BB680123FB75774B19
:1036D0001B6803F48073002B18D1744B1B68734A6A
:1036E00043F480731360FEF761FB386108E0FEF776
:1036F0005DFB02463B69D31A022B01D903230CE17F
:103700006A4B1B6803F48073002BF0D07B689B68C6
:10371000012B06D1644B1B6F634A43F0010313670F
:103720001CE07B689B68052B0CD15F4B1B6F5E4ACE
:1037300043F0040313675C4B1B6F5B4A43F00103C8
:1037400013670BE0584B1B6F574A23F001031367B5
:10375000554B1B6F544A23F0040313677B689B6827
:10376000002B15D0FEF722FB38610AE0FEF71EFBA6
:1037700002463B69D31A41F28832934201D90323AE
:10378000CBE0494B1B6F03F00203002BEED014E09B
:10379000FEF70CFB38610AE0FEF708FB02463B69C6
:1037A000D31A41F28832934201D90323B5E03E4B4C
:1037B0001B6F03F00203002BEED1FB7D012B05D123
:1037C000394B1B6C384A23F0805313647B689B6928
:1037D000002B00F0A180344B9B6803F00C03082BF6
:1037E0005CD07B689B69022B41D1314B00221A606F
:1037F000FEF7DCFA386108E0FEF7D8FA02463B69CA
:10380000D31A022B01D9032387E0274B1B6803F04F
:103810000073002BF0D17B68DA697B681B6A1A435E
:103820007B685B6A9B011A437B689B6A5B08013B70
:103830001B041A437B68DB6A1B061B4913434B605E
:103840001B4B01221A60FEF7B1FA386108E0FEF75F
:10385000ADFA02463B69D31A022B01D903235CE07F
:10386000114B1B6803F00073002BF0D054E0104B99
:1038700000221A60FEF79AFA386108E0FEF796FA1D
:1038800002463B69D31A022B01D9032345E0064BBC
:103890001B6803F00073002BF0D13DE07B689B694F
:1038A000012B07D1012338E00038024000700040AE
:1038B000600047421B4B5B68FB607B689B69012B88
:1038C00028D0FB6803F480027B68DB699A4221D12F
:1038D000FB6803F03F027B681B6A9A421AD1FA68C0
:1038E00047F6C07313407A68526A9201934211D12D
:1038F000FB6803F440327B689B6A5B08013B1B0456
:103900009A4207D1FB6803F070627B68DB6A1B0692
:103910009A4201D0012300E0002318461837BD4623
:1039200080BD00BF0038024080B584B000AF786031
:1039300039607B68002B01D10123CCE0684B1B6808
:1039400003F007033A689A420CD9654B3A68D2B241
:103950001A70634B1B6803F007033A689A4201D060
:103960000123B8E07B681B6803F00203002B20D022
:103970007B681B6803F00403002B05D0594B9B6840
:10398000584A43F4E05393607B681B6803F00803D4
:10399000002B05D0534B9B68524A43F4604393601D
:1039A000504B9B6823F0F0027B689B684D491343A2
:1039B0008B607B681B6803F00103002B44D07B689D
:1039C0005B68012B07D1474B1B6803F40033002BC6
:1039D00019D101237FE07B685B68022B03D07B68F1
:1039E0005B68032B07D13F4B1B6803F00073002B70
:1039F00009D101236FE03B4B1B6803F00203002B4E
:103A000001D1012367E0374B9B6823F003027B68F9
:103A10005B68344913438B60FEF7C8F9F8600AE02D
:103A2000FEF7C4F90246FB68D31A41F2883293428A
:103A300001D903234FE02B4B9B6803F00C027B68FA
:103A40005B689B009A42EBD1254B1B6803F0070390
:103A50003A689A420CD2224B3A68D2B21A70204B82
:103A60001B6803F007033A689A4201D0012332E051
:103A70007B681B6803F00403002B08D0194B9B687C
:103A800023F4E0527B68DB68164913438B607B6844
:103A90001B6803F00803002B09D0124B9B6823F42A
:103AA00060427B681B69DB000E4913438B6000F0AA
:103AB00021F802460B4B9B681B0903F00F030A49D0
:103AC000CB5C22FA03F3094A1360094B1B681846C2
:103AD000FEF728F9002318461037BD4680BD00BF09
:103AE000003C024000380240586B000800000020F3
:103AF000040000202DE9B04F94B000AF00237B6498
:103B00000023FB6400233B640023BB64794B9B6868
:103B100003F00C03082B0DD0082B00F2E180002BE2
:103B200002D0042B03D0DBE0734BBB64DBE0734BB0
:103B3000BB64D8E06F4B5B6803F03F037B646D4B65
:103B40005B6803F48003002B63D06A4B5B689B09BE
:103B50000022BB63FA63BB6BC3F308033B63002320
:103B60007B63D7E90C4522462B464FF000004FF00F
:103B70000001590141EAD261500102460B4621463B
:103B8000511A3961294663EB01037B614FF0000252
:103B90004FF00003D7E904AB59468B01514643EA85
:103BA000916351468A015146B2EB0108594663EBD5
:103BB00001094FF000024FF000034FEAC90343EA46
:103BC00058734FEAC80290469946234618EB030300
:103BD000BB602B4649EB0303FB604FF000024FF044
:103BE0000003D7E9024529464B02214643EAD15357
:103BF00021464A02104619467B6C0022BB62FA62DB
:103C0000D7E90A23FCF73CFB02460B461346FB644C
:103C100058E0384B5B689B09002218461146C0F3F8
:103C200008033B6200237B62D7E9088942464B4682
:103C30004FF000004FF00001590141EAD2615001FC
:103C400002460B464146B2EB010A494663EB010BC3
:103C50004FF000024FF000034FEA8B1343EA9A63E0
:103C60004FEA8A12B2EB0A0463EB0B054FF0000235
:103C70004FF00003EB0043EA5473E20014461D4684
:103C80004346E3183B604B4645EB03037B604FF034
:103C900000024FF00003D7E9004529468B02214678
:103CA00043EA915321468A02104619467B6C002252
:103CB000BB61FA61D7E90623FCF7E2FA02460B463C
:103CC0001346FB640B4B5B681B0C03F003030133CF
:103CD0005B003B64FA6C3B6CB2FBF3F3BB6402E049
:103CE000054BBB6400BFBB6C18465037BD46BDE8F2
:103CF000B08F00BF003802400024F40000127A00A8
:103D000080B400AF034B1B681846BD465DF8047BCA
:103D1000704700BF0000002080B500AFFFF7F0FF44
:103D20000246054B9B689B0A03F007030349CB5CE3
:103D300022FA03F3184680BD00380240686B000881
:103D400080B586B000AF786000237B6100233B61C3
:103D50007B681B6803F00103002B05D17B681B689F
:103D600003F00403002B35D0674B00221A60FEF7E6
:103D70001DF8786108E0FEF719F802467B69D31A4E
:103D8000022B01D90323BAE0604B1B6803F00063E8
:103D9000002BF0D17B685B689A017B689B681B07EE
:103DA0005A491343C1F88430574B01221A60FDF77A
:103DB000FDFF786108E0FDF7F9FF02467B69D31A41
:103DC000022B01D903239AE0504B1B6803F00063D8
:103DD000002BF0D07B681B6803F00203002B00F07F
:103DE00083800023FB60494B1B6C484A43F080539F
:103DF0001364464B1B6C03F08053FB60FB68444B21
:103E00001B68434A43F480731360FDF7CFFF78616A
:103E100008E0FDF7CBFF02467B69D31A022B01D9DC
:103E200003236CE03A4B1B6803F48073002BF0D043
:103E3000364B1B6F03F440733B613B69002B2FD063
:103E40007B68DB6803F440733A699A4228D02F4BB1
:103E50001B6F23F440733B612E4B01221A602D4BE4
:103E600000221A60294A3B691367284B1B6F03F035
:103E70000103012B14D1FDF799FF78610AE0FDF7EA
:103E800095FF02467B69D31A41F28832934201D9E9
:103E9000032334E01D4B1B6F03F00203002BEED015
:103EA0007B68DB6803F44073B3F5407F0DD1174B9B
:103EB0009B6823F4F8127B68DB6823F0704323F4DB
:103EC0004073124913438B6005E0104B9B680F4A07
:103ED00023F4F81393600D4B1A6F7B68DB68C3F310
:103EE0000B030A4913430B677B681B6803F0080345
:103EF000002B03D07B681A7C074B1A6000231846FE
:103F00001837BD4680BD00BF6800474200380240F8
:103F100000700040400E4742E011474280B584B037
:103F200000AF78600123FB737B68002B01D1012374
:103F300066E07B685B7FDBB2002B05D17B680022EB
:103F40001A777868FDF7DAFB7B6802225A777B687C
:103F50001B68CA225A627B681B6853225A627868BF
:103F600000F07AF80346FB73FB7B002B2CD17B68B7
:103F70001B689B687A68126823F4E00323F040030F
:103F800093607B681B6899687B685A687B681B69CB
:103F90001A437B685B691A437B681B680A439A6013
:103FA0007B681B687A68D2681A617B681B6819692C
:103FB0007B689B681A047B681B680A431A617868EF
:103FC00000F081F80346FB73FB7B002B13D17B6869
:103FD0001B681A6C7B681B6822F480221A647B6859
:103FE0001B68196C7B689A697B681B680A431A64B2
:103FF0007B6801225A777B681B68FF225A62FB7B31
:1040000018461037BD4680BD80B584B000AF7860DB
:104010000023FB607B681B68DA687B681B6822F002
:10402000A002DA60FDF7C2FEF86009E0FDF7BEFE0F
:104030000246FB68D31AB3F57A7F01D9032307E060
:104040007B681B68DB6803F02003002BEED00023A5
:1040500018461037BD4680BD80B584B000AF78608B
:104060000023BB600023FB737B681B68DB6803F0E5
:104070004003002B22D17B681B68DA687B681B68D1
:1040800042F08002DA60FDF791FEB8600CE0FDF7C7
:104090008DFE0246BB68D31AB3F57A7F04D97B68DC
:1040A00004225A770123FB737B681B68DB6803F0EB
:1040B0004003002B02D1FB7B012BE8D1FB7B184690
:1040C0001037BD4680BD80B584B000AF7860002356
:1040D000FB737B681B68DA687B681B6822F08002D0
:1040E000DA607B681B689B6803F02003002B0AD111
:1040F0007868FFF789FF0346002B04D07B68042211
:104100005A770123FB73FB7B18461037BD4680BDF1
:1041100080B582B000AF78607B68002B01D10123AD
:104120007BE07B685B6A002B08D17B685B68B3F53A
:10413000827F09D07B680022DA6105E07B6800227B
:104140001A617B6800225A617B6800229A627B6850
:1041500093F85130DBB2002B06D17B68002283F844
:1041600050207868FDF7F6FA7B68022283F8512028
:104170007B681B681A687B681B6822F040021A6023
:104180007B685B6803F482727B689B6803F404437A
:104190001A437B68DB6803F400631A437B681B697E
:1041A00003F002031A437B685B6903F001031A43BF
:1041B0007B689B6903F400731A437B68DB6903F037
:1041C00038031A437B681B6A03F0800342EA030149
:1041D0007B689B6A03F400527B681B680A431A6081
:1041E0007B689B691B0C03F004017B685B6A03F02E
:1041F00010027B681B680A435A607B681B68DA6997
:104200007B681B6822F40062DA617B6800225A65D1
:104210007B68012283F85120002318460837BD46E9
:1042200080BD80B588B000AFF860B9603B601346D0
:10423000FB800023FB77FB6893F85030012B01D102
:10424000022326E1FB68012283F85020FDF7AEFD32
:10425000B861FB88FB82FB6893F85130DBB2012B1D
:1042600002D00223FB770BE1BB68002B02D0FB8856
:10427000002B02D10123FB7702E1FB68032283F8C4
:104280005120FB6800225A65FB68BA681A63FB6814
:10429000FA889A86FB68FA88DA86FB6800229A63B5
:1042A000FB6800229A87FB680022DA87FB680022FD
:1042B0005A64FB6800221A64FB689B68B3F5004FE0
:1042C0000FD1FB681B681A68FB681B6822F040026C
:1042D0001A60FB681B681A68FB681B6842F480421E
:1042E0001A60FB681B681B6803F04003402B07D073
:1042F000FB681B681A68FB681B6842F040021A6082
:10430000FB68DB68B3F5006F4BD1FB685B68002B83
:1043100002D0FB8A012B3ED1FB681B6B1A88FB681D
:104320001B68DA60FB681B6B9A1CFB681A63FB68EE
:10433000DB8E9BB2013B9AB2FB68DA862BE0FB680E
:104340001B689B6803F00203022B12D1FB681B6BF6
:104350001A88FB681B68DA60FB681B6B9A1CFB6899
:104360001A63FB68DB8E9BB2013B9AB2FB68DA866C
:1043700011E0FDF71BFD0246BB69D31A3A689A4269
:1043800003D83B68B3F1FF3F02D13B68002B02D159
:104390000323FB7774E0FB68DB8E9BB2002BCED14E
:1043A0004CE0FB685B68002B02D0FB8A012B40D1FC
:1043B000FB681A6BFB681B680C3312781A70FB6879
:1043C0001B6B5A1CFB681A63FB68DB8E9BB2013BBC
:1043D0009AB2FB68DA862CE0FB681B689B6803F0E6
:1043E0000203022B13D1FB681A6BFB681B680C33AA
:1043F00012781A70FB681B6B5A1CFB681A63FB6807
:10440000DB8E9BB2013B9AB2FB68DA8611E0FDF7C6
:10441000CDFC0246BB69D31A3A689A4203D83B687E
:10442000B3F1FF3F02D13B68002B02D10323FB779E
:1044300026E0FB68DB8E9BB2002BCDD1BA693968D0
:10444000F86800F055FA0346002B02D0FB682022E2
:104450005A65FB689B68002B0AD100233B61FB680F
:104460001B68DB683B61FB681B689B683B613B69C1
:10447000FB685B6D002B02D00123FB7700E000BFDF
:10448000FB68012283F85120FB68002283F850204A
:10449000FB7F18462037BD4680BD80B58CB000AF8D
:1044A000F860B9607A607B800123FB62002387F8A3
:1044B0002B30FB6893F85030012B01D102238AE1A5
:1044C000FB68012283F85020FDF770FC7862FB68DE
:1044D00093F8513087F82330FB685B68FB617B8879
:1044E0007B8397F82330012B0FD0FB69B3F5827FD4
:1044F00007D1FB689B68002B03D197F82330042B6E
:1045000003D0022387F82B305BE1BB68002B05D07A
:104510007B68002B02D07B88002B03D1012387F816
:104520002B304EE1FB6893F85130DBB2042B03D003
:10453000FB68052283F85120FB6800225A65FB685E
:104540007A689A63FB687A88DA87FB687A889A8740
:10455000FB68BA681A63FB687A88DA86FB687A882F
:104560009A86FB6800221A64FB6800225A64FB6882
:104570001B681B6803F04003402B07D0FB681B68D7
:104580001A68FB681B6842F040021A60FB68DB682F
:10459000B3F5006F78D1FB685B68002B02D07B8B92
:1045A000012B66D1FB681B6B1A88FB681B68DA60FD
:1045B000FB681B6B9A1CFB681A63FB68DB8E9BB263
:1045C000013B9AB2FB68DA8653E0FB681B689B6884
:1045D00003F00203022B1BD1FB68DB8E9BB2002B86
:1045E00016D0FB6A012B13D1FB681B6B1A88FB6882
:1045F0001B68DA60FB681B6B9A1CFB681A63FB681C
:10460000DB8E9BB2013B9AB2FB68DA860023FB6229
:10461000FB681B689B6803F00103012B19D1FB6841
:10462000DB8F9BB2002B14D0FB681B68DA68FB6839
:104630009B6B92B21A80FB689B6B9A1CFB689A6317
:10464000FB68DB8F9BB2013B9AB2FB68DA870123E0
:10465000FB62FDF7ABFB02467B6AD31ABA6B9A4248
:1046600007D8BB6BB3F1FF3F03D0032387F82B3090
:10467000A7E0FB68DB8E9BB2002BA6D1FB68DB8F2B
:104680009BB2002BA1D17CE0FB685B68002B02D0C1
:104690007B8B012B6BD1FB681A6BFB681B680C339F
:1046A00012781A70FB681B6B5A1CFB681A63FB6854
:1046B000DB8E9BB2013B9AB2FB68DA8657E0FB685F
:1046C0001B689B6803F00203022B1CD1FB68DB8E86
:1046D0009BB2002B17D0FB6A012B14D1FB681A6B1D
:1046E000FB681B680C3312781A70FB681B6B5A1C32
:1046F000FB681A63FB68DB8E9BB2013B9AB2FB68D6
:10470000DA860023FB62FB681B689B6803F00103E9
:10471000012B19D1FB68DB8F9BB2002B14D0FB68F7
:104720001B68DA68FB689B6BD2B21A70FB689B6BE4
:104730005A1CFB689A63FB68DB8F9BB2013B9AB201
:10474000FB68DA870123FB62FDF730FB02467B6AD8
:10475000D31ABA6B9A4203D8BB6BB3F1FF3F02D1B5
:10476000BB6B002B03D1032387F82B3029E0FB68B8
:10477000DB8E9BB2002BA2D1FB68DB8F9BB2002BA0
:104780009DD17A6AB96BF86800F0B2F80346002B45
:1047900006D0012387F82B30FB6820225A6510E0F1
:1047A000FB689B68002B0BD100237B61FB681B68B7
:1047B000DB687B61FB681B689B687B617B6900E051
:1047C00000BFFB68012283F85120FB68002283F8B8
:1047D000502097F82B3018463037BD4680BD00007A
:1047E00080B588B000AFF860B9603B601346FB71DC
:1047F000FDF7DCFA0246BB6A9B1A3A681344FB6178
:10480000FDF7D4FAB861394B1B685B011B0DFA69DF
:1048100002FB03F37B6154E03B68B3F1FF3F50D0F0
:10482000FDF7C4FA0246BB69D31AFA699A4202D963
:10483000FB69002B3DD1FB681B685A68FB681B684D
:1048400022F0E0025A60FB685B68B3F5827F11D109
:10485000FB689B68B3F5004F04D0FB689B68B3F519
:10486000806F07D1FB681B681A68FB681B6822F021
:1048700040021A60FB689B6AB3F5005F0FD1FB68CA
:104880001B681A68FB681B6822F400521A60FB68F8
:104890001B681A68FB681B6842F400521A60FB68C8
:1048A000012283F85120FB68002283F85020032363
:1048B00017E07B69002B01D10023FB617B69013B81
:1048C0007B61FB681B689A68BB681340BA689A42B0
:1048D0000CBF01230023DBB21A46FB799A429BD11D
:1048E000002318462037BD4680BD00BF00000020D1
:1048F00080B588B002AFF860B9607A601B4B1B6866
:104900001B4AA2FB03235B0D4FF47A7202FB03F3F5
:104910007B61FB685B68B3F5827F12D17B68009393
:10492000BB6800228021F868FFF75AFF0346002B7E
:1049300016D0FB685B6D43F02002FB685A650323C9
:104940000FE07B69002B0AD07B69013B7B61FB6830
:104950001B689B6803F08003802BF2D000E000BF4F
:10496000002318461837BD4680BD00BF0000002058
:10497000819F5E1680B582B000AF78607B68002BA7
:1049800001D1012341E07B6893F83D30DBB2002B7D
:1049900006D17B68002283F83C207868FCF786FF0C
:1049A0007B68022283F83D207B681A687B680433A9
:1049B0001946104600F05EFC7B68012283F8462011
:1049C0007B68012283F83E207B68012283F83F2028
:1049D0007B68012283F840207B68012283F8412014
:1049E0007B68012283F842207B68012283F8432000
:1049F0007B68012283F844207B68012283F84520EC
:104A00007B68012283F83D20002318460837BD4605
:104A100080BD000080B485B000AF78607B6893F8FB
:104A20003D30DBB2012B01D0012344E07B68022240
:104A300083F83D207B681B68DA687B681B6842F05E
:104A40000102DA607B681B681E4A934218D07B68BB
:104A50001B68B3F1804F13D07B681B681A4A9342DE
:104A60000ED07B681B68194A934209D07B681B688B
:104A7000174A934204D07B681B68164A934211D1AF
:104A80007B681B689B6803F00703FB60FB68062BD1
:104A900010D07B681B681A687B681B6842F00102B3
:104AA0001A6007E07B681B681A687B681B6842F025
:104AB00001021A60002318461437BD465DF8047BD6
:104AC000704700BF000001400004004000080040A3
:104AD000000C00400040014080B582B000AF78601B
:104AE0007B68002B01D1012341E07B6893F83D30C6
:104AF000DBB2002B06D17B68002283F83C2078686B
:104B000000F039F87B68022283F83D207B681A6840
:104B10007B6804331946104600F0ACFB7B68012229
:104B200083F846207B68012283F83E207B680122BF
:104B300083F83F207B68012283F840207B680122B4
:104B400083F841207B68012283F842207B680122A0
:104B500083F843207B68012283F844207B6801228C
:104B600083F845207B68012283F83D200023184606
:104B70000837BD4680BD80B483B000AF786000BF09
:104B80000C37BD465DF8047B7047000080B584B0EB
:104B900000AF786039603B68002B09D17B6893F8DF
:104BA0003E30DBB2012B14BF01230023DBB222E035
:104BB0003B68042B09D17B6893F83F30DBB2012BB3
:104BC00014BF01230023DBB215E03B68082B09D199
:104BD0007B6893F84030DBB2012B14BF0123002324
:104BE000DBB208E07B6893F84130DBB2012B14BFE5
:104BF00001230023DBB2002B01D0012368E03B68D6
:104C0000002B04D17B68022283F83E2013E03B682E
:104C1000042B04D17B68022283F83F200BE03B6821
:104C2000082B04D17B68022283F8402003E07B68D4
:104C3000022283F841207B681B68012239681846EC
:104C400000F0BEFD7B681B68234A934207D17B6856
:104C50001B685A6C7B681B6842F400425A647B688C
:104C60001B681D4A934218D07B681B68B3F1804FC4
:104C700013D07B681B68194A93420ED07B681B686F
:104C8000174A934209D07B681B68164A934204D0A6
:104C90007B681B68144A934211D17B681B689B6830
:104CA00003F00703FB60FB68062B10D07B681B68D2
:104CB0001A687B681B6842F001021A6007E07B6893
:104CC0001B681A687B681B6842F001021A600023A7
:104CD00018461037BD4680BD00000140000400406A
:104CE00000080040000C00400040014080B582B048
:104CF00000AF78607B681B681B6903F00203022B1E
:104D000022D17B681B68DB6803F00203022B1BD1F6
:104D10007B681B686FF002021A617B6801221A77B8
:104D20007B681B689B6903F00303002B03D0786842
:104D300000F081FA05E0786800F073FA786800F016
:104D400084FA7B6800221A777B681B681B6903F072
:104D50000403042B22D17B681B68DB6803F0040387
:104D6000042B1BD17B681B686FF004021A617B68FF
:104D700002221A777B681B689B6903F44073002B3F
:104D800003D0786800F057FA05E0786800F049FA37
:104D9000786800F05AFA7B6800221A777B681B68F3
:104DA0001B6903F00803082B22D17B681B68DB68B2
:104DB00003F00803082B1BD17B681B686FF0080207
:104DC0001A617B6804221A777B681B68DB6903F031
:104DD0000303002B03D0786800F02DFA05E0786813
:104DE00000F01FFA786800F030FA7B6800221A772A
:104DF0007B681B681B6903F01003102B22D17B68B2
:104E00001B68DB6803F01003102B1BD17B681B6849
:104E10006FF010021A617B6808221A777B681B68A2
:104E2000DB6903F44073002B03D0786800F003FAC9
:104E300005E0786800F0F5F9786800F006FA7B681C
:104E400000221A777B681B681B6903F00103012BA2
:104E50000ED17B681B68DB6803F00103012B07D1CF
:104E60007B681B686FF001021A61786800F0CFF967
:104E70007B681B681B6903F08003802B0ED17B6865
:104E80001B68DB6803F08003802B07D17B681B68FD
:104E90006FF080021A61786800F082FD7B681B6801
:104EA0001B6903F04003402B0ED17B681B68DB6855
:104EB00003F04003402B07D17B681B686FF0400272
:104EC0001A61786800F0CBF97B681B681B6903F0F6
:104ED0002003202B0ED17B681B68DB6803F02003C6
:104EE000202B07D17B681B686FF020021A6178685D
:104EF00000F04CFD00BF0837BD4680BD80B586B0D0
:104F000000AFF860B9607A600023FB75FB6893F826
:104F10003C30012B01D10223AEE0FB68012283F873
:104F20003C207B680C2B00F29F8001A252F823F0FA
:104F3000654F000869500008695000086950000872
:104F4000A54F000869500008695000086950000822
:104F5000E74F0008695000086950000869500008D0
:104F600027500008FB681B68B968184600F002FA71
:104F7000FB681B689A69FB681B6842F008029A612B
:104F8000FB681B689A69FB681B6822F004029A613F
:104F9000FB681B689969BB681A69FB681B680A4350
:104FA0009A6164E0FB681B68B968184600F048FA2B
:104FB000FB681B689A69FB681B6842F400629A618F
:104FC000FB681B689A69FB681B6822F480629A611F
:104FD000FB681B689969BB681B691A02FB681B6840
:104FE0000A439A6143E0FB681B68B968184600F001
:104FF00093FAFB681B68DA69FB681B6842F00802D9
:10500000DA61FB681B68DA69FB681B6822F004023E
:10501000DA61FB681B68D969BB681A69FB681B68A1
:105020000A43DA6123E0FB681B68B968184600F0A0
:10503000DDFAFB681B68DA69FB681B6842F40062F2
:10504000DA61FB681B68DA69FB681B6822F480621E
:10505000DA61FB681B68D969BB681B691A02FB68C7
:105060001B680A43DA6102E00123FB7500BFFB689D
:10507000002283F83C20FB7D18461837BD4680BDD2
:1050800080B584B000AF786039600023FB737B6823
:1050900093F83C30012B01D10223B4E07B6801225C
:1050A00083F83C207B68022283F83D207B681B68E4
:1050B0009B68BB60BB6823F07703BB60BB6823F4CD
:1050C0007F43BB607B681B68BA689A603B681B685B
:1050D000B3F5005F3ED0B3F5005F00F28780B3F513
:1050E000805F00F08680B3F5805F7FD8702B1AD088
:1050F000702B7BD8602B50D0602B77D8502B3CD0B6
:10510000502B73D8402B58D0402B6FD8302B64D005
:10511000302B6BD8202B60D0202B67D8002B5CD095
:10512000102B5AD062E07B6818683B6899683B682E
:105130005A683B68DB6800F023FB7B681B689B6850
:10514000BB60BB6843F07703BB607B681B68BA68D1
:105150009A604FE07B6818683B6899683B685A68BA
:105160003B68DB6800F00CFB7B681B689A687B6817
:105170001B6842F480429A603CE07B6818683B6898
:1051800059683B68DB681A4600F080FA7B681B6848
:105190005021184600F0D9FA2CE07B6818683B686B
:1051A00059683B68DB681A4600F09FFA7B681B6809
:1051B0006021184600F0C9FA1CE07B6818683B685B
:1051C00059683B68DB681A4600F060FA7B681B6828
:1051D0004021184600F0B9FA0CE07B681A683B6879
:1051E0001B681946104600F0B0FA03E00123FB7378
:1051F00000E000BF7B68012283F83D207B6800222D
:1052000083F83C20FB7B18461037BD4680BD80B438
:1052100083B000AF786000BF0C37BD465DF8047BFB
:10522000704780B483B000AF786000BF0C37BD46D4
:105230005DF8047B704780B483B000AF786000BF36
:105240000C37BD465DF8047B704780B483B000AF77
:10525000786000BF0C37BD465DF8047B704780B4B2
:1052600083B000AF786000BF0C37BD465DF8047BAB
:105270007047000080B485B000AF786039607B680B
:105280001B68FB607B68344A93420FD07B68B3F1A4
:10529000804F0BD07B68314A934207D07B68304AFD
:1052A000934203D07B682F4A934208D1FB6823F0D6
:1052B0007003FB603B685B68FA681343FB607B68C4
:1052C000254A93421BD07B68B3F1804F17D07B688F
:1052D000224A934213D07B68214A93420FD07B68C5
:1052E000204A93420BD07B681F4A934207D07B68C9
:1052F0001E4A934203D07B681D4A934208D1FB6843
:1053000023F44073FB603B68DB68FA681343FB607F
:10531000FB6823F080023B685B691343FB607B689A
:10532000FA681A603B689A687B68DA623B681A68B8
:105330007B689A627B68084A934203D13B681A698A
:105340007B681A637B6801225A6100BF1437BD462F
:105350005DF8047B704700BF00000140000400407E
:1053600000080040000C00400040014000440140A3
:105370000048014080B487B000AF786039607B6836
:105380001B6A23F001027B681A627B681B6A7B61DF
:105390007B685B683B617B689B69FB60FB6823F013
:1053A0007003FB60FB6823F00303FB603B681B6832
:1053B000FA681343FB607B6923F002037B613B685F
:1053C0009B687A6913437B617B681C4A93420CD1CA
:1053D0007B6923F008037B613B68DB687A691343D0
:1053E0007B617B6923F004037B617B68134A9342F2
:1053F00011D13B6923F480733B613B6923F4007353
:105400003B613B685B693A6913433B613B689B695D
:105410003A6913433B617B683A695A607B68FA6872
:105420009A613B685A687B685A637B687A691A623A
:1054300000BF1C37BD465DF8047B7047000001408B
:1054400080B487B000AF786039607B681B6A23F056
:1054500010027B681A627B681B6A7B617B685B68F1
:105460003B617B689B69FB60FB6823F4E043FB6066
:10547000FB6823F44073FB603B681B681B02FA68FF
:105480001343FB607B6923F020037B613B689B68CF
:105490001B017A6913437B617B681E4A93420DD1DD
:1054A0007B6923F080037B613B68DB681B017A69C1
:1054B00013437B617B6923F040037B617B68154A62
:1054C000934213D13B6923F480633B613B6923F42E
:1054D00000633B613B685B699B003A6913433B6136
:1054E0003B689B699B003A6913433B617B683A695F
:1054F0005A607B68FA689A613B685A687B689A636D
:105500007B687A691A6200BF1C37BD465DF8047B70
:10551000704700BF0000014080B487B000AF7860E2
:1055200039607B681B6A23F480727B681A627B682F
:105530001B6A7B617B685B683B617B68DB69FB6046
:10554000FB6823F07003FB60FB6823F00303FB6040
:105550003B681B68FA681343FB607B6923F40073A4
:105560007B613B689B681B027A6913437B617B68A4
:105570001D4A93420DD17B6923F400637B613B6834
:10558000DB681B027A6913437B617B6923F48063C8
:105590007B617B68144A934213D13B6923F48053A7
:1055A0003B613B6923F400533B613B685B691B0132
:1055B0003A6913433B613B689B691B013A6913439A
:1055C0003B617B683A695A607B68FA68DA613B68DC
:1055D0005A687B68DA637B687A691A6200BF1C3795
:1055E000BD465DF8047B70470000014080B487B081
:1055F00000AF786039607B681B6A23F480527B6857
:105600001A627B681B6A3B617B685B687B617B68B5
:10561000DB69FB60FB6823F4E043FB60FB6823F479
:105620004073FB603B681B681B02FA681343FB6016
:105630003B6923F400533B613B689B681B033A6959
:1056400013433B617B68104A934209D17B6923F481
:1056500080437B613B685B699B017A6913437B6193
:105660007B687A695A607B68FA68DA613B685A68D5
:105670007B681A647B683A691A6200BF1C37BD46B2
:105680005DF8047B704700BF0000014080B487B024
:1056900000AFF860B9607A60FB681B6A7B61FB68E9
:1056A0001B6A23F00102FB681A62FB689B693B617D
:1056B0003B6923F0F0033B617B681B013A691343AC
:1056C0003B617B6923F00A037B617A69BB68134302
:1056D0007B61FB683A699A61FB687A691A6200BF6C
:1056E0001C37BD465DF8047B704780B487B000AFBF
:1056F000F860B9607A60FB681B6A23F01002FB68EF
:105700001A62FB689B697B61FB681B6A3B617B6972
:1057100023F470437B617B681B037A6913437B61CD
:105720003B6923F0A0033B61BB681B013A6913434B
:105730003B61FB687A699A61FB683A691A6200BF4B
:105740001C37BD465DF8047B704780B485B000AF60
:10575000786039607B689B68FB60FB6823F07003AE
:10576000FB603A68FB68134343F00703FB607B6808
:10577000FA689A6000BF1437BD465DF8047B704735
:1057800080B487B000AFF860B9607A603B60FB68B6
:105790009B687B617B6923F47F437B613B681A02D2
:1057A0007B681A43BB6813437A6913437B61FB68C8
:1057B0007A699A6000BF1C37BD465DF8047B70476C
:1057C00080B487B000AFF860B9607A60BB6803F05E
:1057D0001F03012202FA03F37B61FB681A6A7B69EB
:1057E000DB431A40FB681A62FB681A6ABB6803F065
:1057F0001F03796801FA03F31A43FB681A6200BFBA
:105800001C37BD465DF8047B7047000080B485B04E
:1058100000AF786039607B6893F83C30012B01D190
:10582000022350E07B68012283F83C207B6802223F
:1058300083F83D207B681B685B68FB607B681B68A6
:105840009B68BB60FB6823F07003FB603B681B68D0
:10585000FA681343FB607B681B68FA685A607B68D0
:105860001B681C4A934218D07B681B68B3F1804FB9
:1058700013D07B681B68184A93420ED07B681B6864
:10588000164A934209D07B681B68154A934204D09C
:105890007B681B68134A93420CD1BB6823F08003DA
:1058A000BB603B685B68BA681343BB607B681B687E
:1058B000BA689A607B68012283F83D207B680022E9
:1058C00083F83C20002318461437BD465DF8047B5E
:1058D000704700BF00000140000400400008004085
:1058E000000C00400040014080B485B000AF7860FB
:1058F00039600023FB607B6893F83C30012B01D1B9
:1059000002233DE07B68012283F83C20FB6823F002
:10591000FF023B68DB681343FB60FB6823F44072C3
:105920003B689B681343FB60FB6823F480623B6821
:105930005B681343FB60FB6823F400623B681B68F1
:105940001343FB60FB6823F480523B681B691343DD
:10595000FB60FB6823F400523B685B691343FB6008
:10596000FB6823F480423B68DB691343FB607B6880
:105970001B68FA685A647B68002283F83C20002385
:1059800018461437BD465DF8047B704780B483B079
:1059900000AF786000BF0C37BD465DF8047B7047F0
:1059A00080B483B000AF786000BF0C37BD465DF8AF
:1059B000047B704780B500AF00224FF400710248AD
:1059C000FDF79EFB00BF80BD0000024080B500AF28
:1059D00001224FF400710248FDF792FB00BF80BD29
:1059E0000000024080B500AF00224FF480610748FC
:1059F000FDF786FB0520FCF7E5F901224FF48061F5
:105A00000248FDF77DFB00BF80BD00BF00000240E3
:105A100080B582B000AF0346FB7100221021074819
:105A2000FDF76EFBF91D4FF0FF3301220448FEF72E
:105A3000F8FB00BF0837BD4680BD00BF0000024034
:105A40003C01002080B582B000AF7860396001224F
:105A500010210748FDF754FB3B689AB24FF0FF3323
:105A600079680448FEF7DDFB00BF0837BD4680BDFE
:105A7000000002403C01002080B584B000AF786097
:105A80007B685A1C7A601B78FB7334E07B685A1C75
:105A90007A601B78FB72FB7A1846FFF7B9FF7B68C8
:105AA0005A1C7A601B78BB72BB7A9BB203F08003EE
:105AB000BB81BB7A03F07F03BB72BB7A002B08D09B
:105AC000BB7A19467868FFF7BDFFBB7A7A68134442
:105AD0007B60BB89002B0ED07B685A1C7A601B78D8
