:020000040800F2
:100000000000012035100008950F00089D0F000822
:10001000A50F0008AD0F0008B50F00080000000094
:10002000000000000000000000000000BD0F0008FC
:10003000CB0F000800000000D90F0008E70F0008F0
:10004000851000088510000885100008851000083C
:10005000851000088510000885100008851000082C
:10006000F30F0008851000088510000885100008AF
:10007000851000088510000885100008851000080C
:100080008510000885100008851000080000000099
:1000900000000000000000000000000085100008C3
:1000A00085100008851000088510000885100008DC
:1000B00085100008851000088510000885100008CC
:1000C00085100008851000088510000885100008BC
:1000D0008510000885100008851000080000000049
:1000E00001100008851000088510000800000000BD
:1000F0000000000000000000000000008510000863
:100100000000000085100008851000088510000818
:1001100000000000000000000000000000000000DF
:10012000851000088510000885100008851000085B
:100130008510000800000000000000000000000022
:100140000000000000000000000000008510000812
:10015000851000088510000885100008851000082B
:100160008510000885100008000000000000000055
:10017000000000000000000000000000000000007F
:1001800000000000851000080000000000000000D2
:0401900085100008CE
:1001940010B5054C237833B9044B13B10448AFF3BD
:1001A40000800123237010BD0C000020000000001B
:1001B4008C32000808B5034B1BB103490348AFF365
:1001C400008008BD00000000100000208C320008F0
:1001D40053B94AB9002908BF00281CBF4FF0FF31AA
:1001E4004FF0FF3000F06AB9ADF1080C6DE904CEB0
:1001F40000F006F8DDF804E0DDE9022304B07047FE
:100204002DE9F047089D0C46002B4ED194468C45B1
:100214008646B2FA82F262D94AB1C2F12003914011
:1002240020FA03F30CFA02FC194300FA02FE4FEA27
:100234001C471FFA8CF6B1FBF7F44FEA1E4307FB89
:10024400141143EA014304FB06F199420AD91CEB59
:10025400030304F1FF3080F01281994240F20F81D0
:10026400023C6344591A1FFA8EF3B1FBF7F007FB03
:10027400101143EA014300FB06F69E420AD91CEB27
:10028400030300F1FF3180F0FC809E4240F2F980CC
:10029400634402389B1B40EA044000211DB1D34053
:1002A4000022C5E90032BDE8F0878B4205D90DB1C3
:1002B400C5E9000100210846F5E7B3FA83F10029F6
:1002C40046D1A34202D39042C0F0F080861A64EB78
:1002D40003030120002DE6D0C5E90063E3E7002A0B
:1002E40040F09080A1EB0C044FEA1C481FFA8CF7F5
:1002F4000121B4FBF8F64FEA1E4308FB164443EA17
:10030400044307FB06F0984208D91CEB030306F1EB
:10031400FF3402D2984200F2CD8026461C1A1FFAFE
:100324008EF3B4FBF8F008FB104443EA044300FBEB
:1003340007F79F4208D91CEB030300F1FF3402D2F4
:100344009F4200F2B0802046DB1B40EA0640A5E74E
:10035400C1F120068B4022FA06F71F4320FA06FC5F
:1003640004FA01F343EA0C03F44000FA01F8380CF0
:100374004FEA1349B4FBF0FE1FFA87FC00FB1E444E
:1003840049EA04440EFB0CF9A14502FA01F20AD928
:100394003C190EF1FF3A80F08480A14540F281803F
:1003A400AEF1020E3C44A4EB09041FFA83F9B4FB3A
:1003B400F0F300FB134449EA044403FB0CFCA4459A
:1003C40007D93C1903F1FF3067D2A44565D9023B34
:1003D4003C4443EA0E40A0FB0293A4EB0C049C4271
:1003E400CE469C4651D34ED055B1B8EB0E0364EBC8
:1003F4000C0404FA06F6CB401E43CC40C5E9006465
:10040400002150E7C2F1200320FA03F10CFA02FCA8
:1004140024FA03F394400C434FEA1C4800FA02FE0A
:100424001FFA8CF7B3FBF8F008FB1031230C43EAF6
:10043400014300FB07F1994208D91CEB030300F1C7
:10044400FF362CD299422AD9023863445B1AA4B2EB
:10045400B3FBF8F108FB113344EA034401FB07F34F
:10046400A34208D91CEB040401F1FF3613D2A342C2
:1004740011D902396444E41A41EA004139E70446D7
:10048400F0E6084606E7C845AED2B9EB020E63EBC8
:10049400070C0138A8E73146EDE7034699E73046F3
:1004A400D4E7D6467FE7634402384DE70646234641
:1004B40008460FE7023E634430E700BF704700BFC1
:1004C40080B500AF00F0DEFD00F05CFB00F0FCFB4B
:1004D40000F0C4FB01224FF40061E24801F0FEF891
:1004E40001224FF48051DF4801F0F8F802F0AEFA2F
:1004F400002002F048FB02F06FFC4FF4784002F059
:1005040031FB052002F03AFD41F288030022052167
:10051400D54802F02BFE41F2880341F288020521FE
:10052400D24802F023FE41F2880342F21012052160
:10053400CF4802F01BFE41F2880343F298120521D2
:10054400CC4802F013FE41F2880344F22022052134
:10055400C94802F00BFE41F2880345F2A8220521A6
:10056400C64802F003FE41F2880346F23032052108
:10057400C34802F0FBFD41F2880347F2B83205217B
:10058400C04802F0F3FD41F2880348F240420521DD
:10059400BD4802F0EBFD41F2880349F2C84205214F
:1005A400BA4802F0E3FD41F288034AF250520521B1
:1005B400B74802F0DBFD41F288034BF2D852052123
:1005C400B44802F0D3FD41F288034CF26062052185
:1005D400B14802F0CBFD41F288034DF2E8620521F7
:1005E400AE4802F0C3FD41F288034EF27072052159
:1005F400AB4802F0BBFD062002F0C0FC41F28803C8
:1006040000220621A74802F0B1FD41F2880341F21D
:1006140088020621A44802F0A9FD41F2880342F2AF
:1006240010120621A14802F0A1FD41F2880343F211
:10063400981206219E4802F099FD41F2880344F283
:10064400202206219B4802F091FD41F2880345F2E5
:10065400A8220621984802F089FD41F2880346F257
:1006640030320621954802F081FD41F2880347F2B9
:10067400B8320621924802F079FD41F2880348F22B
:10068400404206218F4802F071FD41F2880349F28D
:10069400C84206218C4802F069FD41F288034AF2FF
:1006A40050520621894802F061FD41F288034BF261
:1006B400D8520621864802F059FD41F288034CF2D3
:1006C40060620621834802F051FD41F288034DF235
:1006D400E8620621804802F049FD41F288034EF2A7
:1006E400707206217D4802F041FD072002F046FCAD
:1006F40041F2880300220721794802F037FD41F2D4
:10070400880341F288020721764802F02FFD41F266
:10071400880342F210120721734802F027FD41F2C8
:10072400880343F298120721704802F01FFD41F23A
:10073400880344F2202207216D4802F017FD41F29C
:10074400880345F2A82207216A4802F00FFD41F20E
:10075400880346F230320721674802F007FD41F270
:10076400880347F2B8320721644802F0FFFC41F2E3
:10077400880348F240420721614802F0F7FC41F245
:10078400880349F2C84207215E4802F0EFFC41F2B7
:1007940088034AF2505207215B4802F0E7FC41F219
:1007A40088034BF2D8520721584802F0DFFC41F28B
:1007B40088034CF260620721554802F0D7FC41F2ED
:1007C40088034DF2E8620721524802F0CFFC41F25F
:1007D40088034EF2707207214F4802F0C7FC0820CC
:1007E40002F0CCFB4FF4A953002208214B4802F03D
:1007F400BDFC4FF4A9534FF4A9520821484802F014
:10080400B5FC4FF4A9534FF429520821454802F08E
:10081400ADFC4FF4E16343F660720821424802F0F4
:10082400A5FC4FF4E16344F2686208213F4802F0FA
:100834009DFC4FF4E16344F6705208213C4802F0F9
:1008440095FC4FF4E16345F278420821394802F0FF
:100854008DFC4FF4E1634FF4B7420821364802F0AF
:1008640085FC6BE000080240B43200083C430008F9
:10087400C45300084C640008D47400085C85000864
:10088400E49500086CA60008F4B600087CC70008CC
:1008940004D800088CE8000814F900089C09010831
:1008A400241A0108AC2A0108343B0108BC4B010896
:1008B400445C0108CC6C0108547D0108DC8D0108FE
:1008C400649E0108ECAE010874BF0108FCCF010866
:1008D40084E001080CF10108940102081C120208CA
:1008E400A42202082C330208B44302083C54020830
:1008F400C46402084C750208D48502085C96020898
:10090400E4A602086CB70208F4C702087CD80208FF
:1009140004E902088CF90208140A03089C1A030863
:10092400BC2F0308DC440308FC59030804610308D2
:100934001C7603082C840308348B03084FF4E1630A
:1009440046F288220821734802F010FC4FF4E16358
:1009540046F690120821704802F008FC4FF4E16357
:1009640047F2980208216D4802F000FC4FF4E1635D
:1009740047F2A07208216A4802F0F8FB4FF4E163E1
:1009840047F6A8620821674802F0F0FB4FF4E163E0
:1009940048F2B0520821644802F0E8FB4FF4E163E6
:1009A40048F6B8420821614802F0E0FB4FF4E163E5
:1009B40049F2C03208215E4802F0D8FB4FF4F063DC
:1009C40049F65E3208215B4802F0D0FB4FF4F06335
:1009D4004AF2C0220821584802F0C8FB4FF4F063E1
:1009E4004AF640220821554802F0C0FB4FF45C63EC
:1009F4004FF438420821524802F0B8FB4FF45C63CC
:100A04004CF2C05208214F4802F0B0FB4FF45C6333
:100A14004DF2803208214C4802F0A8FB5A234EF2D2
:100A240040120821494802F0A1FB5A234EF29A12BF
:100A34000821474802F09AFB5A234EF2F412082187
:100A4400444802F093FB5A234EF24E2208214248B6
:100A540002F08CFB5A234EF2A82208213F4802F0F0
:100A640085FB5A234EF2023208213D4802F07EFBF8
:100A74005A234EF25C3208213A4802F077FB5A239B
:100A84004EF2B6320821384802F070FBA2234EF22F
:100A940010420821354802F069FBE0234EF2B242CD
:100AA4000821334802F062FBE0234EF292520821FF
:100AB400304802F05BFBE0234EF2726208212E48BC
:100AC40002F054FBE0234EF2527208212B4802F04C
:100AD4004DFB01224FF48061294800F0FFFD002204
:100AE4002021274800F0FAFD4FF47A7000F03CFB17
:100AF40001224FF48061224800F0F0FD0122202100
:100B04001F4800F0EBFD4FF47A7000F02DFB00BF9E
:100B1400DFE700BF3C920308449903084CA0030894
:100B240054A703085CAE03080C680308146F030899
:100B3400247D030824C30308A4ED030864D8030830
:100B440064B50308E4DF0308A4CA0308E4F6030851
:100B540040F703089CF70308F8F7030854F8030860
:100B6400B0F803080CF9030868F90308C4F903088A
:100B740024F5030804F6030868FA030848FB03088D
:100B84000004024080B594B000AF07F12003302286
:100B94000021184602F04CFB07F10C0300221A60F6
:100BA4005A609A60DA601A610023BB60294B1B6C9F
:100BB400284A43F080531364264B1B6C03F0805384
:100BC400BB60BB6800237B60234B1B6823F440435A
:100BD400214A43F4004313601F4B1B6803F4404352
:100BE4007B607B6802233B620123FB6210233B632F
:100BF4000223BB630023FB6308233B64A8237B64B9
:100C04000423BB640723FB6407F12003184600F0A8
:100C1400A3FD0346002B01D000F044F90F23FB6031
:100C240002233B6100237B614FF48053BB614FF48B
:100C34008053FB6107F10C030221184601F004F80C
:100C44000346002B01D000F02DF900BF5037BD46FC
:100C540080BD00BF003802400070004080B500AF86
:100C6400174B184A1A60164B4FF482725A60144B91
:100C740000229A60124B0022DA60114B00221A61A2
:100C84000F4B00225A610E4B4FF400729A610C4BC9
:100C94000022DA610A4B00221A62094B00225A62CE
:100CA400074B00229A62064B0A22DA62044801F0DA
:100CB400B7F90346002B01D000F0F4F800BF80BD63
:100CC400280000200030014080B58AB000AF07F151
:100CD400140300221A605A609A60DA601A610023D1
:100CE4003B616B4B1B6B6A4A43F004031363684B11
:100CF4001B6B03F004033B613B690023FB60644B03
:100D04001B6B634A43F080031363614B1B6B03F05B
:100D14008003FB60FB680023BB605D4B1B6B5C4A7C
:100D240043F0010313635A4B1B6B03F00103BB60D5
:100D3400BB6800237B60564B1B6B554A43F0020390
:100D44001363534B1B6B03F002037B607B6800232C
:100D54003B604F4B1B6B4E4A43F0080313634C4BF1
:100D64001B6B03F008033B603B6800224FF46051A7
:100D7400484800F0B3FC012240F2F371454800F00A
:100D8400ADFC00224FF4C261434800F0A7FC0122ED
:100D94004FF49F71414800F0A1FC00224FF45641EA
:100DA4003E4800F09BFC43F6F3737B610123BB6177
:100DB4000023FB6100233B6207F114031946354805
:100DC40000F008FB0C237B610023BB610023FB6163
:100DD40007F1140319462F4800F0FCFA4FF4C263DC
:100DE4007B610123BB610023FB6100233B6207F1AC
:100DF40014031946284800F0EDFA4DF23E737B6166
:100E04000123BB610023FB6100233B6207F1140350
:100E14001946224800F0DEFA4FF400537B610023A8
:100E2400BB610023FB6107F1140319461B4800F062
:100E3400D1FA4FF400437B614FF48813BB61002364
:100E4400FB6107F114031946134800F0C3FA0423A5
:100E54007B614FF40413BB610023FB6107F11403AE
:100E640019460F4800F0B6FA00220021082000F0CD
:100E74007AFA082000F093FA00220021282000F0DA
:100E840072FA282000F08BFA00BF2837BD4680BDD7
:100E94000038024000080240000002400004024002
:100EA400000C024080B400AF72B600BF00BFFDE783
:100EB40080B483B000AF00237B60104B5B6C0F4A9F
:100EC40043F4804353640D4B5B6C03F480437B60B9
:100ED4007B6800233B60094B1B6C084A43F080533A
:100EE4001364064B1B6C03F080533B603B6800BFEC
:100EF4000C37BD465DF8047B704700BF00380240E4
:100F040080B58AB000AF786007F1140300221A603C
:100F14005A609A60DA601A617B681B68194A9342C6
:100F24002BD100233B61184B5B6C174A43F480536D
:100F34005364154B5B6C03F480533B613B690023A2
:100F4400FB60114B1B6B104A43F0010313630E4B00
:100F54001B6B03F00103FB60FB68E0237B6102234E
:100F6400BB610023FB6103233B6205237B6207F122
:100F740014031946054800F02DFA00BF2837BD4672
:100F840080BD00BF00300140003802400000024034
:100F940080B400AF00BFFDE780B400AF00BFFDE741
:100FA40080B400AF00BFFDE780B400AF00BFFDE731
:100FB40080B400AF00BFFDE780B400AF00BFBD4602
:100FC4005DF8047B704780B400AF00BFBD465DF898
:100FD400047B704780B400AF00BFBD465DF8047B5E
:100FE400704780B500AF00F09FF800BF80BD80B5AA
:100FF40000AF042000F08CFB00BF80BD80B500AFC3
:101004004FF4004000F084FB00BF80BD80B400AF0B
:10101400064BD3F88830054A43F47003C2F888308D
:1010240000BFBD465DF8047B704700BF00ED00E0E3
:10103400DFF834D00D480E490E4A002302E0D4589C
:10104400C4500433C4188C42F9D30B4A0B4C00230C
:1010540001E013600432A242FBD3FFF7D7FF02F092
:10106400EFF8FFF72DFA7047000001200000002080
:101074000C000020B0FC03080C000020AC00002091
:10108400FEE7000080B500AF0E4B1B680D4A43F429
:10109400007313600B4B1B680A4A43F480631360AC
:1010A400084B1B68074A43F480731360032000F065
:1010B4004FF90F2000F008F8FFF7FAFE0023184656
:1010C40080BD00BF003C024080B582B000AF7860B4
:1010D400124B1A68124B1B7819464FF47A73B3FB00
:1010E400F1F3B2FBF3F3184600F067F90346002B63
:1010F40001D001230EE07B680F2B0AD80022796807
:101104004FF0FF3000F02FF9064A7B68136000238C
:1011140000E0012318460837BD4680BD00000020CA
:10112400080000200400002080B400AF064B1B78A8
:101134001A46064B1B681344044A136000BFBD469D
:101144005DF8047B704700BF080000208000002089
:1011540080B400AF034B1B681846BD465DF8047BA2
:10116400704700BF8000002080B584B000AF786075
:10117400FFF7EEFFB8607B68FB60FB68B3F1FF3FED
:1011840005D00A4B1B781A46FB681344FB6000BF6A
:10119400FFF7DEFF0246BB68D31AFA689A42F7D813
:1011A40000BF00BF1037BD4680BD00BF080000204F
:1011B40080B485B000AF78607B6803F00703FB6000
:1011C4000C4BDB68BB60BA684FF6FF031340BB608F
:1011D400FB681A02BB68134343F0BF6343F4003354
:1011E400BB60044ABB68D36000BF1437BD465DF8DA
:1011F400047B704700ED00E080B400AF044BDB6873
:101204001B0A03F007031846BD465DF8047B7047CC
:1012140000ED00E080B483B000AF0346FB7197F9A2
:101224000730002B0BDBFB7903F01F02074997F90A
:1012340007305B09012000FA02F241F8232000BFC5
:101244000C37BD465DF8047B704700BF00E100E049
:1012540080B483B000AF03463960FB7197F907305F
:10126400002B0ADB3B68DAB20C4997F9073012010C
:10127400D2B20B4483F800230AE03B68DAB208498F
:10128400FB7903F00F03043B1201D2B20B441A762C
:1012940000BF0C37BD465DF8047B704700E100E0F9
:1012A40000ED00E080B489B000AFF860B9607A6006
:1012B400FB6803F00703FB61FB69C3F10703042B1D
:1012C40028BF0423BB61FB690433062B02D9FB69E5
:1012D400033B00E000237B614FF0FF32BB6902FA5D
:1012E40003F3DA43BB681A407B699A404FF0FF313D
:1012F4007B6901FA03F3D9437B680B401343184617
:101304002437BD465DF8047B7047000080B582B089
:1013140000AF78607B68013BB3F1807F01D3012388
:101324000FE00A4A7B68013B53600F214FF0FF3006
:10133400FFF78EFF054B00229A60044B07221A60C8
:10134400002318460837BD4680BD00BF10E000E00A
:1013540080B582B000AF78607868FFF729FF00BFDE
:101364000837BD4680BD80B586B000AF0346B9607E
:101374007A60FB7300237B61FFF73EFF78617A6834
:10138400B9687869FFF78EFF024697F90F30114666
:101394001846FFF75DFF00BF1837BD4680BD80B516
:1013A40082B000AF0346FB7197F907301846FFF788
:1013B40031FF00BF0837BD4680BD80B582B000AFA5
:1013C40078607868FFF7A2FF034618460837BD46E1
:1013D40080BD000080B489B000AF7860396000231C
:1013E4007B6100233B610023BB610023FB6159E166
:1013F4000122FB6902FA03F37B613B681B687A698B
:1014040013403B613A697B699A4240F048813B68EA
:101414005B6803F00303012B05D03B685B6803F0B2
:101424000303022B30D17B689B68BB61FB695B00C3
:10143400032202FA03F3DB43BA691340BB613B683E
:10144400DA68FB695B0002FA03F3BA691343BB6110
:101454007B68BA699A607B685B68BB610122FB693F
:1014640002FA03F3DB43BA691340BB613B685B6870
:101474001B0903F00102FB6902FA03F3BA6913437F
:10148400BB617B68BA695A603B685B6803F003031D
:10149400032B17D07B68DB68BB61FB695B0003220D
:1014A40002FA03F3DB43BA691340BB613B689A68F1
:1014B400FB695B0002FA03F3BA691343BB617B68FF
:1014C400BA69DA603B685B6803F00303022B23D13B
:1014D400FB69DA087B68083253F82230BB61FB6988
:1014E40003F007039B000F2202FA03F3DB43BA69FC
:1014F4001340BB613B681A69FB6903F007039B0057
:1015040002FA03F3BA691343BB61FB69DA087B6827
:101514000832B96943F822107B681B68BB61FB6918
:101524005B00032202FA03F3DB43BA691340BB6195
:101534003B685B6803F00302FB695B0002FA03F398
:10154400BA691343BB617B68BA691A603B685B681C
:1015540003F44033002B00F0A2800023FB60574BC0
:101564005B6C564A43F480435364544B5B6C03F402
:101574008043FB60FB68524AFB699B08023352F8C4
:101584002330BB61FB6903F003039B000F2202FAC3
:1015940003F3DB43BA691340BB617B68494A934256
:1015A40019D07B68484A934213D07B68474A9342D8
:1015B4000DD07B68464A934207D07B68454A9342E4
:1015C40001D1042308E0072306E0032304E00223F7
:1015D40002E0012300E00023FA6902F00302920012
:1015E4009340BA691343BB613549FB699B080233D5
:1015F400BA6941F82320384B9B68BB613B69DB43E4
:10160400BA691340BB613B685B6803F48013002B29
:1016140003D0BA693B691343BB612F4ABB6993602A
:101624002D4BDB68BB613B69DB43BA691340BB618B
:101634003B685B6803F40013002B03D0BA693B6971
:101644001343BB61244ABB69D360234B5B68BB6112
:101654003B69DB43BA691340BB613B685B6803F4D5
:101664000033002B03D0BA693B691343BB611A4AA8
:10167400BB695360184B1B68BB613B69DB43BA69A8
:101684001340BB613B685B6803F48033002B03D0D9
:10169400BA693B691343BB610F4ABB691360FB69B9
:1016A4000133FB61FB690F2B7FF6A2AE00BF00BFC5
:1016B4002437BD465DF8047B704700BF0038024004
:1016C40000380140000002400004024000080240CB
:1016D400000C024000100240003C014080B483B082
:1016E40000AF78600B467B8013467B707B78002BC1
:1016F40003D07A887B689A6103E07B881A047B684C
:101704009A6100BF0C37BD465DF8047B704700004A
:1017140080B582B000AF0346FB80084B5A69FB8852
:101724001340002B06D0054AFB885361FB881846FA
:1017340000F006F800BF0837BD4680BD003C0140FC
:1017440080B483B000AF0346FB8000BF0C37BD46B6
:101754005DF8047B7047000080B586B000AF786008
:101764007B68002B01D1012367E27B681B6803F0CF
:101774000103002B75D0884B9B6803F00C03042BEA
:101784000CD0854B9B6803F00C03082B12D1824BC1
:101794005B6803F48003B3F5800F0BD17E4B1B68A9
:1017A40003F40033002B5BD07B685B68002B57D1BC
:1017B400012342E27B685B68B3F5803F06D1764B38
:1017C4001B68754A43F4803313601DE07B685B68D3
:1017D400B3F5A02F0CD1704B1B686F4A43F48023E0
:1017E40013606D4B1B686C4A43F4803313600BE049
:1017F400694B1B68684A23F480331360664B1B688B
:10180400654A23F4802313607B685B68002B13D044
:10181400FFF79EFC386108E0FFF79AFC02463B693B
:10182400D31A642B01D9032307E25B4B1B6803F42F
:101834000033002BF0D014E0FFF78AFC386108E095
:10184400FFF786FC02463B69D31A642B01D90323B4
:10185400F3E1514B1B6803F40033002BF0D100E09B
:1018640000BF7B681B6803F00203002B63D04A4B64
:101874009B6803F00C03002B0BD0474B9B6803F0D1
:101884000C03082B1CD1444B5B6803F48003002B2E
:1018940016D1414B1B6803F00203002B05D07B6873
:1018A400DB68012B01D00123C7E13B4B1B6823F00C
:1018B400F8027B681B69DB00374913430B603AE08D
:1018C4007B68DB68002B20D0344B01221A60FFF7C1
:1018D4003FFC386108E0FFF73BFC02463B69D31A42
:1018E400022B01D90323A8E12B4B1B6803F002034D
:1018F400002BF0D0284B1B6823F0F8027B681B698F
:10190400DB00254913430B6015E0244B00221A60C9
:10191400FFF71EFC386108E0FFF71AFC02463B693A
:10192400D31A022B01D9032387E11B4B1B6803F055
:101934000203002BF0D17B681B6803F00803002B23
:1019440036D07B685B69002B16D0154B01221A60D8
:10195400FFF7FEFB386108E0FFF7FAFB02463B693C
:10196400D31A022B01D9032367E10B4B5B6F03F0FE
:101974000203002BF0D01BE0094B00221A60FFF792
:10198400E7FB38610EE0FFF7E3FB02463B69D31A3D
:10199400022B07D9032350E10038024000004742DC
:1019A400800E4742884B5B6F03F00203002BEAD1A1
:1019B4007B681B6803F00403002B00F0978000236E
:1019C400FB75814B1B6C03F08053002B0FD100235C
:1019D400BB607D4B1B6C7C4A43F0805313647A4B91
:1019E4001B6C03F08053BB60BB680123FB75774B12
:1019F4001B6803F48073002B18D1744B1B68734A63
:101A040043F480731360FFF7A3FB386108E0FFF72A
:101A14009FFB02463B69D31A022B01D903230CE135
:101A24006A4B1B6803F48073002BF0D07B689B68BF
:101A3400012B06D1644B1B6F634A43F00103136708
:101A44001CE07B689B68052B0CD15F4B1B6F5E4AC7
:101A540043F0040313675C4B1B6F5B4A43F00103C1
:101A640013670BE0584B1B6F574A23F001031367AE
:101A7400554B1B6F544A23F0040313677B689B6820
:101A8400002B15D0FFF764FB38610AE0FFF760FB19
:101A940002463B69D31A41F28832934201D90323A7
:101AA400CBE0494B1B6F03F00203002BEED014E094
:101AB400FFF74EFB38610AE0FFF74AFB02463B6939
:101AC400D31A41F28832934201D90323B5E03E4B45
:101AD4001B6F03F00203002BEED1FB7D012B05D11C
:101AE400394B1B6C384A23F0805313647B689B6921
:101AF400002B00F0A180344B9B6803F00C03082BEF
:101B04005CD07B689B69022B41D1314B00221A6067
:101B1400FFF71EFB386108E0FFF71AFB02463B693A
:101B2400D31A022B01D9032387E0274B1B6803F048
:101B34000073002BF0D17B68DA697B681B6A1A4357
:101B44007B685B6A9B011A437B689B6A5B08013B69
:101B54001B041A437B68DB6A1B061B4913434B6057
:101B64001B4B01221A60FFF7F3FA386108E0FFF714
:101B7400EFFA02463B69D31A022B01D903235CE036
:101B8400114B1B6803F00073002BF0D054E0104B92
:101B940000221A60FFF7DCFA386108E0FFF7D8FA90
:101BA40002463B69D31A022B01D9032345E0064BB5
:101BB4001B6803F00073002BF0D13DE07B689B6948
:101BC400012B07D1012338E00038024000700040A7
:101BD400600047421B4B5B68FB607B689B69012B81
:101BE40028D0FB6803F480027B68DB699A4221D128
:101BF400FB6803F03F027B681B6A9A421AD1FA68B9
:101C040047F6C07313407A68526A9201934211D125
:101C1400FB6803F440327B689B6A5B08013B1B044E
:101C24009A4207D1FB6803F070627B68DB6A1B068B
:101C34009A4201D0012300E0002318461837BD461C
:101C440080BD00BF0038024080B584B000AF78602A
:101C540039607B68002B01D10123CCE0684B1B6801
:101C640003F007033A689A420CD9654B3A68D2B23A
:101C74001A70634B1B6803F007033A689A4201D059
:101C84000123B8E07B681B6803F00203002B20D01B
:101C94007B681B6803F00403002B05D0594B9B6839
:101CA400584A43F4E05393607B681B6803F00803CD
:101CB400002B05D0534B9B68524A43F46043936016
:101CC400504B9B6823F0F0027B689B684D4913439B
:101CD4008B607B681B6803F00103002B44D07B6896
:101CE4005B68012B07D1474B1B6803F40033002BBF
:101CF40019D101237FE07B685B68022B03D07B68EA
:101D04005B68032B07D13F4B1B6803F00073002B68
:101D140009D101236FE03B4B1B6803F00203002B46
:101D240001D1012367E0374B9B6823F003027B68F2
:101D34005B68344913438B60FFF70AFAF8600AE0E2
:101D4400FFF706FA0246FB68D31A41F2883293423F
:101D540001D903234FE02B4B9B6803F00C027B68F3
:101D64005B689B009A42EBD1254B1B6803F0070389
:101D74003A689A420CD2224B3A68D2B21A70204B7B
:101D84001B6803F007033A689A4201D0012332E04A
:101D94007B681B6803F00403002B08D0194B9B6875
:101DA40023F4E0527B68DB68164913438B607B683D
:101DB4001B6803F00803002B09D0124B9B6823F423
:101DC40060427B681B69DB000E4913438B6000F0A3
:101DD40021F802460B4B9B681B0903F00F030A49C9
:101DE400CB5C22FA03F3094A1360094B1B681846BB
:101DF400FFF76AF9002318461037BD4680BD00BFBF
:101E0400003C024000380240A432000800000020D8
:101E1400040000202DE9B04F94B000AF00237B6490
:101E24000023FB6400233B640023BB64794B9B6861
:101E340003F00C03082B0DD0082B00F2E180002BDB
:101E440002D0042B03D0DBE0734BBB64DBE0734BA9
:101E5400BB64D8E06F4B5B6803F03F037B646D4B5E
:101E64005B6803F48003002B63D06A4B5B689B09B7
:101E74000022BB63FA63BB6BC3F308033B63002319
:101E84007B63D7E90C4522462B464FF000004FF008
:101E94000001590141EAD261500102460B46214634
:101EA400511A3961294663EB01037B614FF000024B
:101EB4004FF00003D7E904AB59468B01514643EA7E
:101EC400916351468A015146B2EB0108594663EBCE
:101ED40001094FF000024FF000034FEAC90343EA3F
:101EE40058734FEAC80290469946234618EB0303F9
:101EF400BB602B4649EB0303FB604FF000024FF03D
:101F04000003D7E9024529464B02214643EAD1534F
:101F140021464A02104619467B6C0022BB62FA62D3
:101F2400D7E90A23FEF754F902460B461346FB642D
:101F340058E0384B5B689B09002218461146C0F3F1
:101F440008033B6200237B62D7E9088942464B467B
:101F54004FF000004FF00001590141EAD2615001F5
:101F640002460B464146B2EB010A494663EB010BBC
:101F74004FF000024FF000034FEA8B1343EA9A63D9
:101F84004FEA8A12B2EB0A0463EB0B054FF000022E
:101F94004FF00003EB0043EA5473E20014461D467D
:101FA4004346E3183B604B4645EB03037B604FF02D
:101FB40000024FF00003D7E9004529468B02214671
:101FC40043EA915321468A02104619467B6C00224B
:101FD400BB61FA61D7E90623FEF7FAF802460B461D
:101FE4001346FB640B4B5B681B0C03F003030133C8
:101FF4005B003B64FA6C3B6CB2FBF3F3BB6402E042
:10200400054BBB6400BFBB6C18465037BD46BDE8EA
:10201400B08F00BF003802400024F40000127A00A0
:1020240080B582B000AF78607B68002B01D10123BA
:102034007BE07B685B6A002B08D17B685B68B3F547
:10204400827F09D07B680022DA6105E07B68002288
:102054001A617B6800225A617B6800229A627B685D
:1020640093F85130DBB2002B06D17B68002283F851
:1020740050207868FEF744FF7B68022283F85120E1
:102084007B681B681A687B681B6822F040021A6030
:102094007B685B6803F482727B689B6803F4044387
:1020A4001A437B68DB6803F400631A437B681B698B
:1020B40003F002031A437B685B6903F001031A43CC
:1020C4007B689B6903F400731A437B68DB6903F044
:1020D40038031A437B681B6A03F0800342EA030156
:1020E4007B689B6A03F400527B681B680A431A608E
:1020F4007B689B691B0C03F004017B685B6A03F03B
:1021040010027B681B680A435A607B681B68DA69A3
:102114007B681B6822F40062DA617B6800225A65DE
:102124007B68012283F85120002318460837BD46F6
:1021340080BD80B588B000AFF860B9603B601346DD
:10214400FB800023FB77FB6893F85030012B01D10F
:10215400022326E1FB68012283F85020FEF7F8FFF2
:10216400B861FB88FB82FB6893F85130DBB2012B2A
:1021740002D00223FB770BE1BB68002B02D0FB8863
:10218400002B02D10123FB7702E1FB68032283F8D1
:102194005120FB6800225A65FB68BA681A63FB6821
:1021A400FA889A86FB68FA88DA86FB6800229A63C2
:1021B400FB6800229A87FB680022DA87FB6800220A
:1021C4005A64FB6800221A64FB689B68B3F5004FED
:1021D4000FD1FB681B681A68FB681B6822F0400279
:1021E4001A60FB681B681A68FB681B6842F480422B
:1021F4001A60FB681B681B6803F04003402B07D080
:10220400FB681B681A68FB681B6842F040021A608E
:10221400FB68DB68B3F5006F4BD1FB685B68002B90
:1022240002D0FB8A012B3ED1FB681B6B1A88FB682A
:102234001B68DA60FB681B6B9A1CFB681A63FB68FB
:10224400DB8E9BB2013B9AB2FB68DA862BE0FB681B
:102254001B689B6803F00203022B12D1FB681B6B03
:102264001A88FB681B68DA60FB681B6B9A1CFB68A6
:102274001A63FB68DB8E9BB2013B9AB2FB68DA8679
:1022840011E0FEF765FF0246BB69D31A3A689A4229
:1022940003D83B68B3F1FF3F02D13B68002B02D166
:1022A4000323FB7774E0FB68DB8E9BB2002BCED15B
:1022B4004CE0FB685B68002B02D0FB8A012B40D109
:1022C400FB681A6BFB681B680C3312781A70FB6886
:1022D4001B6B5A1CFB681A63FB68DB8E9BB2013BC9
:1022E4009AB2FB68DA862CE0FB681B689B6803F0F3
:1022F4000203022B13D1FB681A6BFB681B680C33B7
:1023040012781A70FB681B6B5A1CFB681A63FB6813
:10231400DB8E9BB2013B9AB2FB68DA8611E0FEF7D2
:1023240017FF0246BB69D31A3A689A4203D83B683E
:10233400B3F1FF3F02D13B68002B02D10323FB77AB
:1023440026E0FB68DB8E9BB2002BCDD1BA693968DD
:10235400F86800F055FA0346002B02D0FB682022EF
:102364005A65FB689B68002B0AD100233B61FB681C
:102374001B68DB683B61FB681B689B683B613B69CE
:10238400FB685B6D002B02D00123FB7700E000BFEC
:10239400FB68012283F85120FB68002283F8502057
:1023A400FB7F18462037BD4680BD80B58CB000AF9A
:1023B400F860B9607A607B800123FB62002387F8B0
:1023C4002B30FB6893F85030012B01D102238AE1B2
:1023D400FB68012283F85020FEF7BAFE7862FB689E
:1023E40093F8513087F82330FB685B68FB617B8886
:1023F4007B8397F82330012B0FD0FB69B3F5827FE1
:1024040007D1FB689B68002B03D197F82330042B7A
:1024140003D0022387F82B305BE1BB68002B05D087
:102424007B68002B02D07B88002B03D1012387F823
:102434002B304EE1FB6893F85130DBB2042B03D010
:10244400FB68052283F85120FB6800225A65FB686B
:102454007A689A63FB687A88DA87FB687A889A874D
:10246400FB68BA681A63FB687A88DA86FB687A883C
:102474009A86FB6800221A64FB6800225A64FB688F
:102484001B681B6803F04003402B07D0FB681B68E4
:102494001A68FB681B6842F040021A60FB68DB683C
:1024A400B3F5006F78D1FB685B68002B02D07B8B9F
:1024B400012B66D1FB681B6B1A88FB681B68DA600A
:1024C400FB681B6B9A1CFB681A63FB68DB8E9BB270
:1024D400013B9AB2FB68DA8653E0FB681B689B6891
:1024E40003F00203022B1BD1FB68DB8E9BB2002B93
:1024F40016D0FB6A012B13D1FB681B6B1A88FB688F
:102504001B68DA60FB681B6B9A1CFB681A63FB6828
:10251400DB8E9BB2013B9AB2FB68DA860023FB6236
:10252400FB681B689B6803F00103012B19D1FB684E
:10253400DB8F9BB2002B14D0FB681B68DA68FB6846
:102544009B6B92B21A80FB689B6B9A1CFB689A6324
:10255400FB68DB8F9BB2013B9AB2FB68DA870123ED
:10256400FB62FEF7F5FD02467B6AD31ABA6B9A4208
:1025740007D8BB6BB3F1FF3F03D0032387F82B309D
:10258400A7E0FB68DB8E9BB2002BA6D1FB68DB8F38
:102594009BB2002BA1D17CE0FB685B68002B02D0CE
:1025A4007B8B012B6BD1FB681A6BFB681B680C33AC
:1025B40012781A70FB681B6B5A1CFB681A63FB6861
:1025C400DB8E9BB2013B9AB2FB68DA8657E0FB686C
:1025D4001B689B6803F00203022B1CD1FB68DB8E93
:1025E4009BB2002B17D0FB6A012B14D1FB681A6B2A
:1025F400FB681B680C3312781A70FB681B6B5A1C3F
:10260400FB681A63FB68DB8E9BB2013B9AB2FB68E2
:10261400DA860023FB62FB681B689B6803F00103F6
:10262400012B19D1FB68DB8F9BB2002B14D0FB6804
:102634001B68DA68FB689B6BD2B21A70FB689B6BF1
:102644005A1CFB689A63FB68DB8F9BB2013B9AB20E
:10265400FB68DA870123FB62FEF77AFD02467B6A98
:10266400D31ABA6B9A4203D8BB6BB3F1FF3F02D1C2
:10267400BB6B002B03D1032387F82B3029E0FB68C5
:10268400DB8E9BB2002BA2D1FB68DB8F9BB2002BAD
:102694009DD17A6AB96BF86800F0B2F80346002B52
:1026A40006D0012387F82B30FB6820225A6510E0FE
:1026B400FB689B68002B0BD100237B61FB681B68C4
:1026C400DB687B61FB681B689B687B617B6900E05E
:1026D40000BFFB68012283F85120FB68002283F8C5
:1026E400502097F82B3018463037BD4680BD000087
:1026F40080B588B000AFF860B9603B601346FB71E9
:10270400FEF726FD0246BB6A9B1A3A681344FB6136
:10271400FEF71EFDB861394B1B685B011B0DFA699E
:1027240002FB03F37B6154E03B68B3F1FF3F50D0FD
:10273400FEF70EFD0246BB69D31AFA699A4202D922
:10274400FB69002B3DD1FB681B685A68FB681B685A
:1027540022F0E0025A60FB685B68B3F5827F11D116
:10276400FB689B68B3F5004F04D0FB689B68B3F526
:10277400806F07D1FB681B681A68FB681B6822F02E
:1027840040021A60FB689B6AB3F5005F0FD1FB68D7
:102794001B681A68FB681B6822F400521A60FB6805
:1027A4001B681A68FB681B6842F400521A60FB68D5
:1027B400012283F85120FB68002283F85020032370
:1027C40017E07B69002B01D10023FB617B69013B8E
:1027D4007B61FB681B689A68BB681340BA689A42BD
:1027E4000CBF01230023DBB21A46FB799A429BD12A
:1027F400002318462037BD4680BD00BF00000020DE
:1028040080B588B002AFF860B9607A601B4B1B6872
:102814001B4AA2FB03235B0D4FF47A7202FB03F302
:102824007B61FB685B68B3F5827F12D17B680093A0
:10283400BB6800228021F868FFF75AFF0346002B8B
:1028440016D0FB685B6D43F02002FB685A650323D6
:102854000FE07B69002B0AD07B69013B7B61FB683D
:102864001B689B6803F08003802BF2D000E000BF5C
:10287400002318461837BD4680BD00BF0000002065
:10288400819F5E1680B500AF00224FF400710248AC
:10289400FEF724FF00BF80BD0000024080B500AFFA
:1028A40001224FF400710248FEF718FF00BF80BDFB
:1028B4000000024080B500AF00224FF48061074859
:1028C400FEF70CFF0520FEF74FFC01224FF4806158
:1028D4000248FEF703FF00BF80BD00BF00000240B6
:1028E40080B582B000AF0346FB7100221021074877
:1028F400FEF7F4FEF91D4FF0FF3301220448FFF701
:1029040018FC00BF0837BD4680BD00BF0000024070
:102914002800002080B582B000AF786039600122C1
:1029240010210748FEF7DAFE3B689AB24FF0FF33F6
:1029340079680448FFF7FDFB00BF0837BD4680BD3A
:10294400000002402800002080B584B000AF786009
:102954007B685A1C7A601B78FB7334E07B685A1CD2
:102964007A601B78FB72FB7A1846FFF7B9FF7B6825
:102974005A1C7A601B78BB72BB7A9BB203F080034B
:10298400BB81BB7A03F07F03BB72BB7A002B08D0F8
:10299400BB7A19467868FFF7BDFFBB7A7A6813449F
:1029A4007B60BB89002B0ED07B685A1C7A601B7835
:1029B400BB81BB89FF2B02D14FF4FA73BB81BB8966
:1029C4001846FEF7D1FBFB7B5A1EFA73002BC5D1C8
:1029D40000BF00BF1037BD4680BD90B585B000AFC5
:1029E4000446084611461A462346FB710346BB714A
:1029F4000B467B7113463B712A20FFF771FF0023BE
:102A04003B73FB797B730023BB737B79FB7307F107
:102A14000C0304211846FFF77DFF2B20FFF760FF0E
:102A2400BB791833DBB27B733B791833DBB2FB73AE
:102A340007F10C0304211846FFF76CFF2C20FFF765
:102A44004FFF00BF1437BD4690BD000080B500AFF6
:102A5400FFF718FFFFF72EFF0648FFF775FF06483C
:102A6400FFF772FF0548FFF76FFFFFF717FF00BF7F
:102A740080BD00BF28FC030864FC030874FC030841
:102A840090B585B000AF0446084611461A46234661
:102A9400FB800346BB800B467B8013463B80FB8850
:102AA4009F2B57D8BB884F2B54D8FA887B88134464
:102AB400A02B03DDFB88C3F1A0037B80BA883B888D
:102AC4001344502B03DDBB88C3F150033B80FFF755
:102AD400D9FEFB88D8B2BB88D9B2FB88DAB27B882E
:102AE400DBB21344DBB2013BDCB2BB88DAB23B8815
:102AF400DBB21344DBB2013BDBB22246FFF76DFFCE
:102B04003B8C1B0A9BB2DBB23B733B8CDBB27B730B
:102B1400012210211148FEF7E1FD3B88BB8013E040
:102B24007B88FB800AE007F10C014FF0FF3302229F
:102B34000B48FFF7FEFAFB88013BFB80FB88002B68
:102B4400F1D1BB88013BBB80BB88002BE8D1FFF7E8
:102B5400A5FE00E000BF1437BD4690BD0000024052
:102B64002800002080B584B002AF0346FB80FB88B8
:102B740000935023A02200210020FFF781FF00BF13
:102B84000837BD4680BD80B582B000AF0346FB71F7
:102B9400FFF778FEFB79002B01D0212300E02023EE
:102BA4001846FFF79DFEFFF779FE00BF0837BD46C4
:102BB40080BD000080B586B002AF0346FB7107F10B
:102BC4000F02F91D6423009301230448FFF7EDFB72
:102BD400FB7B18461037BD4680BD00BF280000208F
:102BE40080B584B000AF0023FB600023BB600023EA
:102BF4007B6000233B6000224FF400511348FEF732
:102C04006DFD9F20FFF7D6FFA520FFF7D3FF0346F6
:102C1400BB60A520FFF7CEFF03467B60A520FFF72E
:102C2400C9FF03463B6001224FF400510748FEF7F9
:102C340055FDBB681A047B681B0213433A681343AF
:102C4400FB60FB6818461037BD4680BD0008024093
:102C540090B583B000AF00224FF400511648FEF740
:102C64003DFD4B20FFF7A6FF0023FB7105E0A520E7
:102C7400FFF7A0FFFB790133FB71FB79032BF6D936
:102C84000023BB710BE0BC79A520FFF793FF03463B
:102C94001A460A4B23445A70BB790133BB71BB7982
:102CA400072BF0D901224FF400510348FEF716FD1B
:102CB40000BF0C37BD4690BD0008024084000020D0
:102CC40080B500AF00224FF400510848FEF706FD1E
:102CD4000620FFF76FFF01224FF400510348FEF76F
:102CE400FDFC0120FEF740FA00BF80BD0008024051
:102CF40080B584B000AF0346FB710023FB73002250
:102D04004FF400511C48FEF7E9FCFB79012B0CD170
:102D14000520FFF74FFFA520FFF74CFF0346FB7389
:102D2400164AFB7B82F824301BE0FB79022B0CD182
:102D34003520FFF73FFFA520FFF73CFF0346FB7359
:102D44000E4AFB7B82F825300BE01520FFF732FF9B
:102D5400A520FFF72FFF0346FB73084AFB7B82F88D
:102D6400263001224FF400510348FEF7B7FCFB7BE9
:102D740018461037BD4680BD00080240840000207C
:102D840080B500AF0120FEF7EFF900224FF40051A7
:102D94000F48FEF7A3FC0520FFF70CFFA520FFF763
:102DA40009FF03461A460B4B83F824200120FEF743
:102DB400DBF9084B93F8243003F00103002BEDD129
:102DC40001224FF400510248FEF788FC00BF80BD89
:102DD400000802408400002080B582B000AF654B3B
:102DE400012283F8272002E00120FEF7BDF9FEF757
:102DF400AFF90346632BF7D901224FF400515E4823
:102E0400FEF76CFC6420FEF7AFF9FFF7E9FE78608B
:102E14007B68DBB2113B0F2B6BD801A252F823F075
:102E2400E92E0008DB2E0008CD2E0008BF2E000876
:102E3400B12E0008A32E0008952E0008852E000848
:102E4400752E0008F72E0008F72E0008F72E00084C
:102E5400F72E0008F72E0008F72E0008652E00084C
:102E6400444B0A221A70434B4FF48062DA6146E005
:102E7400404B09221A703F4B4FF40072DA613EE076
:102E84003C4B08221A703B4B4FF48072DA6136E0F7
:102E9400384B07221A70374B8022DA612FE0354B0A
:102EA40006221A70334B4022DA6128E0314B0522A6
:102EB4001A70304B2022DA6121E02E4B04221A7062
:102EC4002C4B1022DA611AE02A4B03221A70294B88
:102ED4000822DA6113E0274B02221A70254B0422E0
:102EE400DA610CE0234B01221A70224B0222DA61D0
:102EF40005E0204B002283F82720002336E01D4BF9
:102F04004FF480725A811B4B4FF480521A61194B53
:102F1400DB691B01174A5361164B5B69154A126939
:102F240002FB03F3134A5289B3FBF2F3114AD36051
:102F3400104B1B691B010F4A93610E4B5B690D4AD1
:102F4400126902FB03F39B0A0A4A1362FFF780FE2D
:102F54000120FFF7CDFE0220FFF7CAFE0320FFF792
:102F6400C7FE044B002283F82720012318460837A4
:102F7400BD4680BD840000200008024080B582B0B8
:102F840000AF786002E00120FEF7EEF8274B93F8DB
:102F94002730012BF7D0254B012283F82720FFF798
:102FA400EFFE224B1B697A6802FB03F31B017B6073
:102FB400FFF786FE00224FF400511D48FEF78EFBFA
:102FC4001A4B1B78082B09D9DC20FFF7F3FD7B682B
:102FD4001B0EDBB21846FFF7EDFD02E0D820FFF729
:102FE400E9FD7B681B0CDBB21846FFF7E3FD7B6849
:102FF4001B0ADBB21846FFF7DDFD7B68DBB218461F
:10300400FFF7D8FD01224FF400510948FEF766FB93
:10301400FFF7B6FE0120FEF7A7F8044B002283F861
:10302400272000BF0837BD4680BD00BF84000020B4
:103034000008024080B483B000AF7860074B9B69FE
:103044007A6802FB03F3054A5289B3FBF2F318468C
:103054000C37BD465DF8047B704700BF8400002038
:1030640080B584B000AFF860B9607A603B6002E07C
:103074000120FEF779F83A4B93F82730012BF7D06B
:10308400374B012283F827203A687B681344344A7B
:103094005289934202D83B68002B05D1304B5B899F
:1030A4001A467B68D31A3B607A683B6813442C4AFF
:1030B4005289934205D92A4B5B891A467B68D31AF5
:1030C4003B60FFF75DFEFFF7FBFD00224FF400516C
:1030D4002448FEF703FB224B5B891A46BB6802FBBC
:1030E40003F37A681344BB601D4B1B78082B09D982
:1030F4001220FFF75FFDBB681B0EDBB21846FFF71B
:1031040059FD02E00220FFF755FDBB681B0CDBB242
:103114001846FFF74FFDBB681B0ADBB21846FFF7E2
:1031240049FDBB68DBB21846FFF744FD3B689AB221
:103134006423F9680C48FEF7FCFF01224FF40051A8
:103144000848FEF7CBFAFFF71BFE0120FEF70CF848
:10315400034B002283F8272000BF1037BD4680BDF3
:1031640084000020000802402800002080B588B0B8
:1031740000AFF860B9607A603B602C4B9B693A6899
:103184009A4202D83B68002B02D1284B9B693B60D2
:10319400264B9B697A689A4243D27A683B681A4400
:1031A400224B9B699A4205D9204B9A697B68D31AB2
:1031B400BB6101E03B68BB61B868FFF73BFF0246B7
:1031C4001A4B5B8919467B68B3FBF1F31344FB612B
:1031D400164B5B891A467B68B3FBF2F101FB02F2E2
:1031E4009B1A7B61BB697A69F969F868FFF738FF54
:1031F400FB690133FB610D4B5B891A467B699A1AA3
:10320400BB691344BB61094B5B891A467B69D31ABA
:10321400FA681344FB6000237B61BB69002BE1DC8B
:1032240000E000BF2037BD4680BD00BF8400002001
:1032340002440346934200D1704703F8011BF9E7A7
:1032440070B50D4D0D4C641BA4100026A64209D187
:103254000B4D0C4C00F018F8641BA4100026A64279
:1032640005D170BD55F8043B98470136EEE755F893
:10327400043B98470136F2E7A8FC0308A8FC0308BE
:10328400A8FC0308ACFC0308F8B500BFF8BC08BCF4
:103294009E467047F8B500BFF8BC08BC9E46704710
:1032A40000000000000000000102030406070809F2
:1032B400000000000000000000000000000000000A
:1032C40000000000000000000000000000000000FA
:1032D40000000000000000000000000000000000EA
:1032E40000000000000000000000000000000000DA
:1032F40000000000000000000000000000000000CA
:1033040000000000000000000000000000000000B9
:1033140000000000000000000000000000000000A9
:103324000000000000000000000030E3828951A684
:103334000000000000000000000000000000000089
:103344000000000000000000000000000000000079
:103354000000000000000000000000000000000069
:103364000000000000000000000000000000000059
:103374000000000000000000000000000000000049
:10338400000000000000392492EA61E70000000018
:103394000000000000000000000000000000000029
:1033A4000000000000000000000000000000000019
:1033B4000000000000000000000000000000000009
:1033C40000000000000000000000000000000000F9
:1033D40000000000000000000000000000000000E9
:1033E4000000392492EA61E70000000000000000B8
:1033F40000000000000000000000000000000000C9
:1034040000000000000000000000000000000000B8
:1034140000000000000000000000000000000000A8
:103424000000000000000000000000000000000098
:10343400000000000000000000000000000039242B
:1034440092EA61E7000000000000000000000000B4
:103454000000000000000000000000000000000068
:103464000000000000000000000000000000000058
:103474000000000000000000000000000000000048
:103484000000000000000000000000000000000038
:1034940000000000000000000000392492EA61E707
:1034A4000000000000000000000000000000000018
:1034B4000000000000000000000000000000000008
:1034C40000000000000000000000000000000000F8
:1034D40000000000000000000000000000000000E8
:1034E40000000000000000000000000000000000D8
:1034F4000000000000001061310420C20000000040
:1035040000000000000000000000000000000000B7
:1035140000000000000000000000000000000000A7
:103524000000000000000000000000000000000097
:103534000000000000000000000000000000000087
:10354400000000000000000042415B212140000017
:1035540000000000000000000000000018E05B21F3
:103564004AA1000019000000000000000000000053
:103574000000000000000000000000000000000047
:103584000000000000000000000000000000000037
:103594000000000000000000000000000000000027
:1035A400000010A0ADC3D723D723D723D723D72315
:1035B400D723D723D723D723D723CF03C6A3950253
:1035C4009D63190000000000000000000000632754
:1035D400BDCE2943000000000000000000000000F0
:1035E40000000000000000000000000000000000D7
:1035F4000000000000000000000000000000636103
:10360400D723D723D723D723D723D723D723D723E6
:10361400D723D723BE63A5839D639D639D63190050
:103624000861BDCEB54D7389B54DEF32EF32EF323F
:10363400946B840ABDCEA4EC0000000000000000DE
:103644000000000000000000000000000000000076
:1036540000000000000000004AA1D723D723D7238D
:10366400D723D723D723D723D723D723D723CF03AE
:103674009D638CA34261294108400000840AEF3213
:10368400EF32EF32EF32EF32EF32EF32EF32EF322E
:10369400EF32EF3239C400000000000000000000E7
:1036A400000000000000000000000000000010A066
:1036B4007C62B642D723D723D723D723D723D72354
:1036C400D723D723D723D723D723C6A39D63424128
:1036D400000018E25AA6840AEF32EF32EF32EF32DA
:1036E400EF32EF32EF32EF32EF32EF32EF32EF32CE
:1036F400CE2F73894A2518E2000000000000000064
:103704000000000000000000000073E2D723D7236C
:10371400D723D723D723D723D72318E07401D7235C
:10372400D723D723D723BE639D6329403163F77220
:10373400EF32EF32EF32EF32EF32EF32EF32EF327D
:10374400EF32EF32EF32EF32EF32EF32DEB0EF3200
:10375400EF32DEB0000000000000000000000000B6
:103764000000000000008CC3D723D723D723D7231E
:10377400D723D723846200008462D723D723D72397
:10378400BE63A5839D63084062E7FFB3BD8E0861F5
:10379400000018E2946BEF32EF32EF32EF32EF3287
:1037A400EF32CE2F39C40861000018E2CE2FEF3279
:1037B40018E200000000000000000000000000000B
:1037C40010A0BE83D723D723D723D723D723D72328
:1037D40018E018E0D723D723D723ADE39D638CA348
:1037E40029410000A4CCFFB320E218C1522439635C
:1037F400000018E2CE2FEF32EF32EF32CE2F086105
:10380400000041C472C6084039C4EF325AA6000011
:103814000000000000000000000000007C42D723EC
:10382400D723D7238462B642D723B64200006B81E4
:10383400D723D723C6A39D636362084010818C4BB2
:10384400FFB3FFB300007B27F5EDE5AD8327000050
:103854004A25EF32EF32EF3218E20840BC8AE5AD78
:10386400E5AD41C418E2EF32CE2F5AA600000000A5
:103874000000000000006B81D723D723D7236B817E
:1038840000008462D723D72308602140D723D7239D
:10389400C6C39D6342410000CE4FFFB3FFB3FFB3E5
:1038A40010813983FE4EF5EDE5AD52240000DEB003
:1038B400EF32A4EC00008B88E5ADE5ADE5AD18A1D1
:1038C40039C4EF32EF32EF32946B00000000000095
:1038D4004AA2CF03D723D723846200004AA1D72367
:1038E400D723D723846200007401D723CF039D63B9
:1038F40063620000BDCEFFB3FFB3FFB383C9000012
:10390400BCAAFE4EF5ED9BE90000BDCEEF327389F3
:103914000000CCEBE5ADE5AD72C60000946BEF3270
:10392400EF32EF32738900000000000073E2D72306
:10393400D723D723214018E0D723D723D723D7234E
:10394400D72342217401D723CF03A58384630000C6
:10395400944BFFB3FFB3FFB3EF5220E200005A458C
:10396400BCAA83470000B54DEF325AA60000AC292B
:103974009BE8396300002943EF32EF32EF32EF3234
:103984004A250000000000005B02CF03D723D723A1
:1039940021402140D723D723D723D723D723D72385
:1039A400D723D723B6239D633A010000BDCEFFB3CE
:1039B400FFB3FFB3FFB3DED15AE7000000000000FD
:1039C4000000B54DEF32738900000000000008408C
:1039D4006327DEB0EF32EF32EF32EF32738900004B
:1039E400000000004261CEC3D723D7234AA1086058
:1039F400D723D723D723D723D723D723D723CEE33C
:103A04009D63740200006B68FFB3FFB3FFB3FFB3A1
:103A1400FFB3FFB3FFB3DED1BDCE9CCCBDCEF772F6
:103A2400EF32DEB0A4EC946BA4ECDEB0EF32EF32F4
:103A3400EF32EF32EF32EF32EF3229430000000071
:103A44003A01C6A3D723D72374010000B642D72373
:103A5400D723D723D723D723D723BE839D6331A16D
:103A64000000BDCEFFB3FFB3FFB3FFB3FFB3FFB39B
:103A7400FFB3FFB3FFB3FFB3FFB3FFB3F772EF328C
:103A8400EF32EF32EF32EF32EF32EF32EF32EF322A
:103A9400EF32EF32EF32840A000000004AA1CEE395
:103AA400D723D72374010000B642D723D723D723C3
:103AB400D723D723D723CF03A5838CA3084041E47E
:103AC400FFB3FFB3FFB3FFB3FFB3FFB3FFB3BDCE89
:103AD400944B83C983C9EF32FFB3D670738973895A
:103AE400840ABDCEEF32EF32EF32EF32EF32EF32F3
:103AF400CE2F18E2000000009D63D723D723D723DD
:103B040018E018E0D723D723D723D723D723D723E5
:103B1400D723D723BE639D634AA10000A4CCFFB37F
:103B2400FFB3FFB3FFB3CE4F20E20000000000005C
:103B34000000AD4DFFB383C9000000000000000089
:103B44005AA6DEB0EF32EF32EF32EF325AA600005F
:103B540000003A21CEE3D723D72384620000846295
:103B6400D723D723D723D723D723D723D723D72381
:103B7400D723A58384630000944BFFB3FFB3FFB343
:103B8400DED120E210608B88EDCDBCAA0000AD4DE3
:103B9400FFB362E70000F5EDBC8A72C6000039C4C9
:103BA400EF32EF32EF32EF325AA60000000073C258
:103BB400D723D723D72318E018E0D723D723D72335
:103BC400D723D723D723D723D723D723CF039D6343
:103BD40063620000CE4FFFB3FFB3FFB35AE70000A8
:103BE400DD6CFE4EFE4EAC490000BDCEFFB3944BDF
:103BF4000000EDCDF5EDE5AD83270000946BEF32C9
:103C0400EF32EF32840A000000006362D723D72327
:103C1400D72300005B21D723D723D723D723D72348
:103C2400D723D723D723D723C6A39D6342410000BC
:103C3400AD4DFFB3FFB3FFB310815A45FE4EFE4EA8
:103C4400FE4E39831061FFB3FFB3BDCE00007B2766
:103C5400FE4EF5EDE5AD084039C4EF32EF32EF32F8
:103C64006327000000001900C6A3D723D72331C05F
:103C74000860C6A3D723D723D723D723D723D72393
:103C8400D723D723C6C39D63740210A0000062E744
:103C9400EF32FFB300007B27FE4EEDCD6AC6000075
:103CA4007BE9FFB3FFB3FFB341E400008B88FE4E12
:103CB400F5ED39632943EF32CE2F39C400000000FB
:103CC400000000005B42D723D7239D6200006B8174
:103CD400D723D723D723D723D723D723D723D72310
:103CE400D723BE439D63950342610000944BFFB309
:103CF400316320C149E4106000005AE7FFB3FFB309
:103D0400FFB3FFB3DED120E2000020C149E400008C
:103D14005AA6EF324A25000000000000000000000F
:103D24003A01C6A3D723D72331C00860C6A3D7233B
:103D3400D723D723D723D723D723D723D723D723AF
:103D4400C683A5A39D63084062E7FFB3DED141E4C7
:103D5400108141E4A4CCFFB3FFB3FFB3FFB3FFB3BF
:103D6400FFB3FFB39CCC316320E26B48E6F1EF3242
:103D740018E20000000000000000000031A1C6A30A
:103D8400D723D72384620000B642D723D723D7236F
:103D9400D723D723D723D723D723D723D723BE6328
:103DA4009D63294020E2EF32FFB3FFB3FFB3FFB3BB
:103DB400FFB3FFB3FFB3FFB3FFB3FFB3FFB3FFB36F
:103DC400FFB3FFB3FFB3FFB3FFB3D670000000002F
:103DD40000000000000000004AA1CF03D723D7232E
:103DE4006B810000C6A3D723D723D723D723D72398
:103DF400D723D723D723D723D723C6C39D634241D1
:103E040000000000316362E7EF32FFB3FFB3FFB39A
:103E1400FFB3FFB3FFB3FFB3FFB3FFB3FFB3FFB30E
:103E2400DED1526620E20000000000000000000025
:103E34000000000073C2D723D723D7234220086091
:103E4400D723D723D723D723D723D723D723D7239E
:103E5400D723D723D723CF03A58395036BA242612E
:103E6400294000007368FFB3FFB3FFB3FFB3FFB390
:103E7400FFB3FFB3FFB3FFB3FFB3FFB320E2000010
:103E8400000000000000000000000000000000002E
:103E940073E2D723D723D723214031C0D723D72395
:103EA400D723D723D723D723D723D723D723D7233E
:103EB400D723D723C6C3ADA39D639D639D6331A15F
:103EC4000000944B944B5AC683E9FFB3FFB3EF321F
:103ED40083E962E7944B83E90000000000000000DE
:103EE40000000000000000000000000010A0B60266
:103EF400D723D72331C00860C6A3D723D723D7231A
:103F0400D723D723D723D723D723D723846218E0F3
:103F1400C6A3D723CF03C6A3A583950308400000F7
:103F240000000000000020E2AD4D20E2000000008F
:103F3400000000000000000000000000000000007D
:103F44000000000000000000000018E0C683D72332
:103F54009D6200002140C6A3D723D723D723D723AC
:103F6400D723D723D723D7239D6200005B21D723F0
:103F7400D723D723C6839D63846363628CA39D6325
:103F84005B02084000000000000000000000000088
:103F9400000000000000000000000000000000001D
:103FA400000000000000000052E1CEE3D7237401BA
:103FB40000006B81D723D723D723D723D723D72335
:103FC400D723D723D7235B210000C6A3D723D72326
:103FD400D723BE439D639D63A5A3ADC39D63426187
:103FE40000000000000000000000000000000000CD
:103FF40000000000000000000000000000000000BD
:10400400000000000840B603D723D723ADC2C6A3DF
:10401400D723D723D723D723D723D723D723D723CC
:10402400D7238CE200009D62D723D723D723D7233D
:10403400CF03CF0318E074014AA100000000000080
:10404400000000000000000000000000000000006C
:10405400000000000000000000000000000000005C
:1040640000007C42D723D723D723D723D723D723B2
:10407400D723D723D723D723D723D723D7234AA17B
:104084000000B642D723D723D723D723D723C6A3E9
:1040940000000860000000000000000000000000B4
:1040A400000000000000000000000000000000000C
:1040B4000000000000000000000000000000426159
:1040C400CF03D723D723D723D723D723D723D72344
:1040D400D723D723D723D723846200006B81D72328
:1040E400D723D723D723D723D7237401000008600D
:1040F40000000000000000000000000000000000BC
:1041040000000000000000000000000000000000AB
:1041140000000000000000000000000021204221F7
:10412400B642D723D723D723D723D723D723D723BD
:10413400D723D7239D624221D723D723D723D7233D
:10414400B6425B2118E000000000000000000000FF
:10415400000000000000000000000000000000005B
:10416400000000000000000000000000000000004B
:104174000000000000000000000000000860ADC264
:10418400D723D723D723D723D723D723D723D7235B
:10419400D723D723D723D723D723B64218E0000049
:1041A400000000000000000000000000000000000B
:1041B40000000000000000000000000000000000FB
:1041C40000000000000000000000000000000000EB
:1041D400000000000000000000002960C6A3D723EF
:1041E400D723D723D723D723D723D723D723D723FB
:1041F400D723D723D7234AA10000000000000000E2
:1042040000000000000000000000000000000000AA
:10421400000000000000000000000000000000009A
:10422400000000000000000000000000000000008A
:1042340000000000000000008482C6A38CE26B81B1
:104244008CE2C6A3D723C6A384626B818CE2B642F8
:10425400B642000000000000000000000000000062
:10426400000000000000000000000000000000004A
:10427400000000000000000000000000000000003A
:10428400000000000000000000000000000000002A
:10429400000000000000000000000000000018E022
:1042A4008CE218E0000000000000000000000000A4
:1042B40000000000000000000000000000000000FA
:1042C40000000000000000000000000000000000EA
:1042D40000000000000000000000000000000000DA
:1042E40000000000000000000000000000000000CA
:1042F4000000084000000000000000000000000072
:1043040000000000000000000000000000000000A9
:104314000000000000000000000000000000000099
:104324000000000000000000000000000000000089
:104334000000000000000000000000000000000079
:104344000000000000000000000000000000000069
:1043540000000000000000000000000000001941FF
:1043640021A2000000000000000000000000000086
:104374000000000000000000000000000000000039
:104384000000000000000000000000000000000029
:104394000000000000000000000000000000000019
:1043A4000000000000000000000000000000000009
:1043B40000000000000000003AA3754753A4000069
:1043C40000000000000000000000000000000000E9
:1043D40000000000000000000000000000000000D9
:1043E40000000000000000000000000000000000C9
:1043F40000000000000000000000000000000000B9
:1044040000000000000000000000000000000000A8
:10441400000021A275474B4400000000000000008A
:104424000000000000000000000000000000000088
:104434000000000000000000000000000000000078
:104444000000000000000000000000000000000068
:104454000000000000000000000000000000000058
:1044640000000000000000000000004000003A834B
:104474005C45000000000000000000000000000097
:104484000000000000000000000000000000000028
:104494000000000000000000000000000000000018
:1044A4000000000000000000000000000000000008
:1044B40000000000000000000000000000000000F8
:1044C400000000000000000000004B2453C6000060
:1044D40000000000000000000000000000000000D8
:1044E40000000000000000000000000000000000C8
:1044F40000000000000000000000000000000000B8
:1045040000000000000000000000000000000000A7
:104514000000000000000000000000000000000097
:1045240000000000000010C1320300000000000081
:104534000000000000000000000000000000000077
:104544000000000000000000000000000000000067
:104554000000000000000000000000000000000057
:104564000000000000000000000000000000000047
:104574000000000000000000000000000000000037
:10458400218310C10860218308600000000000003E
:104594000000000000000000000000000000000017
:1045A4000000000000000000000000000000000007
:1045B40000000000000000000000000000000000F7
:1045C40000000000000000000000000000000000E7
:1045D400000000004B268D8B8D8B8D8B9E6C9E6C0A
:1045E4009E6C9E6C95EB8D8B8D8B7D2A10C100008B
:1045F40000000000000000000000000000000000B7
:1046040000000000000000000000000000000000A6
:104614000000000000000000000000000000000096
:10462400000000000000000000000000000010C1B5
:104634009E6C9E6C9E6C9E6C9E6C9E6C9E6C9E6C26
:104644009E6C9E6C9E6C9E6C74C900000000000001
:104654000000000000000000000000000000000056
:104664000000000000000000000000000000000046
:104674000000000000000000000000000000000036
:10468400000000000000000010C18D8B9E6C9E6C29
:104694009E6C9E6C9E6C9E6C74C963E79E6C9E6C53
:1046A4009E6C9E6C9E6C4B2608600000000000000F
:1046B40000000000000000000000000000000000F6
:1046C40000000000000000000000000000000000E6
:1046D40000000000000000000000000000000000D6
:1046E4005B878D8B9E6C9E6C9E6C9E6C9E6C9E6C90
:1046F40095EB42C5000010C19E6C9E6C9E6C9E6C36
:104704009E6C9E6C9E6C74C9320300000000000015
:104714000000000000000000000000000000000095
:104724000000000000000000000000000000000085
:104734000000000000000000000021839E6C9E6CBD
:104744009E6C9E6C9E6C9E6C9E6C74C910C1000025
:10475400000010C19E6C9E6C9E6C9E6C9E6C9E6C48
:104764009E6C9E6C74C900000000000000000000F4
:104774000000000000000000000000000000000035
:104784000000000000000000000000000000000025
:104794000000000000005B879E6C9E6C9E6C9E6C0B
:1047A4009E6C9E6C9E6C218310C174C921832183ED
:1047B4009E6C9E6C9E6C9E6C9E6C9E6C9E6C9E6CA5
:1047C4009E6C086000000000000000000000000073
:1047D40000000000000000000000000000000000D5
:1047E40000000000000000000000000000000000C5
:1047F40008608D8B9E6C9E6C9E6C9E6C9E6C9E6CF9
:104804009E6C95EB95EB9E6C192221839E6C9E6C9D
:104814009E6C9E6C9E6C9E6C9E6C9E6C9E6C5B876C
:104824000000000000000000000000000000000084
:104834000000000000000000000000000000000074
:1048440000000000000000000000320495EB9E6CA4
:104854009E6C74C98D8B9E6C9E6C9E6C9E6C9E6CC3
:104864009E6C9E6C3A645B879E6C9E6C9E6C9E6C88
:104874009E6C9E6C9E6C9E6C9E6C9E6C640710C1BC
:104884000000000000000000000000000000000024
:104894000000000000000000000000000000000014
:1048A400000000003A649E6C9E6C9E6C9E6C00003E
:1048B40010C163E79E6C9E6C9E6C9E6C9E6C9E6C9D
:1048C4009E6C9E6C9E6C9E6C9E6C9E6C9E6C9E6C94
:1048D4007D2A3A6495EB9E6C9E6C8D8B00000000E3
:1048E40000000000000000000000000000000000C4
:1048F400000000000000000000000000000008604C
:104904003A649E6C9E6C9E6C9E6C000000000000DD
:104914003A648D8B9E6C9E6C9E6C9E6C9E6C9E6CA1
:104924009E6C9E6C9E6C9E6C9E6C63E7086000009F
:104934007D2A9E6C9E6C9E4C0000000000000000CE
:104944000000000000000000000000000000000063
:104954000000000000000000000000003A649E6CAB
:104964009E6C9E6C9E6C08603A644B2600003A6410
:104974009E6C9E6C9E6C9E6C9E6C9E6C9E6C9E6CE3
:104984009E6C9E6C4B2600000000000074C99E6C57
:104994009E6C8D8B000000000000000000000000F1
:1049A4000000000000000000000000000000000003
:1049B40000000000086000004B269E6C9E6C9E6CFC
:1049C4009E6C10C13A649E6C8D8B8D8B9E6C9E6C1C
:1049D4009E6C9E6C9E6C9E6C9E6C9E6C9E6C74C950
:1049E4000000218374C9000063E79E6C9E6C95EB04
:1049F400086000000000000000000000000000004B
:104A040000000000000000000000000000000000A2
:104A1400000010C195EB9E6C9E6C9E6C9E6C218375
:104A240042C59E6C9E6C9E6C9E6C9E6C9E6C9E6C35
:104A34009E6C9E6C9E6C9E6C9E6C9E6C6C689E6C58
:104A44008D8B000063E79E6C9E6C9E6C6C6800000E
:104A54000000000000000000000000000000000052
:104A640000000000000000000000000010C18D8B59
:104A74009E6C9E6C9E6C9E6C9E6C9E6C9E6C9E6CE2
:104A84009E6C9E6C9E6C9E6C9E6C9E6C9E6C9E6CD2
:104A94009E6C9E6C9E6C9E6C9E6C9E6C9E6C42C5C5
:104AA4008D8B9E6C9E6C9E6C9E6C4B260000000051
:104AB40000000000000000000000000000000000F2
:104AC4000000000000000000086095EB9E6C9E6CE6
:104AD4009E6C9E6C9E6C9E6C9E6C9E6C9E6C9E6C82
:104AE4009E6C9E6C9E6C9E6C9E6C9E6C9E6C9E6C72
:104AF4009E6C9E6C9E6C9E6C9E6C9E6C9E6C9E6C62
:104B04009E6C9E6C9E6C8E0A42E408A0000000001D
:104B14000000000000000000000000000000000091
:104B240000000000000074C99E6C9E6C9E6C9E6C1C
:104B34009E6C95EB5B878D8B9E6C9E6C9E6C9E6CC5
:104B44009E6C9E6C9E6C9E6C9E6C9E6C9E6C9E6C11
:104B54009E6C9E6C9E6C9E6C9E6C9E6C9E6C9E6C01
:104B64009E6C85A96486000000000000000020E21D
:104B740020E200000000000000000000000000002F
:104B8400000032039E6C9E6C9E6C95EB4B26086075
:104B9400000063E79E6C9E6C9E6C9E6C9E6C8D8B7D
:104BA400320363E79E6C9E6C9E6C9E6C9E6C9E6C46
:104BB4009E6C9E6C9E6C9E6C9E6C9E6C9E4C75470F
:104BC40042E40000000062E7CE4FFFB3DED120E2F2
:104BD40000000000000000000000000000003A6433
:104BE4009E6C9E6C6C6808600000218374C99E6C86
:104BF4009E6C9E6C9E6C9E6C9E6C95EB10C100002E
:104C040010C163E79E6C9E6C9E6C9E6C9E6C9E6C49
:104C14009E6C9E6C9E6C9E6C8DC9754721A2000093
:104C24007BE9FFB3FFB3FFB38C0A00000000000070
:104C34000000000000000000000074C99E6C9E6C1F
:104C44007D2A10C1000010C163E79E6C9E6C9E6CAF
:104C54009E6C9E6C9E6C9E6C9E6C5B87000000003C
:104C640042C59E6C9E6C9E6C9E6C9E6C9E6C9E6CF3
:104C74009E6C964B7547324300007BE9FFB3FFB34C
:104C8400FFB3FFB3316310C13A64000000000000B9
:104C94000000000008609E6C9E6C9E6C9E6C9E6C76
:104CA400640710C100005B879E6C9E6C9E6C9E6CBA
:104CB4009E6C9E6C5B870860000021837D2A9E6C3D
:104CC4009E6C9E6C9E6C9E6C9E6C9E6C9E6C85C94C
:104CD4006486000062E7FFB3FFB3FFB3FFB3FFB323
:104CE40000003A649E6C08600000000000000000B0
:104CF400000074C99E6C9E6C9E6C9E6C9E6C9E6C37
:104D04006C688D8B9E6C9E6C9E6C9E6C9E6C7D2ADA
:104D14000000218374C99E6C9E6C9E6C9E6C9E6C7C
:104D24009E6C9E6C9E4C8DC9754775476406000049
:104D3400BDCEFFB3FFB3FFB3FFB3EF5200004B266A
:104D44007D2A000000000000000000000000086050
:104D54008D8B9E6C9E6C9E6C9E6C9E6C9E6C9E6CF1
:104D64009E6C9E6C9E6C9E6C9E6C9E6C7D2A9E6C52
:104D74009E6C9E6C9E6C9E6C9E6C9E6C9E6C9E4CFF
:104D84007D68754753E529E231E30000AD4DFFB37B
:104D9400FFB3FFB3FFB3DED100004B2695EB10C188
:104DA4000000000000000000000000003A649E6C57
:104DB4009E6C9E6C9E6C9E6C9E6C9E6C9E6C9E6C9F
:104DC4009E6C9E6C9E6C9E6C9E6C9E6C9E6C9E6C8F
:104DD4009E6C9E6C9E6C9E6C9E4C7D68754729E211
:104DE400000010811081000020E2DED1FFB3FFB388
:104DF400FFB3CE4F000063E79E6C5B8700000000AA
:104E040000000000000000003A649E6C9E6C9E6CE2
:104E14009E6C9E6C4B2610C19E6C9E6C9E6C9E6C10
:104E24009E6C9E6C9E6C9E6C9E6C9E6C9E6C9E6C2E
:104E34009E6C9E4C7D68754729E200006B68FFB349
:104E4400FFB39CCC108120E2DED1FFB3FFB3B54D9C
:104E5400000074C99E6C10C1000000000000000036
:104E6400000000003A649E6C9E6C9E6C9E6C9E6C6E
:104E7400192221839E6C9E6C9E6C9E6C9E6C9E6C13
:104E84009E6C9E6C9E6C9E6C9E6C9E6C9E6C85A9AA
:104E9400754729E200007BE9FFB3FFB3FFB3FFB31B
:104EA4009CCC000020E2DED1FFB35AE7000095EB72
:104EB4006C6800000000000000000000000000001A
:104EC40019228D8B9E6C9E6C9E6C8D8B00005B8773
:104ED40074C932037D2A9E6C9E6C9E6C9E6C9E6C83
:104EE4009E6C9E6C9E6C9E6C964B75474B4400006A
:104EF4007BE9FFB3FFB3FFB3FFB3FFB3FFB39CCCB6
:104F0400000020E2BDCE00003A649E6C8D8B000050
:104F1400000000000000000000000000000010C1BC
:104F240063E79E6C9E6C640700000000000008604C
:104F34006C689E6C9E6C9E6C9E6C9E6C9E6C9E6C53
:104F44009E6C960B85A97547110120E2FFB3FFB350
:104F5400FFB3FFB3FFB3FFB3FFB3FFB39CCC0000B9
:104F640000000000958B9E6C63E7000000000000C9
:104F7400000000000000000000000000000074C9F0
:104F84009E6C3A64000021836C6895EB9E6C9E6C69
:104F94009E6C9E6C9E6C9E6C9E6C9E4C7D88754730
:104FA4007547648608A062E7FFB3FFB3FFB3FFB39E
:104FB400FFB3FFB3FFB3FFB3FFB37368000042C591
:104FC4009E6C7D2A086000000000000000000000C4
:104FD4000000000000000000000042C59E6C9E6CB2
:104FE40095EB9E6C9E6C9E6C9E6C9E6C9E6C9E6CF7
:104FF4009E6C9E6C9E4C7D6875473AA300400000F1
:1050040000001061EF32FFB3FFB3FFB3FFB3FFB390
:10501400FFB3FFB3DED120E210C195EB9E6C3204E6
:10502400000000000000000000000000000000007C
:1050340000000000000010C19E6C9E6C9E6C9E6C73
:105044009E6C9E6C9E6C9E6C9E6C9E6C9E6C9E4C2C
:105054007D68754729E2000041E49CCC5AE70000D2
:105064003163EF32FFB3FFB3FFB3FFB3FFB3EF32EC
:10507400316300008D8B9E6C9E6C19220000000031
:10508400000000000000000000000000000000001C
:1050940000000000320363E78D8B9E6C9E6C9E6C57
:1050A4009E6C9E6C9E6C9E6C9E6C7D68754729E21E
:1050B40000007BE9FFB3FFB3FFB37BC9000041E409
:1050C400FFB3FFB3FFB3FFB3EF323163000063E715
:1050D4009E6C9E6C42C500000000000000000000B1
:1050E40000000000000000000000000000000000BC
:1050F4000000000000005B879E6C9E6C9E6C9E6CA2
:105104009E6C9E6C8DC97547324300007BE9FFB3EA
:10511400FFB3FFB3FFB3FFB37BC9000062E7FFB384
:10512400FFB3CE4F20E2000063E79E6C9E6C192211
:10513400000000000000000000000000000000006B
:10514400000000000000000000000000000000005B
:10515400000008608D8B9E6C9E6C9E6C9E6C9E6C99
:105164007D675BC500007BE9FFB3FFB3FFB3FFB30B
:10517400FFB3FFB3FFB37BC9000062E783E910818B
:10518400086074C99E6C9E6C6407000000000000F7
:10519400000000000000000000000000000000000B
:1051A40000000000000000000000000000000000FB
:1051B4001922640764074B268D8B960B754721A231
:1051C40020E2FFB3FFB3FFB3FFB3FFB3FFB3FFB3FB
:1051D400FFB3EF3231630000000021838D8B9E6C9E
:1051E4009E6C74C910C100000000000000000000A3
:1051F40000000000000000000000000000000000AB
:10520400000000000000000000000000000000009A
:105214000000000063E78DEA7547110141E4FFB324
:10522400DED1944B83C983C983C96B6852661081EC
:10523400000031A374C99E6C9E6C8D8B2183000089
:10524400000000000000000000000000000000005A
:10525400000000000000000000000000000000004A
:10526400000000000000000000000000000000003A
:1052740010C110A110A1000020E241E400000000D0
:10528400000000000000000008603A6474C99E6CCD
:105294009E6C9E6C9E6C19220000000000000000B1
:1052A40000000000000000000000000000000000FA
:1052B40000000000000000000000000000000000EA
:1052C40000000000000000000000000000000000DA
:1052D400000000000000000000003A6495EB9E6CA2
:1052E4009E6C9E6C9E6C9E6C9E6C9E6C5B87320367
:1052F400192200000000000000000000000000006F
:105304000000000000000000000000000000000099
:105314000000000000000000000000000000000089
:105324000000000000000000000000000000000079
:1053340000000000000019224B263A648D8B9E6CFD
:1053440064074B2674C9320400000000000000000A
:105354000000000000000000000000000000000049
:105364000000000000000000000000000000000039
:105374000000000000000000000000000000000029
:105384000000000000000000000000000000000019
:105394000000000000000000086008600000000039
:1053A40000000000000000000000000000000000F9
:1053B40000000000000000000000000000000000E9
:1053C40000000000000000000000000000000000D9
:1053D40000000000000000000000000000000000C9
:1053E40000000000000000000000000000000000B9
:1053F40000000000000000000000000000000000A9
:105404000000000000000000000000000000000098
:105414000000000000000000000000000000000088
:105424000000000000000000000000000000000078
:105434000000000000000000000000000000000068
:105444000000000010605A457B277B274183000041
:105454000000000000000000000000000000000048
:105464000000000000000000000000000000000038
:105474000000000000000000000000000000000028
:105484000000000000000000000000000000000018
:1054940000000000000000000000000000006AA6F8
:1054A400EDCDFE4EFE4EFE4EFE4EBCAA1060000038
:1054B40000000000000000000000000000000000E8
:1054C40000000000000000000000000000000000D8
:1054D40000000000000000000000000000000000C8
:1054E40000000000000000000000000000000000B8
:1054F40000000000000000007B27FE4EFE4EFE4E22
:10550400FE4EFE4EFE4EFE4E8B8800000000000054
:105514000000000000000000000000000000000087
:105524000000000000000000000000000000000077
:105534000000000000000000000000000000000067
:105544000000000000000000000000000000000057
:1055540000005A45FE4EFE4EFE4EFE4EFE4EFE4EE0
:10556400FE4EFE4EFE4E3983000000000000000097
:105574000000000000000000000000000000000027
:105584000000000000000000000000000000000017
:105594000000000000000000000000000000000007
:1055A4000000000000000000000010600000DD6C3E
:1055B400FE4EFE4EFE4EFE4EFE4EFE4EFE4EFE4E87
:1055C400FE4E8B8800000000000000000000000078
:1055D40000000000000000000000000000000000C7
:1055E40000000000000000000000000000000000B7
:1055F40000000000000000000000000000000000A7
:1056040000000000000010604183FE4EFE4EFE4E7E
:10561400FE4EFE4EFE4EFE4EFE4EFE4EFE4EEDCDB8
:105624000000000000000000000000000000000076
:105634000000000000000000000000000000000066
:105644000000000000000000000000000000000056
:105654000000000000000000000000000000000046
:10566400000000009BE8FE4EFE4EFE4EFE4EFE4E37
:10567400FE4EFE4EFE4EFE4EEDCD7B27000000009A
:105684000000000000000000000000000000000016
:105694000000000000000000000000000000000006
:1056A4000000000000000000000000005A45DD6C0E
:1056B400DD6C7B27000000000000000000000000FB
:1056C400CD0BFE4EFE4EFE4EBCAA0000292249E43C
:1056D4005A4539831060000020C10000000000001A
:1056E40000000000000000000000000000000000B6
:1056F40000000000000000000000000000000000A6
:105704000000000000004183FE4EFE4EFE4EFE4EA1
:105714007B2700000000000000000000FE4EFE4E4B
:10572400FE4EFE4EEDCD9BE851E4418320C151E491
:105734007B27CD0B9BE80000000000000000000068
:105744000000000000000000000000000000000055
:105754000000000000000000000000000000000045
:1057640020C1DD6CFE4EBCAADD6CFE4EFE4E7B27D6
:105774000000000000002922FE4EFE4EFE4EFE4EAA
:10578400FE4EFE4EFE4EFE4EFE4EFE4EFE4EFE4EB5
:10579400CD0B00000000000000000000000000002D
:1057A40000000000000000000000000000000000F5
:1057B4000000000000000000000000005A45FE4EFA
:1057C4009BE800007B27FE4EFE4EFE4E7B2700002A
:1057D40000004183FE4EFE4EFE4EFE4EFE4EFE4E39
:1057E400FE4EFE4EFE4EFE4EFE4EFE4EDD6C0000A4
:1057F40000000000000000000000000000000000A5
:105804000000000000000000000000000000000094
:1058140000000000000000007B27DD6C10602922DE
:10582400FE4EFE4EFE4EFE4EFE4E7B2700005A45B7
:10583400FE4EFE4EFE4EFE4EFE4EFE4EFE4EFE4E04
:10584400FE4EFE4EFE4EFE4EFE4E000000000000D8
:105854000000000000000000000000000000000044
:105864000000000000000000000000000000000034
:105874000000000039835A4520C1DD6CFE4EFE4E07
:10588400FE4EFE4EFE4EFE4E9BE8DD6CFE4EFE4E80
:10589400FE4EFE4EFE4EFE4EFE4EFE4EFE4EFE4EA4
:1058A400FE4EFE4EFE4E20C100000000000000002F
:1058B4000000000000000000418351E420C100000A
:1058C40000000000000000000000000000000000D4
:1058D400000000009BE8FE4EFE4EFE4EFE4EFE4EC5
:1058E400FE4EFE4EFE4EFE4EFE4EFE4EFE4EFE4E54
:1058F400FE4EFE4EFE4EFE4EFE4EDD6CCD0BAC4912
:105904006AA6000000000000000000000000000083
:1059140000007B27FE4EFE4EDD6C10600000000090
:105924000000000000000000000000000000000073
:10593400AC49FE4EFE4EFE4EFE4E7B2720C1EDCD01
:10594400FE4EFE4EFE4EFE4EFE4EFE4EFE4EFE4EF3
:10595400FE4EFE4EEDCD0000000000001060000081
:105964000000000000000000000000001060FE4E77
:10597400FE4EFE4EFE4E6AC600000000000000000F
:105984000000000000000000000000001060CD0BCB
:10599400FE4EFE4E9BE800006AA6FE4EFE4EFE4EF4
:1059A400FE4EFE4EFE4EFE4EFE4EFE4EFE4EFE4E93
:1059B400FE4EBCAAAC49CD0BEDCD20C100000000C9
:1059C40000000000000000005A45FE4EFE4EFE4E50
:1059D400FE4E49E40000000000000000000000004A
:1059E400000000000000000000001060CD0BDD6C22
:1059F40020C12922FE4EFE4EFE4EFE4EFE4EFE4EAF
:105A0400FE4EFE4EFE4EFE4EFE4EFE4EFE4EFE4E32
:105A1400FE4EFE4EFE4E20C10000000000000000BD
:105A240000000000BCAAFE4EFE4EFE4EFE4E10606C
:105A34000000000000000000000000000000000062
:105A4400000000000000000010605A450000DD6CFA
:105A5400FE4EFE4EFE4EFE4EFE4EFE4EFE4EFE4EE2
:105A6400FE4EFE4EFE4EFE4EFE4EFE4EFE4EFE4ED2
:105A7400FE4E10600000000000000000000020C185
:105A8400FE4EFE4EFE4EFE4EBCAA0000000000007C
:105A94000000000000000000000000000000000002
:105AA400000000000000000049E4FE4EFE4EDD6CE4
:105AB4006AA6EDCDFE4EFE4EFE4EFE4EFE4EFE4E50
:105AC400FE4EFE4EFE4EFE4EFE4EFE4EFE4E0000BE
